:1000000053EF1AF068961200046ED8CF05F0E0CFD7
:1000100006F00001E9CF0CF0EACF07F0E1CF08F0DD
:10002000E2CF09F0D9CF0AF0DACF0BF0F3CF12F01C
:10003000F4CF13F0FACF14F0F5CF15F0F6CF16F099
:10004000F7CF17F000C00EF001C00FF002C010F0A3
:1000500003C011F0F2AA30EF00F0F2B40AEF0AF098
:10006000A0AA36EF00F0A1BAC6EF09F00EC000F06A
:100070000FC001F010C002F011C003F00CC0E9FF86
:1000800007C0EAFF078E08C0E1FF09C0E2FF0AC00F
:10009000D9FF0BC0DAFF12C0F3FF13C0F4FF14C086
:1000A000FAFF15C0F5FF16C0F6FF17C0F7FF0450A2
:1000B00006C0E0FF05C0D8FF1000F76ACA0FF66E51
:1000C000000EF7220900F5501200000302FFFFFFA7
:1000D000FFFFFFFFFFFFFFFFFFFFF76AEA0FF66E6C
:1000E000000EF7220900F550120000FF02FFFFFF8B
:1000F000FFFFFFFFFFFFFFFFFFFFF76A0A0FF66E2C
:10010000010EF7220900F550120040000B004000DC
:1001100000000000000000000000000000000000DF
:1001200000000000000000000000F76A3A0FF66EC1
:10013000010EF7220900F5501200400000004000B7
:1001400000000000000000000000000000000000AF
:1001500000000000000000000000F76A6A0FF66E61
:10016000010EF7220900F5501200090243000201B6
:100170000080FA09040000010202010005240010B9
:1001800001042402020524060001052401000107E0
:100190000581030B00FA09040100020A00000007B0
:1001A0000502024000010705820240000100F76AD3
:1001B000BE0FF66E010EF7220900F5501200020084
:1001C000F76AD00FF66E010EF7220900F550120003
:1001D00012171B20FFFFFFFFF76AE80FF66E010EF4
:1001E000F7220900F5501200120110010200004030
:1001F00005240B00000101020001F76A0A0FF66EE8
:10020000020EF7220900F550120004030904080346
:1002100043004300530020034300430053002000E9
:10022000550053004200200074006F00200055006C
:10023000410052005400F76A460FF66E020EF72294
:100240000900F5501200496E697469616C20636F92
:100250006E662073746172747300F76A6A0FF66ECB
:10026000020EF7220900F55012004572726F723AC1
:100270002049442064656C2052464D20696E636FAE
:100280007272656374610000F76A980FF66E020E71
:10029000F7220900F55012004944204C6F6F70009E
:1002A000F76AB00FF66E020EF7220900F550120041
:1002B000496E697469616C20636F6E6669677572F7
:1002C0006174696F6E20656E640A0000F76ADC0F66
:1002D000F66E020EF7220900F55012004F50204C26
:1002E0006F6F70203100F76AF60FF66E020EF7227C
:1002F0000900F55012004F50204C6F6F70203200F3
:10030000F76A100FF66E030EF7220900F55012007F
:100310005061796C6F61643A2000F76A2A0FF66EBB
:10032000030EF7220900F550120054696D65642030
:100330006F757400F76A440FF66E030EF72209001A
:10034000F55012004649464F204C454E3A200000D9
:10035000F76A600FF66E030EF7220900F5501200DF
:10036000496420696E636F72726563746F00F76A27
:100370007E0FF66E030EF7220900F5501200494E6B
:10038000495420444F4E4500F76A980FF66E030E0D
:10039000F7220900F55012004573706572616E64B2
:1003A0006F006D92699468A402D06894FCD7689835
:1003B000D2EF09F0400E0401016F040E0201376F05
:1003C000180E37C203F4E8CF02F4880E0401006F60
:1003D000046B040E076F580E066F0001120070A028
:1003E00002D0E8DF7090689AD9EF09F06A6A6892E3
:1003F000DEEF09F00201439142BF4381429F425127
:10040000100803E2000E016E1AD043A10DD0036A5A
:100410004251000152DEFF0802E1000E01D0010E40
:10042000016E02010CD00BD0036A4251000155DE6F
:10043000FF0802E1000E01D0010E016E0201000171
:100440001200020148514A03F3CF01F0F4CF00F04B
:100450004B03F350002649514A03F3500020026E2B
:1004600000011200036A02014151700FE96E0F0E84
:100470000320EA6EEF6A41C242F20001BBDF015283
:1004800028E00201496B41C248F24B6B080E4A6FEB
:100490000001D7DF020101C0E9FF040E0224EA6E69
:1004A000EF6A496B41C248F24B6B080E4A6F00017C
:1004B000C8DF02C043F201C042F2040E020142272B
:1004C000000E432342C2E9FF040E4325EA6EEF6AA1
:1004D00000011200010E0201406F40510F0807E3B6
:1004E00040C241F20001BEDF0201402BF6D70001FD
:1004F000120002013A6B396B250E386F800E376F90
:1005000037C22BF038C22CF02D6A2E6A376B37C2F7
:100510002FF0376B37C230F0080E376F37C231F02B
:100520000001B66BB591336A326AB46B1E90B76B3B
:100530001200286A276A0201366B365101080AE365
:10054000036A3651290FE96E000E0320EA6EEF6A46
:10055000362BF3D70001CDDF1B6A010E1C6E1A6A21
:1005600012006B6A696A6A6A686A6E6A706AB2DFE8
:10057000E0DF160E706E68A602D044DDFCD79F0E39
:100580006B6E3D0E696E6D9815DF030E226EE3EF04
:1005900009F0698469986D82E8EF09F0689CEDEFD5
:1005A00009F03BC223F01200236812000201396BEC
:1005B0002750281033E039513F0830E31D50000A1E
:1005C000000105E0020A0AE0010A0FE014D026C08B
:1005D00003F02550C2DDE8CF3AF20DD026C003F07B
:1005E00025500BDEE8CF3AF206D026C003F02550A6
:1005F000F3DDE8CF3AF2252AD8B4262A2750D8B41A
:100600002806270602013951392B580FE96E040ECE
:10061000EA6ED8B0EA2A3AC2EFFFCAD727502810AC
:1006200004E13951400801E01A6A39C23BF2000185
:10063000B8DF12000201386B266A256A1D6A0401C0
:100640001B51010A000107E0030A0BE0010A0DE05B
:10065000220A27E03BD0286A120E276E030E1D6E79
:1006600037D0286A430E276E33D0020E1D6E02016A
:10067000386B04011A510201385D0BE226C003F009
:1006800025500001BADD2526000E26220201382B56
:10069000F0D726C003F025500001AFDD276E286A91
:1006A00017D0036A04011A5100018ADD256E266AFB
:1006B000253C02D0265208E026C003F025504DDD2F
:1006C000276E286A05D002D06FDF11D06DDF0FD002
:1006D00004011F5308E1285203E127501E5D03E285
:1006E000286A1EC427F0010E1A6E00015FDFCAEFF0
:1006F00004F00201385306E1040E226E0001EADE26
:10070000EAD00201050E226E040E3B6F980E3A6F7E
:10071000010E396F39510F08D8A0DDD039C241F22E
:100720000001A0DE02013C6B036A39510001D5DCF7
:10073000FF0867E0040E02013C6FD8903935036A68
:100740000001F3DC0900F5CF03F002013D6F03C0A7
:100750003EF2496B39C248F24B6B080E4A6F0001FA
:1007600070DE01C040F2010E02010124016E000E94
:100770000220036E01C0E9FF040E0324EA6E3DC2AD
:10078000EFFF496B39C248F24B6B080E4A6F00010C
:1007900058DE01C040F2020E02010124016E000E7B
:1007A0000220036E01C0E9FF040E0324EA6E3BC27F
:1007B000ECFFED523AC2EFFFD8903935036A0001E1
:1007C000B4DC0900F5CF03F002013A2703503B23C4
:1007D000880E3F6F3EA101D03F813EA301D03F83F1
:1007E000496B39C248F24B6B080E4A6F000129DE93
:1007F000020101C0E9FF040E0224EA6E3FC2EFFFCE
:100800000001036A02013951000157DCFF0848E08A
:1008100002013C83496B39C248F24B6B080E4A6FA8
:1008200000010FDE02C041F201C040F2040E0201DD
:100830004027000E4123020E4025016E000E41218B
:10084000036E01C0E9FF040E0324EA6E3BC2ECFF15
:10085000ED523AC2EFFFD8903935036A00014DDC02
:100860000900F5CF03F002013A2703503B23496BFF
:1008700039C248F24B6B080E4A6F0001E2DD02C03C
:1008800041F201C040F2040E02014027000E412354
:1008900040C2E9FF040E4125EA6E400EEF6E0001F2
:1008A00002013C51060802E10E0E3C6F036A395109
:1008B000000103DC010803E002013C890001036A36
:1008C00002013951700FE96E0F0E0320EA6E3CC22F
:1008D000EFFF392B1FD70001C2EF04F004011951BB
:1008E000000A00010DE0010A15E0020A21E0060AF3
:1008F0002CE0030A33E00E0A33E0010A39E049D064
:100900001CC058F40401596B020E02013B6F000138
:1009100048DE40D004011A2D08D0010E1C16020139
:100920003B6B00013EDE03D0040100013DDE32D00E
:1009300004011A2D07D01C8202013B6B000131DE3D
:1009400003D00401000130DE25D0020E1A6E1AC455
:1009500024F002013B6B000124DE1CD06BD61AD0C0
:100960001BC058F4010E02013B6F00011ADE12D0C9
:1009700004011A5101080BE31AC41BF01AC438F21F
:100980000001B7D602013B6B00010BDE0401000140
:1009900001D00ADE65EF06F01BC038F204011951E0
:1009A000000A000105E00A0A0CE0010A2DE042D02D
:1009B0000401586B596B020E02013B6F0001F1DD1F
:1009C0003AD0020138531DE0010E385D036A000180
:1009D000D7EC00F0016E04011C5DD8A002D002012A
:1009E00010D0036A1C51290FE96E000E0320EA6E35
:1009F000EFCF58F4010E02013B6F0001D2DD03D0AE
:100A000002010001D1DD17D00201385310E0036A62
:100A100004011C51290FE96E000E0320EA6E1AC46E
:100A2000EFFF02013B6B0001BCDD03D002010001BE
:100A3000BBDD01D0B9DD65EF06F00201399138BFA9
:100A40003981389F39A119D0496B38C248F24B6BB4
:100A5000080E4A6F0001F5DC02C03BF201C03AF219
:100A6000040E02013A27000E3B233AC2E9FF040EAE
:100A70003B25EA6E880EEF6E0FD0496B38C248F204
:100A80004B6B080E4A6F0001DCDC020101C0E9FF7C
:100A9000040E0224EA6EEF6A036A3851700F016E89
:100AA0000F0E032201C0E9FF03C0EAFFEF9000012F
:100AB000DAEF05F00201399138BF3981389F39A149
:100AC00019D0496B38C248F24B6B080E4A6F0001CF
:100AD000B8DC02C03BF201C03AF2040E02013A2730
:100AE000000E3B233AC2E9FF040E3B25EA6E840E5A
:100AF000EF6E10D0496B38C248F24B6B080E4A6F4C
:100B000000019FDC020101C0E9FF040E0224EA6E2D
:100B1000840EEF6E0001E2EF05F00201399138BF5B
:100B20003981389F39A119D0496B38C248F24B6BD3
:100B3000080E4A6F000185DC02C03CF201C03BF2A6
:100B4000040E02013B27000E3C233BC2E9FF040ECA
:100B50003C25EA6EEFCF3AF210D0496B38C248F22A
:100B60004B6B080E4A6F00016CDC020101C0E9FF0B
:100B7000040E0224EA6EEFCF3AF23AAF02D03AB551
:100B800002D0000E01D0010E016E0001EEEF05F063
:100B90001CC442F22FDC01522EE004011951010A5B
:100BA000000105E0020A0BE0030A11E023D01CC497
:100BB00038F243D702013B6B0001F3DC1CD01CC4AC
:100BC00038F278D702013B6B0001EBDC14D0040152
:100BD000586B596B1CC438F200019FD7015204E0D6
:100BE000010E0401586F0001020E02013B6F00016B
:100BF000D8DC01D0D9DC65EF06F0FE0E236E1200C2
:100C000004011C2D01D002D01C5345E11FC439F250
:100C10001EC438F21951000A00010BE0010A0DE070
:100C2000210A0FE0010A12E0030A23E0010A28E08A
:100C300030D0010EB76FE1DF2DD038C23BF2B1DC0E
:100C400029D0020EB76FB581D8DF24D0040EEA6E2A
:100C5000580EE96EE26A2B0EE16E070E016EE6CFCA
:100C6000EEFF012EFCD7070E02013B6F000199DC5D
:100C700011D01AC4B6F002013B6B000192DC0AD01D
:100C80001AC433F01BC432F002013B6B000189DC53
:100C900001D08ADC0401000165EF06F01A6A040144
:100CA00018517F0B000A000107E0010A07E0030A60
:100CB00007E0230A07E008D011D607D06DD605D08B
:100CC00067D703D09DD701D06FDC64EF09F0020134
:100CD000496B39C248F24B6B080E4A6F000121EC98
:100CE00002F0020101C0E9FF040E0224EA6EEFCF18
:100CF0003BF23A51020806E13BAD02D03A6B02D01A
:100D0000010E3A6F3A5103081CE1840E3B6F496BA8
:100D100039C248F24B6B080E4A6F000121EC02F019
:100D200002C03FF201C03EF2040E02013E27000E57
:100D30003F233EC2E9FF040E3F25EA6E840EEF6EAC
:100D400007D03A2D03D0C80E3B6F02D0880E3B6F00
:100D5000D8903935036A000195EC00F00900F5CF11
:100D600003F002013C6F03C03DF2496B39C248F207
:100D70004B6B080E4A6F000121EC02F001C03EF2FD
:100D8000010E02010124016E000E0220036E01C05B
:100D9000E9FF040E0324EA6E3CC2EFFF3DA101D03F
:100DA0003B813DA301D03B83496B39C248F24B6B79
:100DB000080E4A6F000121EC02F0020101C0E9FFB8
:100DC000040E0224EA6E3BC2EFFF00011200036A28
:100DD00002014751700FE96E0F0E0320EA6EEF52C9
:100DE0001BE0496B47C248F24B6B080E4A6F00018B
:100DF00021EC02F002C049F201C048F2040E0201E7
:100E00004827000E492348C2E9FF040E4925EA6E2F
:100E1000EFCF4AF24AAF02D0000E01D0010E016EB0
:100E20000001120042C247F2D2DF0152D8B49BD077
:100E30000201496B42C248F24B6B080E4A6F000137
:100E400021EC02F002C048F201C047F2040E020198
:100E50004727000E4823010E4725016E000E48214A
:100E6000036E01C0E9FF040E0324EA6E43C2EFFFE4
:100E70004551020820E1496B42C248F24B6B080E13
:100E80004A6F000121EC02F002C048F201C047F2B3
:100E9000040E02014727000E482347C2E9FF040E53
:100EA0004825EA6EEFCF46F246AD02D0456B02D040
:100EB000010E456F1AD04551040817E1496B42C233
:100EC00048F24B6B080E4A6F000121EC02F0020160
:100ED00001C0E9FF040E0224EA6EEFCF46F246ADF0
:100EE00003D0010E456F01D0456B452D03D0480E50
:100EF000466F02D0080E466F496B42C248F24B6BF8
:100F0000080E4A6F000121EC02F002C048F201C055
:100F100047F2040E02014727000E482347C2E9FFAB
:100F2000040E4825EA6E46C2EFFF496B42C248F202
:100F30004B6B080E4A6F000121EC02F002C048F230
:100F400001C047F2040E02014727000E482347C2A2
:100F5000E9FF040E4825EA6EEF508009EF6E010E9E
:100F6000016E04D00001000E016E020100011200AA
:100F7000B751010A03E0030A08E01BD002013B6BF2
:100F80000001D1EC02F0B76B15D0EA6A2B0EE96EC6
:100F9000040EE26E180EE16E070E016EE6CFEEFF54
:100FA000012EFCD7B76B02013B6B0001D1EC02F0C4
:100FB00001D0B76B18EF08F00201496B39C248F253
:100FC0004B6B080E4A6F000121EC02F002C03BF2AD
:100FD00001C03AF2010E02010124016E000E02204E
:100FE000036E01C0E9FF040E0324EA6EEFCF01F0A7
:100FF000026A00010CEF08F01E90020E0201396F28
:101000003A6F000164DE11EF08F01E80206A020EC4
:101010000201396F0001D0D701C01FF01F5201E15A
:10102000EBD71FEF08F00201385304E10001A0D70D
:1010300006D002013851020803E10001E6D702019F
:101040000001120039C26EFF0201395303E0040EA1
:10105000226E02D0020E226E000134EF08F01B6AED
:101060001A6A24C039F2EED73EEF09F03AC247F2CD
:10107000AEDE015247E00201496B3AC248F24B6BC7
:10108000080E4A6F000121EC02F002C043F201C0D9
:1010900042F2040E02014227000E4323020E4225B3
:1010A000016E000E4321036E01C0E9FF040E03240C
:1010B000EA6EECCF41F2ED52EFCF40F241C2EAFFCF
:1010C00040C2E9FF3CC2E2FF3BC2E1FF3EC202F088
:1010D0003DC201F0015202E0022A02D0025206E0B3
:1010E000E6CFEEFF012EFCD7022EFAD73AC242F22B
:1010F0003EC244F23DC243F23FC245F2000192DEDD
:10110000015002D0000E016E12003EC244F23DC2F8
:1011100043F240C246F23FC245F202014651445DED
:101120003CE303E14351455D38E241514525016E01
:1011300042514621036E4451035C2FE303E1015009
:10114000435D2BE2415143274251442341514527FE
:1011500042514623425303E1415100081DE24351ED
:10116000D8B44407430744C248F243C247F245514A
:10117000D8B44607450746C2EAFF45C2E9FFEFCFAC
:1011800049F244C2EAFF43C2E9FF49C2EFFF4151BD
:10119000D8B442074107DED720D0425303E1415182
:1011A00000081BE244C248F24351432BD8B4442BFD
:1011B000476F46C2EAFF4551452BD8B4462BE96E2E
:1011C000EFCF49F248C2EAFF47C2E9FF49C2EFFF49
:1011D0004151D8B442074107E0D73DC201F03EC2B9
:1011E00002F000011200B45336E0B4C039F202013B
:1011F00039513F0802E23F0E396F020E3A6F3C6BE5
:10120000340E3B6F3E6B39C23DF2020E3F6F000160
:101210002DDF015220E0036A02013951340F016EC3
:10122000000E032201C03AF203C03BF23951000123
:10123000B45D02013C6F3E6B340E3D6F03C040F263
:1012400001C03FF2426B3CC241F200015EDF02018D
:1012500039510001B45F1200C6DF45EF09F0020109
:1012600038530EE11A2C05D00001D6EC02F006D05E
:1012700002011A50020803E10001F1D6020106D072
:101280003851020803E10001E7D702010001120012
:1012900021300201366F363336331F0E3617215296
:1012A0004EE1040100513C0B0201376F430E040173
:1012B000001702013751340825E104010451800B65
:1012C00001E0046B0001EAD46D98233C07D00201D1
:1012D000396B030E3A6F0001FADC12D00201396B50
:1012E000020E3A6F0001F3DC2350FE0809E0020110
:1012F000426B446B23C043F2040E456F000192DD44
:101300001CD002013751040819E1386B00018BDE53
:101310000201396B020E3A6F0001D9DC2350FE083E
:101320000CE0233C01D009D00201426B446B23C086
:1013300043F2010E456F000175DD020122D02150FC
:10134000040812E12368386B000189DF233C01D0D7
:1013500009D00201426B446B23C043F2020E456F79
:10136000000160DD0DD0020121B406D036C238F292
:10137000000159DE05D0020136C238F200016FDFEC
:1013800002010001F9EF09F006EF0AF0A19A2252DA
:10139000D8B43CD06852D8B439D068A403D069B46A
:1013A000D1EF01F06DB232D068AA03D069BAEFEF85
:1013B00001F068A203D069B2F6EF01F068A003D093
:1013C00069B0B1EF02F068A803D069B8C9EF02F0C4
:1013D00068AC03D069BCCEEF02F00201356B68A6A1
:1013E0000AD069A608D06CCF21F0000102EC00F011
:1013F0004FD703D0020106D0000102013551352B31
:101400000308EDE21EA003D00001BED702010001D7
:1014100036EF00F0D76A720ED66E0000030EBA27C0
:10142000000EBB23BB5102080AE2FF0A03E1BA51D6
:10143000E70805E2BC2BE80EBA5F030EBB5BBC51AC
:101440003B0805E2BD2BD8B4BE2B3C0EBC5FBE539F
:1014500003E1BD513B0805E2BB6BBA6BBC6BBE6BD5
:10146000BD6BF29436EF00F00101886B8A6B85C189
:1014700089F1886B8751885D05E2D8908A378A8127
:10148000882BF8D78651016E04E0D8908A37012E58
:10149000FCD786C18BF189C101F08AC102F08BC1F2
:1014A00003F0000112006D926D6A696A080E6F6E9A
:1014B000945030090201946E226A196AF2BE198EA4
:1014C000F29E000199EC02F019BEF28E1200EBDFE1
:1014D000A7EF0AF01B50016E1200196AF2BE198EB6
:1014E000F29E99EC02F019BEF28E6D926D6A6D8CCF
:1014F00000D000D000006D9C140E6F6E696A6D867E
:10150000010E226E94EF0AF0E5DF015207E0196A3E
:10151000F2BE198EF29E67DE19BEF28E938481A40C
:1015200004D06DB601D0D9D703D06DA601D0BBDFF2
:10153000222C0BD06DBA09D0686A696AA08AC00EE5
:10154000F212110E696E020E226E1200C0D7DCDF9D
:1015500022500208FCE18BEF1CF0020EEA6E110E25
:10156000E96EEF500EE00F0E016E006A002EFED7FE
:10157000012EFBD78F0E006E002EFED70000EF2E3F
:10158000F2D7120002011D51070B006E1D31016ED2
:10159000013201321F0E011601501F25E96E000EA7
:1015A0002021EA6E016A012A002A01D00136002EAC
:1015B000FDD71E5303E00150EF1203D0011E01506E
:1015C000EF160001120002011C5302E1000E01D0CF
:1015D000010E1BC21DF21E6F0F0E206F890E1F6FB2
:1015E0000001D0DF1BC21DF202011E6B0F0E206F27
:1015F000920E1F6F0001C6DF1200050E02011B6F65
:101600001C6B0001E0DF1200010E02011B5F0DE305
:10161000020EEA6E1B0EE96EEF5007E0020E006E3E
:10162000002EFED700D0EF2EF9D7000133EF0BF0DC
:10163000050E02011B6F010E1C6F0001C4DF1200BA
:1016400002011A6B0001D9DF020116517F0B000164
:10165000C16FC950C1C0C9FFC730FEE3640E0201AB
:101660001B6F0001D1D702011A6B19511A5D0EE2EE
:101670001A511725E96E000E1821EA6EC950C96883
:10168000C730FEE3C9CFEFFF1A2BEFD70001D0DF41
:10169000120015C216F20201186BC10E176F010E6F
:1016A000196F0001CDDFC1C001F01200100E020160
:1016B000156F0001EEDF01C085F10101855124089D
:1016C00002E0000E01D0010E016E00019AEF1CF045
:1016D00002012091A0BA2081A09A0001B4517F0894
:1016E00007E2196AF2BE198EF29E7DDD19BEF28EF6
:1016F000B4517F0802E27F0EB46FB451B42B036A79
:10170000340FE96E000E0320EA6E1FC2EFFF0201E4
:1017100020A101D0A08A000191EF0BF01EC21FF2A0
:10172000D7D7B0EF0BF0800ED880B45516E1196A08
:10173000F2BE198EF29E020E0201476F0001E7EC25
:1017400006F019BEF28E015207E0196AF2BE198E38
:10175000F29E49DD19BEF28EE6D71DC21EF2DED71B
:10176000BBEF0BF0EF520FE0EACF1CF2E9CF1BF218
:10177000EFCF1DF2D8D71CC2EAFF1BC2E9FFE92A4E
:10178000D8B4EA2AEFD7CEEF0BF0BEDEA3DE0152CB
:1017900005E01AC2EAFF19C2E9FFE4D7120014C239
:1017A0001AF213C219F2F1DF0A0E0201156F166B5D
:1017B000020E1A6F150E196F0001E7DF1200AEC19D
:1017C00011F2CBDE12006EC11BF2010E02011C6F82
:1017D0000001F9DE010E0101AE6F0001F0DF6EC104
:1017E0001BF202011C6B0001EEDE050E0101AE6F63
:1017F0000001E5DF99EF10F0D4C11AF2D3C119F25C
:10180000C4DF12000201176B0001F7DE0201135161
:101810008009186FC95018C2C9FFC730FEE3176BA3
:101820001651175D0FE217511425E96E000E1521B0
:10183000EA6EEFCF18F2C95018C2C9FFC730FEE3F5
:10184000172BEED70001F4DE120012C2C1F011C254
:1018500013F20201156BC10E146F010E166F000119
:10186000D1DFC1C001F01200010121BF12D021510E
:1018700011080FE25A0E0201116FD1C112F20001DC
:10188000E4DF5C0E0201116FD1C112F20001DDDF55
:1018900001010001120011C215F2FBDE01C014F2B9
:1018A000020114511215006E1351016E04E0D8901C
:1018B0000032012EFCD70050016E00011200010120
:1018C000D26B0EC113F20DC112F20CC111F2000164
:1018D000E2DF015224E1640E0201116F00013DDEDE
:1018E000640E0101D22700010FDE010EEA6ED30E55
:1018F000E96E0A0E016EF76A000E66EC01F00A004E
:101900000900F5CFEEFF012EFBD7010E0201146F87
:10191000D30E136F000143DF0101D3D70001010E85
:101920000201156F0001B5DE01C055F1E30E0101A2
:101930005517D135006E0036FC0E001600505513B9
:10194000010E0201116F55C112F200017EDF01018B
:10195000D26B0EC113F20DC112F20CC111F20001D3
:101960009ADF015224E1D0DD640E0201116F000103
:10197000F4DD640E0101D227010EEA6EF20EE96E6B
:101980000A0E016EF76A000E000173EC01F00A0006
:101990000900F5CFEEFF012EFBD7010E0201146FF7
:1019A000F20E136F0001FBDE0101D3D7000112001C
:1019B000550E0101D16F000157DF010E0101D16FFA
:1019C00000017DDF1200D2C115F263DE01C0D5F146
:1019D0000101D351FF0AD517D1C100F0D451016ED6
:1019E00004E0D8900036012EFCD70050D513D2C1A8
:1019F00011F2D5C112F2000128DF12000101AEC1BF
:101A0000E9FFAFC1EAFFEFCFB0F1B05304E0AE534E
:101A10000DE1AF530BE1D16BD8C0D4F1D7C0D3F1F6
:101A2000D6C0D2F10001CFDF2AD00101010EAE25D0
:101A3000B16F000EAF21B26F2F0E0201136FB2C152
:101A400015F2B1C114F2B0C116F20001DBDE010ED5
:101A50000101B05DB16FD16FDBC0D4F1DAC0D3F159
:101A6000D9C0D2F10001AFDF010E0101D16FD8C0A2
:101A7000D4F1D7C0D3F1D6C0D2F10001A4DF37EF43
:101A800011F00101B16BB16B2C0E0201116FAFC1EE
:101A900012F20001DADE0101B16B2D0E0201116FAD
:101AA000AEC112F20001D1DE3DEF11F0070E0201CE
:101AB000116FAEC112F20001C8DE080E0201116FF3
:101AC000B0C112F20001C1DE090E0201116FAFC1F7
:101AD00012F20001BADE3EEF11F00101B651D8B4A6
:101AE000A5D0C26FBA51D8B4A1D0C25F05E37F0EB2
:101AF000C227D8B09BD006D0810EC25FD8A096D0A6
:101B0000D8B494D0C2C100F0016A026A036AC16B02
:101B1000B7C1C0F1C08FB8C1BFF1B9C1BEF1190ED4
:101B2000C26FBD51BE5F0DE2010EBF5F0AE2C05F32
:101B300008E2C15F06E2C12BC02BBF2BBD51BE27FF
:101B400028D0BC51BF5F12E2010EC05F0FE2C15F3F
:101B50000DE2C12BC02BBC51BF27BD51BE2719E3DD
:101B6000BF2B17E1C02B15E1C12B13D0BB5180094E
:101B7000C05F0EE2010EC15F0BE2C12BBB518009B9
:101B8000C027BC51BF27E9E3C02BE7E1C12BE5D754
:101B90000380C22F01D00BD0D890BE37BF37C037DB
:101BA000C137D890033602360136C337BAD7C3A13E
:101BB00006D0D890013202320332C33302D000067D
:101BC00035E0C3BF1ED0D890BE37BF37C037C1374E
:101BD000BD51BE5F07E2010EBF5F04E2C05F02E2DB
:101BE000C15F1AE3BC51BF5F05E2010EC05F02E2B4
:101BF000C15F12E3BB518009C05F03E2010EC15F08
:101C00000BE3032A09E1022A07E1012A05E1002A80
:101C10000DE0013202320332B7C1C2F1BB51C21B27
:101C2000C2AF02D0018E06D0019E04D0006A016AC4
:101C3000026A036A00011200800ED8A202D00101DC
:101C4000DC1B0101E16BE26BD8C1E0F1DC51E01B70
:101C5000D751D8B4DFD0DF6F006EDB51D8B4E3D0FA
:101C6000DF5FD8B483D03EE3DCC1E5F1E58FDDC1B1
:101C7000E4F1DEC1E3F1E26BD890E533E433E33322
:101C8000E233DF2FF8D7E0AF03D0E181E0D0E1917C
:101C9000DF91E189010EEA6EDA0EE96EEBD0E1998F
:101CA000E0BF0AD0DFA113D0E533E433E333E233FE
:101CB000002AD8B4C7D00BD0E5BF0CD0D890E237FB
:101CC000E337E437E5370006D8B4BCD0F5D7E18D6B
:101CD0006DD0E19DD8C1E0F1D8AF02D0E58FABD097
:101CE000E59FA9D0DBC1DFF1DBC100F0D751DF5F99
:101CF000D8C1E5F1E58FD9C1E4F1DAC1E3F1E26BD6
:101D0000D890E533E433E333E233DF2FF8D7E0AFA5
:101D100003D0E1839CD0E193DF91E18B010EEA6E69
:101D2000DE0EE96EA7D0E19BE0BF0AD0DFA113D0A1
:101D3000E533E433E333E233002AD8B483D00BD065
:101D4000E5BF0CD0D890E237E337E437E53700063B
:101D5000D8B478D0F5D7E18F29D0E19FDCC1E0F18C
:101D6000DCAF02D0E58F67D0E59F65D0DCC1E5F13F
:101D7000E58FDDC1E4F1DEC1E3F1E0AF04D0E59F22
:101D8000E18565D0E195E26BDF91010EEA6EDA0E36
:101D9000E96E70D0E0BF1CD0D8C1E0F1DFA106D061
:101DA000E533E433E333E233002A4CE0E2AF0BD017
:101DB000E32B09E1E42B07E1E52B05E1E533E4330F
:101DC000E333002A3FE0E1BD84D7E1BFC6D71CD092
:101DD000800EE51BE5AF04D03AD0DCC1E0F10AD0BB
:101DE000D8C1E0F1E55306E1E45304E1E35302E135
:101DF000006A21D0E5BF08D0D890E237E337E43756
:101E0000E537002EF7D71ED0E0AF02D0E58F13D014
:101E1000E59F11D0DBC100F0DCC1E5F1DDC1E4F1EB
:101E2000DEC1E3F108D0D7C100F0D8C1E5F1D9C1D6
:101E3000E4F1DAC1E3F1E5C101F0E4C102F0E3C18C
:101E400003F034D0006A016A026A036A2FD0E26BA1
:101E5000E31FE41FE51FE21FE22B05E1E32B03E193
:101E6000E42B01E1E52BE1B112D7E1B354D7E1B5A1
:101E700089D7B3D7EF50E32705E3E42B03E1E52B44
:101E8000D8B4DF81ED52EF50E42703E3E52BD8B45B
:101E9000DF81ED52EF50EFBE01D0800AE527D8B0C8
:101EA000DF81E1B9FCD6E1BB3ED774D70001120057
:101EB0008E0E006E0101B651005EB7C102F0B8C1CE
:101EC00001F0028E005209E0D890025202E1015264
:101ED00004E002320132002EF7D7B7AF05D0011E61
:101EE000021E012AD8B4022A000112000101B96BB6
:101EF000240EB86F740EB76F970EB66FB1C1BDF1F7
:101F0000B0C1BCF1AFC1BBF1AEC1BAF10001E5DDBA
:101F100003C0B9F102C0B8F101C0B7F100C0B6F119
:101F2000D89203C0DAF102C0D9F101C0D8F100C0E3
:101F3000D7F10101DE6BDD6BDC6B7E0EDB6F000128
:101F40007BDE03C0B9F102C0B8F101C0B7F100C037
:101F5000B6F1AEDF01C0B2F10101B36BB46BB56B8A
:101F6000BA6B030E0201116FB3C112F200016DDCF6
:101F70000101B76BB86BB96B040E0201116FB2C1EE
:101F800012F2000162DC5CEF11F0B1C1B9F1B0C135
:101F9000B8F1AFC1B7F1AEC1B6F10101BD6B240E0E
:101FA000BC6F740EBB6F840EBA6F000196DD03C068
:101FB000B9F102C0B8F101C0B7F100C0B6F1D892D2
:101FC00003C0DAF102C0D9F101C0D8F100C0D7F1E5
:101FD0000101DE6BDD6BDC6B7E0EDB6F00012CDE46
:101FE00003C0B9F102C0B8F101C0B7F100C0B6F149
:101FF0005FDF01C0B2F10101B36BB46BB56BBA6BBB
:10200000050E0201116FB3C112F200011EDC0101C5
:10201000B76BB86BB96B060E0201116FB2C112F249
:10202000000113DC66EF11F00101AF6BB06BB16B17
:10203000B26B0001B5A323D0010E0101B06FAEBF9A
:1020400003D0AE510D0804E3120EAE25B26F15D0C9
:10205000AEBF0ED0AE510D080BE2AEBF03D0AE51F5
:10206000110806E3010EB16F0E0EAE25B26F05D05A
:10207000010EB16F0B0EAE25B26F07D00001010E3D
:102080000101AF6F120EAE25B26FAFC1D1F1E1C049
:10209000D4F1E0C0D3F1DFC0D2F1000194DCB0C1D3
:1020A000D1F1E4C0D4F1E3C0D3F1E2C0D2F18BDCD2
:1020B000B1C1D1F1E7C0D4F1E6C0D3F1E5C0D2F1AE
:1020C00082DCB2C1D1F1EAC0D4F1E9C0D3F1E8C0F9
:1020D000D2F179DCAEC121F1D3EF11F00101906BA7
:1020E000010EEA6E910EE96E140E016EF76A000E93
:1020F00000011BEC01F00A000900F5CFEEFF012EF4
:10210000FBD7010E0201146F910E136F0001CFEC8B
:102110000BF00D0E0101216F87C16EF10001B59327
:10212000010189A103D00001B58301010001E3EFA2
:102130000BF0100E0201156F000149EC0BF001C00D
:1021400090F101019051240835E0010EEA6E910EE4
:10215000E96E1D0E016EF76A000E00012DEC01F014
:102160000A000900F5CFEEFF012EFBD7010E020198
:10217000146F910E136F0001CFEC0BF0010EEA6E9D
:10218000910EE96E080E016EF76A000E44EC01F044
:102190000A000900F5CFEEFF012EFBD7010E020168
:1021A000146F910E136F0001CFEC0BF084EC0AF06A
:1021B000E5D70101490E916F640E926F6C0E936F1B
:1021C000650E946F956B010ED46F910ED36F000165
:1021D000FCEC0BF0D8EC0CF0520E0101916F650E87
:1021E000926F610E936F640E946F790E956F966B7C
:1021F000010E0201146F910E136F0001CFEC0BF072
:102200003C0E0201116F8F0E126F000125EC0CF0D5
:102210006F0E0201116F300E126F000125EC0CF0F1
:102220005A0E0201116F550E126F000125EC0CF0D1
:102230005C0E0201116F700E126F000125EC0CF0A4
:10224000460E0101916F720E926F650E936F710EC3
:10225000946F956B010ED46F910ED36F0001FCEC5F
:102260000BF086C1AFF185C1AEF1FEEF0CF00101BC
:10227000AF6B88C1AEF1000104D418D4520E010135
:10228000916F650E926F610E936F640E946F790E6D
:10229000956F966B010E0201146F910E136F000182
:1022A000CFEC0BF00101B16B240EB06F740EAF6F69
:1022B000900EAE6F00011AD60101B16B240EB06F03
:1022C000740EAF6F900EAE6F00015FD6010E01016C
:1022D000D16FCFC0D4F1CEC0D3F1CDC0D2F10001C7
:1022E000E3EC0CF0070E0101D16FEDC0D4F1ECC0AE
:1022F000D3F1EBC0D2F10001E3EC0CF00101D16BA2
:10230000F0C0D4F1EFC0D3F1EEC0D2F10001E3ECA4
:102310000CF00101D16BF3C0D4F1F2C0D3F1F1C0E4
:10232000D2F10001E3EC0CF0070E0101D16FF6C011
:10233000D4F1F5C0D3F1F4C0D2F10001E3EC0CF01C
:102340000101D16BF9C0D4F1F8C0D3F1F7C0D2F1DB
:102350000001E3EC0CF00101D16BFCC0D4F1FBC037
:10236000D3F1FAC0D2F10001E3EC0CF0010E01014F
:10237000D16FFFC0D4F1FEC0D3F1FDC0D2F1000196
:10238000E3EC0CF0020E0101D16F02C1D4F101C1E6
:10239000D3F100C1D2F10001E3EC0CF00D0E01010C
:1023A000AE6F000141D60101366B356B346B336B78
:1023B0003A6B396B386B7E0E376F3E6B3D6B3C6B07
:1023C0003B6F426B416B406B800E3F6F050E436F5E
:1023D000476B466B456B446B486B51695269536B55
:1023E000546B230E0201116F020E126F000125ECD7
:1023F0000CF0250E0201116F126B000125EC0CF0A0
:10240000260E0201116F050E126F000125EC0CF073
:10241000290E0201116F1269000125EC0CF0380E33
:102420000201116F400E126F000125EC0CF03D0E01
:102430000201116F020E126F000125EC0CF0010E6B
:102440000101D16F17C1D4F116C1D3F115C1D2F179
:102450000001E3EC0CF0020E0101D16F14C1D4F1C4
:1024600013C1D3F112C1D2F10001E3EC0CF0010E63
:102470000101D16F1AC1D4F119C1D3F118C1D2F140
:102480000001E3EC0CF0010EEA6E910EE96E1B0EFA
:10249000016EF76A000E50EC01F00A000900F5CF5A
:1024A000EEFF012EFBD7010E0101D46F910ED36F09
:1024B0000001FCEC0BF0CCEF1CF0D8C1DFF1010106
:1024C000DC51DF1BDFAF05D0D894D890D8BFD880BF
:1024D0002FD0D8C1DFF1DBC1E0F1D751E05F06E0DA
:1024E000DFAF26D0D850010AD86E22D0DCC1E0F18F
:1024F000D851E05F06E0DFAF1BD0D850010AD86E9C
:1025000017D0DDC1E0F1D951E05F06E0DFAF10D0B8
:10251000D850010AD86E0CD0DEC1E0F1DA51E05F8C
:1025200006E0DFAF05D0D850010AD86E01D0D890B0
:1025300000011200550E0101D16F000134EC0CF0C6
:10254000010E0101D16F11C1D4F110C1D3F10FC13E
:10255000D2F10001E3EC0CF0040E0101D16F000197
:102560005FEC0CF012008E0E006ED6C101F0D5C1EA
:1025700002F0036A015209E102C001F0026A080E8A
:10258000005E015202E1006A08D0D89001BE04D07A
:10259000023601360006F9D7019E12000101D95119
:1025A000D8B471D0006EDD51D8B46DD0002604E3EC
:1025B000810E002668E204D07F0E005E64E363E0D3
:1025C000DAC1E1F1DE51E11BDA8FDE8FDC51E0038D
:1025D000F4CFE3F1DB51DF03F4CF03F0F3CFE2F10B
:1025E000E003F350E327F450E223000E0322DC5112
:1025F000DF03F350E327F450E223000E026A0322C4
:102600000222DA51E003F350E227F4500322000ED5
:102610000222DA51DF03F3500326F4500222000EA7
:10262000016A0122DC51DE03F350E227F450032259
:10263000000E02220122DB51DE03F3500326F45088
:102640000222000E0122DA51DE03F3500226F4507A
:102650000122002A01BE05D0E237033602360136D8
:102660000006000EE2AF0AD0032A02220122015026
:1026700005E1025003E1035001E1002AE1BF018EB0
:10268000E1AF019E04D0006A016A026A036A000198
:10269000AAEF13F0196AF2BE198EF29E0201496B7D
:1026A0003C0E486FBEC04BF2BDC04AF2000121ECA7
:1026B00002F019BEF28E02C0D6F101C0D5F10001C0
:1026C00052DF03C0D4F102C0D3F101C0D2F100C087
:1026D000D1F10101D66BBCC0D5F1000144DFD89225
:1026E000D4C1DAF1D3C1D9F1D2C1D8F1D1C1D7F176
:1026F00003C0DEF102C0DDF101C0DCF100C0DBF19E
:102700001CEC0EF003C0D4F102C0D3F101C0D2F131
:1027100000C0D1F1BBC0D6F1BAC0D5F124DF03C0EF
:10272000D8F102C0D7F101C0D6F100C0D5F103C085
:10273000DCF102C0DBF101C0DAF100C0D9F16F0EAB
:102740000101E06F120EDF6F030EDE6F750EDD6F9D
:10275000000124D7D892D4C1DAF1D3C1D9F1D2C1C2
:10276000D8F1D1C1D7F103C0DEF102C0DDF101C063
:10277000DCF100C0DBF11CEC0EF003C0D4F102C0B0
:10278000D3F101C0D2F100C0D1F1D1C100F0D2C16A
:1027900001F0D3C102F0D4C103F01200280E0201EF
:1027A000156F000149EC0BF001C0ABF10101AB5119
:1027B000040B006E003200323F0E001600C001F024
:1027C000000154EF18F0240E0201156F000149ECCE
:1027D0000BF0000ED88001540101D66BD56F0001BB
:1027E000C2DE03C0B9F102C0B8F101C0B7F100C048
:1027F000B6F10101BD6BBC6BBB6B800EBA6F000103
:102800006DEC0DF003C032F102C031F101C030F1C6
:1028100000C02FF12FC100F030C101F031C102F032
:1028200032C103F0C3EF18F00101B251016AB15D8A
:1028300003E2B1C100F00CD0006A080EB36FB137EB
:102840000036B251005CD8B0006E0136B32FF7D716
:1028500000011200C6C0EAFFC5C0E9FFB1C1EFFF29
:10286000E92AD8B4EA2AEF6A0001C52BD8B4C62BEE
:102870001200200E0101ACA9300EAD6FABC100F00B
:1028800000AE08D0001E002A00C0ABF12D0EAD6FC7
:10289000AC8FAC810150ABC1B1F1640EB26F0001DD
:1028A000C3DF00C0ABF1300E01240101AE6FABC13C
:1028B000B1F10A0EB26F0001B7DF300E0024010142
:1028C000B06F300E0124AF6FADC100F0300EAE5DC1
:1028D00004E0AC83ACBFAC8512D0ADC1AEF1200E2C
:1028E000AD6F300EAF5D04E0AC81ACBFAC8307D000
:1028F000D8A4AC8104E1AEC1AFF1200EAE6FACB58F
:1029000005D0ACB307D0ACB109D00CD0ADC1B1F19A
:102910000001A0DFAEC1B1F100019CDFAFC1B1F198
:10292000000198DFB0C1B1F1000194DFFBEF18F0B6
:10293000E1C1E3F1E0C1E2F10101E2C1E9FFE3C17C
:10294000EAFFDFC1ECFFED52DEC1EFFF020EE22530
:10295000E96E000EE321EA6EEC6AED52EF6AE2C125
:1029600001F0E3C102F000015EEF15F0020E01017B
:10297000DA25E96E000EDB21EA6EECCFDFF1ED52D5
:10298000EFCFDEF1DE530CE1DF530AE1020EDC256E
:10299000E96E000EDD21EA6EEC6AED52EF6A1BD0A3
:1029A000020EDC25016E000EDD21036EDF6F020ECC
:1029B000DA25E96E000EDB21EA6EECCF03F0ED5272
:1029C000EFCFE0F1DFC1EAFF01C0E9FF03C0ECFF98
:1029D000ED52E0C1EFFF020EDA25E96E000EDB21B9
:1029E000EA6EDDC1ECFFED52DCC1EFFF00016BEFE1
:1029F00015F00101DFC1E9FFE0C1EAFFE2C1ECFF30
:102A0000ED52E1C1EFFF00011200C0C0D5F1BFC01F
:102A1000D4F10101D45303E1D553D8B485D0D4C146
:102A2000E9FFD5C1EAFFECCFDBF1ED52EFCFDAF1F0
:102A3000DBBF6ED0D4C1E9FFD5C1EAFFECCFDDF139
:102A4000ED52EFCFDCF1D351DD5D62E303E1D25112
:102A5000DC5D5EE3D4C1E9FFD5C1EAFFECCFD9F17B
:102A6000ED52EFCFD8F1040ED225016E000ED32126
:102A7000036E0350D95D3EE303E1D851015C3AE2B5
:102A8000D251D85DDA6FD351D959DB6F040EDA5FBA
:102A9000000EDB5B040ED425DC6F000ED521DD6F4C
:102AA000D251DC27D351DD23DBC1DFF1DAC1DEF106
:102AB000DDC1E1F1DCC1E0F100013AD702C0D7F19C
:102AC00001C0D6F1D5C1DBF1D4C1DAF1D7C1DDF156
:102AD000D6C1DCF14BD70101800ED325DB6FD5C108
:102AE000E0F1D4C1DFF1E26FD2C1E1F1000181DF99
:102AF0000DD00101800ED925DB6FD5C1E0F1D4C125
:102B0000DFF1E26FD8C1E1F1000173DF01010CD008
:102B1000020ED425E96E000ED521EA6EECCFD5F178
:102B2000ED52EFCFD4F176D7D45307E1D55305E179
:102B3000000E016E026E08D007D0040ED425016E7F
:102B4000000ED521036E026E00011200C0C0E2F13A
:102B5000BFC0E1F1020E0101E125E96E000EE221A4
:102B6000EA6EECCFE4F1ED52EFCFE3F1DF51E35D3C
:102B700003E1E051E45D0EE0020EE125E96E000E96
:102B8000E221EA6EECCFE2F1ED52EFCFE1F100018C
:102B9000E1D70101020EE125016E000EE221036E74
:102BA000E46F020EDF25E96E000EE021EA6EECCF45
:102BB00003F0ED52EFCFE5F1E4C1EAFF01C0E9FF18
:102BC00003C0ECFFED52E5C1EFFFE06BDF6B0001EE
:102BD00049EF16F0C0C0D8F1BFC0D7F10101D753FB
:102BE00003E1D853D8B47CD0D7C1E9FFD8C1EAFFFC
:102BF000ECCFE0F1ED52EFCFDFF1E0BF63D0D7C112
:102C0000E9FFD8C1EAFFECCFDCF1ED52EFCFDBF109
:102C1000020ED725E96E000ED821EA6EECCFDAF16C
:102C2000ED52EFCFD9F1D9C1E9FFDAC1EAFFECCF1C
:102C3000E0F1ED52EFCFDFF1E0BF36D0DB51D72529
:102C4000E16FDC51D821E26F040EE125016E000E28
:102C5000E221036E0150D95D27E10350DA5D24E1E2
:102C6000D9C1E9FFDAC1EAFFECCFDEF1ED52EFCFD7
:102C7000DDF1040EDD25016E000EDE21036E015034
:102C8000DB270350DC23DAC1E0F1D9C1DFF1000119
:102C90005DD7D8C1E0F1D7C1DFF1DCC1E2F1DBC122
:102CA000E1F1A7DE0DD00101020ED725E96E000E7D
:102CB000D821EA6EECCFD8F1ED52EFCFD7F1000179
:102CC0000DD00101020ED725E96E000ED821EA6E63
:102CD000ECCFD8F1ED52EFCFD7F100017FD7010152
:102CE0000001ADEF16F00101D15304E1D25302E12E
:102CF00035D031D0040ED15DD36F000ED259D46FD0
:102D0000D3C1E9FFD4C1EAFFECCFD8F1ED52EFCF48
:102D1000D7F1D8AF1DD0D3C1E9FFD4C1EAFFECCFC2
:102D2000D8F1ED52EFCFD7F1000ED75DD56F800E01
:102D3000D859D66FD4C1E0F1D3C1DFF1D6C1E2F1E9
:102D4000D5C1E1F1000155DE0101D26BD16B03D099
:102D5000D26BD16B03D000013DD7010100011200FD
:102D60005D0E0101D16F000134EC0CF00101D16B5B
:102D700011C1D4F110C1D3F10FC1D2F10001E3ECC4
:102D80000CF0030E0101D16F00015FEC0CF0A0EF1D
:102D900017F0280E0201156F000149EC0BF00150ED
:102DA000080B006E0032003200321F0E001600C009
:102DB00001F0B0EF17F0D8EC0CF00101BF6BBE6B67
:102DC000BD6BBC6B050EB225010FD16FD36BD26FFB
:102DD00000011BDE02C0C1F101C0C0F10101C0C190
:102DE000E9FFC1C1EAFF040EB225EF6EB55100083C
:102DF00009E2010EC025E96E000EC121EA6E52C142
:102E0000EFFF08D0010EC025E96E000EC121EA6E69
:102E1000B4C1EFFFB751000809E2020EC025E96E08
:102E2000000EC121EA6E51C1EFFF08D0020EC0258D
:102E3000E96E000EC121EA6EB6C1EFFF030EC02598
:102E4000E96E000EC121EA6EB8C1EFFF040EC02585
:102E5000E96E000EC121EA6EBAC1EFFFBF6BBE6B17
:102E6000BD6BBC6BBF5333E1BE5331E1BD532FE1AA
:102E7000BC51B25D2CE3050EBC25D16F000EBD2107
:102E8000D26F000EBE21D36F000EBF21D46FC05190
:102E9000D125016EC151D221036E01C0D5F1D66F8B
:102EA000B051BC25E96EB151BD21EA6EEFCFD7F12B
:102EB00003C0EAFF01C0E9FFD7C1EFFF010EBC2745
:102EC000D8B0BD2BD8B4BE2BD8B4BF2BCBD7050EF2
:102ED000B225D16F0201136BC1C115F2C0C114F24A
:102EE000166F000102EC0CF0010EEA6EC20EE96EE4
:102EF0000A0E016EF76A000E80EC01F00A0009006C
:102F0000F5CFEEFF012EFBD7010E0101D46FC20EEB
:102F1000D36F0001FCEC0BF0050E0101C025D16F51
:102F2000000EC121D26FE8CF14F2D1C113F200011B
:102F3000CFEC0BF0C1C1D2F1C0C1D1F1D4DE10D7BA
:102F40004AEC13F003C0CFF102C0CEF101C0CDF1C5
:102F500000C0CCF10101D091D0B14ED0000119D701
:102F60000152D8B402D0010147D084EC0AF04AECF7
:102F700013F003C0D4F102C0D3F101C0D2F100C0FC
:102F8000D1F1EACFD6F1E9CFD5F1D88203C0DAF199
:102F900002C0D9F101C0D8F100C0D7F1CFC1DEF134
:102FA000CEC1DDF1CDC1DCF1CCC1DBF11CEC0EF00A
:102FB000D6C1EAFFD5C1E9FF03C0D4F102C0D3F105
:102FC00001C0D2F100C0D1F142C1DAF141C1D9F161
:102FD00040C1D8F13FC1D7F103C0DEF102C0DDF13D
:102FE00001C0DCF100C0DBF15DEC12F001E202E1B6
:102FF0000101D0810101B0D7B35305E000019AEC83
:1030000012F004D001010001D8EC0CF0000E010117
:10301000D0A1010E016E0001D3EF19F001018C91D6
:103020008D6B8E6B916B906B8AC1DAF189C1D9F18E
:1030300088C1D8F187C1D7F1DE6BDD6BDC6BDB6B50
:1030400000015DEC12F008E13EC18AF13DC189F159
:103050003CC188F13BC187F18AC1DAF189C1D9F15C
:1030600088C1D8F187C1D7F10101DE6BDD6BDC6B64
:10307000DB6B00015DEC12F0D8B481D09AEC12F059
:103080004AEC13F003C0B9F102C0B8F101C0B7F1C6
:1030900000C0B6F158EC0FF001C08DF101018CB108
:1030A0006FD00001CEEF13F00152D8B402D001016D
:1030B00067D084EC0AF04AEC13F003C0AEF102C012
:1030C000ADF101C0ACF100C0ABF10101D66B8DC117
:1030D000D5F10001B3EC12F0EACFB0F1E9CFAFF1D6
:1030E000D882AEC1DAF1ADC1D9F1ACC1D8F1ABC172
:1030F000D7F103C0DEF102C0DDF101C0DCF100C098
:10310000DBF11CEC0EF0B0C1EAFFAFC1E9FF03C078
:10311000AEF102C0ADF101C0ACF100C0ABF142C1F3
:10312000DAF141C1D9F140C1D8F13FC1D7F103C0B3
:10313000DEF102C0DDF101C0DCF100C0DBF15DECCD
:1031400012F001E21BE1010EEA6E960EE96E0A0E24
:10315000016EF76A000E8DEC01F00A000900F5CF50
:10316000EEFF012EFBD7010E0201146F960E136FB6
:103170000001CFEC0BF001018C8100018FD7010120
:103180000001E3EF13F003C036F102C035F101C0D6
:1031900034F100C033F1D8EC0CF001018CB172D1E4
:1031A0000201156B000149EC0BF001C08FF1010E1B
:1031B000EA6EA00EE96E0B0E016EF76A000E9AEC35
:1031C00001F00A000900F5CFEEFF012EFBD7010E3A
:1031D0000101D46FA00ED36F0001FCEC0BF0010EC7
:1031E000C66F920EC56F8FC1ABF1180E0101AC6FA7
:1031F000000139EF14F0010E0201146F920E136FEB
:103200000001CFEC0BF001018F532CE0020E8F2553
:10321000AB6FD36BD26F000105EC15F002C091F1DA
:1032200001C090F1010190C1E9FF91C1EAFF8FC196
:10323000EFFF010E8F259025E96E000E9121EA6EB9
:10324000EF6A010E9025AB6F000E9121AC6F020169
:10325000166B186FABC117F28FC119F2000120EC89
:103260000BF001018F51040803E3916B906B0AD1BD
:10327000513D01D01CD0010E9025E96E000E912128
:10328000EA6EEF3C01D013D0010E9025E96E000EDE
:103290009121EA6E5151EF5C0AE091C1D2F190C1E7
:1032A000D1F1000120DD0101916B906BC1D08653FB
:1032B000D8B4BED0040E9025E96E000E9121EA6EBE
:1032C000EF50800BD8A4B4D0010E9025E96E000E0B
:1032D0009121EA6EEF3C01D0ABD047C1DAF146C193
:1032E000D9F145C1D8F144C1D7F1DE6BDD6BDC6BA0
:1032F000DB6B00015DEC12F022E047C1B9F146C181
:10330000B8F145C1B7F144C1B6F10101BD6BBC6B69
:103310007A0EBB6F880EBA6F00016DEC0DF003C022
:10332000B9F102C0B8F101C0B7F100C0B6F158EC74
:103330000FF001C0ABF101C0AEF1DFEC0BF0210EDC
:103340000101A06FA16B020E9025E96E000E912184
:10335000EA6EEFCFB3F1010E9025E96E000E9121D8
:10336000EA6EEFCFB4F1030E9025E96E000E9121C5
:10337000EA6EEFCFB6F1040E9025E96E000E9121B2
:10338000EA6EEF508009AF6F010EB16FA00EB06F03
:10339000B26BB56BB76BB96BAFC1B8F1010EBB6F58
:1033A000BA6B000108D5020E01019025E96E000EEE
:1033B0009121EA6E036AEF50490FE96E010E032076
:1033C000EA6EEFCFABF1030E9025E96E000E91216E
:1033D000EA6EEF50AB5D12E1040E9025E96E000E2F
:1033E0009121EA6EEFAC0AD091C1D2F190C1D1F136
:1033F000000179DC0101916B906B1AD0020E9025CF
:10340000E96E000E9121EA6E036AEF50490F016EDA
:10341000010E0322030E9025E96E000E9121EA6E43
:10342000EFCFADF103C0EAFF01C0E9FFADC1EFFF8F
:103430008B5328E1905302E1915324E0010E8E6FEB
:10344000040E8F5D8E5D17E28E519025016E000E89
:103450009121036E040E8E259025E96E000E9121B8
:10346000EA6EEFCFADF103C0EAFF01C0E9FFADC1E5
:10347000EFFF8E2BE5D790C1E9FF91C1EAFF040E63
:10348000EF5CEF6E855304E000019AEC12F003D07C
:103490000001D8EC0CF0010190C101F091C102F0E3
:1034A0000001F0EF1CF0F86AD09E078EFE0E006E51
:1034B000040E016E020EE96E000EEA6EEE6A002E38
:1034C000FDD7012EFBD7DD0E006E030E016E230E1D
:1034D000E96E050EEA6EEE6A002EFDD7012EFBD7CF
:1034E000C69A400EC76E220EC66E949E9380898A3D
:1034F000929A9392C66BC56B020E0101856F050E01
:10350000866F020E876F000134EC0AF003C0C9F029
:1035100002C0C8F001C0C7F0020E0101856F030EA2
:10352000866F020E876F000134EC0AF003C0CCF006
:1035300002C0CBF001C0CAF0020E0101856F866B9C
:10354000876F000134EC0AF003C0CFF002C0CEF068
:1035500001C0CDF04E0E0101856F030E866F010E86
:10356000876F000134EC0AF003C0D2F002C0D1F042
:1035700001C0D0F04E0E0101856F020E866F010E64
:10358000876F000134EC0AF003C0D5F002C0D4F01C
:1035900001C0D3F02E0E0101856F070E866F010E5C
:1035A000876F000134EC0AF003C0D8F002C0D7F0F6
:1035B00001C0D6F02E0E0101856F030E866F876F56
:1035C000000134EC0AF003C0DBF002C0DAF001C005
:1035D000D9F03D0E0101856F866B010E876F0001EA
:1035E00034EC0AF003C0DEF002C0DDF001C0DCF014
:1035F000110E0101856F070E866F010E876F0001A6
:1036000034EC0AF003C0E1F002C0E0F001C0DFF0EA
:10361000110E0101856F060E866F010E876F000186
:1036200034EC0AF003C0E4F002C0E3F001C0E2F0C1
:10363000110E0101856F050E866F010E876F000167
:1036400034EC0AF003C0E7F002C0E6F001C0E5F098
:10365000110E0101856F866B050E876F000134EC3A
:103660000AF003C0EAF002C0E9F001C0E8F0190E68
:103670000101856F050E866F030E876F000134EC24
:103680000AF003C0EDF002C0ECF001C0EBF0190E3F
:103690000101856F030E866F020E876F000134EC07
:1036A0000AF003C0F0F002C0EFF001C0EEF0190E16
:1036B0000101856F866B030E876F000134EC0AF001
:1036C00003C0F3F002C0F2F001C0F1F01A0E0101E4
:1036D000856F050E866F030E876F000134EC0AF0CC
:1036E00003C0F6F002C0F5F001C0F4F01A0E0101BB
:1036F000856F030E866F020E876F000134EC0AF0AF
:1037000003C0F9F002C0F8F001C0F7F01A0E010191
:10371000856F866B030E876F000134EC0AF003C0DF
:10372000FCF002C0FBF001C0FAF0370E0101856F1A
:10373000070E866F010E876F000134EC0AF003C09C
:10374000FFF002C0FEF001C0FDF0370E0101856FF1
:10375000050E866F020E876F000134EC0AF003C07D
:1037600002F102C001F101C000F1370E0101856FC5
:10377000040E866F010E876F000134EC0AF003C05F
:1037800005F102C004F101C003F1370E0101856F9C
:10379000030E866F010E876F000134EC0AF003C040
:1037A00008F102C007F101C006F1370E0101856F73
:1037B000010E866F020E876F000134EC0AF003C021
:1037C0000BF102C00AF101C009F1270E0101856F5A
:1037D000070E866F010E876F000134EC0AF003C0FC
:1037E0000EF102C00DF101C00CF1250E0101856F33
:1037F000060E866F020E876F000134EC0AF003C0DC
:1038000011F102C010F101C00FF1250E0101856F09
:10381000040E866F020E876F000134EC0AF003C0BD
:1038200014F102C013F101C012F1250E0101856FE0
:10383000020E866F876F000134EC0AF003C017F1A7
:1038400002C016F101C015F1250E0101856F866BCE
:10385000020E876F000134EC0AF003C01AF102C0B7
:1038600019F101C018F1260E0101856F060E866F51
:10387000020E876F000134EC0AF003C01DF102C094
:103880001CF101C01BF1260E0101856F040E866F2D
:10389000020E876F000134EC0AF003C020F102C071
:1038A0001FF101C01EF1C150C00B0F09C16E070E00
:1038B000B46E020EC06F4D0EBF6F010E02014E6F4F
:1038C000AF0E4D6F050E506F230E4F6F020E0501A8
:1038D000246FD90E236F266B256B0001B86BB96B73
:1038E000C70ED56ED76A720ED66E0000F28AC00E71
:1038F000F212030E01016F6FAA0E706F2D0E716F21
:10390000D40E726F200E736FC150C00B0F09C16EC1
:103910000001A6EF0AF0040E0101856FFA0E020104
:10392000116F0001ADEC0AF00101852FF7D70001FE
:1039300056EF0BF0015219E1010EEA6E740EE96EBA
:103940000E0E016EF76A000EA8EC01F00A000900E5
:10395000F5CFEEFF012EFBD7010E0201146F740E9E
:10396000136F0001CFEC0BF0E3D7010E0101866F5E
:103970006F0E856F73C187F1040E886F010E896F1A
:103980008D6B1E0E8C6F840E8B6F800E8A6F8F6B0B
:103990008E6B00016EEF10F0010EEA6E740EE96E90
:1039A0000A0E016EF76A000EB7EC01F00A0009007A
:1039B000F5CFEEFF012EFBD7010E0201146F740E3E
:1039C000136F0001CFEC0BF0010E0101856F866BC8
:1039D0008A6B896B886B876B8B6B00010EEF18F01D
:1039E00002C083F101C082F10101825302E18353DD
:1039F0002AE082C1E9FF83C1EAFFEF5224E0846B31
:103A000082C1E9FF83C1EAFFEF50845D11E2010E3C
:103A100084258225E96E000E8321EA6EEF50856FC2
:103A2000D46BD36F0001FCEC0BF00101842BE8D7C1
:103A3000746B010E0201146F740E136F0001CFEC52
:103A40000BF01AD00101010EEA6E740EE96E0A0E37
:103A5000016EF76A000E0001C4EC01F00A000900D3
:103A6000F5CFEEFF012EFBD7010E0201146F740E8D
:103A7000136F0001CFEC0BF083C1D2F182C1D1F101
:103A800073EC16F0640E0201116F0001ADEC0AF048
:043A90009BD70300BD
:020000040030CA
:0E00000023CE3E1E0087A1000FC00FE00F4070
:00000001FF
;PIC18LF4550
;CRC=EA9E  CREATED="04-jun.-23 11:14"
