:10000000EFEF1BF068961200046ED8CF05F0E0CF3A
:1000100006F00001E9CF0CF0EACF07F0E1CF08F0DD
:10002000E2CF09F0D9CF0AF0DACF0BF0F3CF12F01C
:10003000F4CF13F0FACF14F0F5CF15F0F6CF16F099
:10004000F7CF17F000C00EF001C00FF002C010F0A3
:1000500003C011F0F2AA30EF00F0F2B43BEF0AF067
:10006000A0AA36EF00F0A1BAF7EF09F00EC000F039
:100070000FC001F010C002F011C003F00CC0E9FF86
:1000800007C0EAFF078E08C0E1FF09C0E2FF0AC00F
:10009000D9FF0BC0DAFF12C0F3FF13C0F4FF14C086
:1000A000FAFF15C0F5FF16C0F6FF17C0F7FF0450A2
:1000B00006C0E0FF05C0D8FF1000F76ACA0FF66E51
:1000C000000EF7220900F5501200000302FFFFFFA7
:1000D000FFFFFFFFFFFFFFFFFFFFF76AEA0FF66E6C
:1000E000000EF7220900F550120000FF02FFFFFF8B
:1000F000FFFFFFFFFFFFFFFFFFFFF76A0A0FF66E2C
:10010000010EF7220900F550120040000B004000DC
:1001100000000000000000000000000000000000DF
:1001200000000000000000000000F76A3A0FF66EC1
:10013000010EF7220900F5501200400000004000B7
:1001400000000000000000000000000000000000AF
:1001500000000000000000000000F76A6A0FF66E61
:10016000010EF7220900F5501200090243000201B6
:100170000080FA09040000010202010005240010B9
:1001800001042402020524060001052401000107E0
:100190000581030B00FA09040100020A00000007B0
:1001A0000502024000010705820240000100F76AD3
:1001B000BE0FF66E010EF7220900F5501200020084
:1001C000F76AD00FF66E010EF7220900F550120003
:1001D00012171B20FFFFFFFFF76AE80FF66E010EF4
:1001E000F7220900F5501200120110010200004030
:1001F00005240B00000101020001F76A0A0FF66EE8
:10020000020EF7220900F550120004030904080346
:1002100043004300530020034300430053002000E9
:10022000550053004200200074006F00200055006C
:10023000410052005400F76A460FF66E020EF72294
:100240000900F5501200496E697469616C20636F92
:100250006E662073746172747300F76A6A0FF66ECB
:10026000020EF7220900F55012004572726F723AC1
:100270002049442064656C2052464D20696E636FAE
:100280007272656374610000F76A980FF66E020E71
:10029000F7220900F55012004944204C6F6F70009E
:1002A000F76AB00FF66E020EF7220900F550120041
:1002B000496E697469616C20636F6E6669677572F7
:1002C0006174696F6E20656E640A0000F76ADC0F66
:1002D000F66E020EF7220900F55012004F50204C26
:1002E0006F6F70203100F76AF60FF66E020EF7227C
:1002F0000900F55012004F7065726174696F6E20CD
:100300004D6F646520636F756C646E742062652048
:100310007365740A0000F76A260FF66E030EF72263
:100320000900F55012004F50204C6F6F70203200C2
:10033000F76A400FF66E030EF7220900F55012001F
:1003400054696D656F7574206F6E204F70657261B2
:1003500074696F6E204D6F6465205365740A0000E8
:10036000F76A700FF66E030EF7220900F5501200BF
:100370005061796C6F61643A2000F76A8A0FF66EFB
:10038000030EF7220900F550120054696D656420D0
:100390006F757400F76AA40FF66E030EF72209005A
:1003A000F55012004649464F204C454E3A20000079
:1003B000F76AC00FF66E030EF7220900F55012001F
:1003C000496420696E636F72726563746F00F76AC7
:1003D000DE0FF66E030EF7220900F5501200494EAB
:1003E000495420444F4E4500F76AF80FF66E030E4D
:1003F000F7220900F55012004573706572616E6452
:100400006F006D92699468A402D06894FCD76898D4
:1004100003EF0AF0400E0401016F040E0201466F63
:10042000180E46C203F4E8CF02F4880E0401006FF0
:10043000046B040E076F580E066F0001120070A0C7
:1004400002D0E8DF7090689A0AEF0AF06A6A689250
:100450000FEF0AF00201529151BF5281519F515149
:10046000100803E2000E016E1AD052A10DD0036AEB
:100470005151000122DEFF0802E1000E01D0010E01
:10048000016E02010CD00BD0036A5151000125DE30
:10049000FF0802E1000E01D0010E016E0201000111
:1004A0001200020157515903F3CF01F0F4CF00F0CD
:1004B0005A03F350002658515903F3500020026E9E
:1004C00000011200036A02015051700FE96E0F0E15
:1004D0000320EA6EEF6A50C251F20001BBDF015205
:1004E00028E00201586B50C257F25A6B080E596F40
:1004F0000001D7DF020101C0E9FF040E0224EA6E09
:10050000EF6A586B50C257F25A6B080E596F0001D0
:10051000C8DF02C052F201C051F2040E020151279D
:10052000000E522351C2E9FF040E5225EA6EEF6A13
:1005300000011200010E02014F6F4F510F0807E337
:100540004FC250F20001BEDF02014F2BF6D700016F
:1005500012000201496B486B250E476F800E466FF3
:1005600046C22BF047C22CF02D6A2E6A466B46C25B
:100570002FF0466B46C230F0080E466F46C231F08F
:100580000001B66BB591336A326AB46B1E90B76BDB
:100590001200286A276A0201456B455101080AE3E7
:1005A000036A4551290FE96E000E0320EA6EEF6AD7
:1005B000452BF3D70001CDDF1B6A010E1C6E1A6AB2
:1005C00012006B6A696A6A6A686A6E6A706AB2DF88
:1005D000E0DF160E706E68A602D014DDFCD79F0E09
:1005E0006B6E3D0E696E6D9815DF030E226E14EF73
:1005F0000AF0698469986D8219EF0AF0689C1EEF11
:100600000AF04AC223F01200236812000201486B6C
:100610002750281033E048513F0830E31D50000AAE
:10062000000105E0020A0AE0010A0FE014D026C02A
:1006300003F0255092DDE8CF49F20DD026C003F03B
:100640002550DBDDE8CF49F206D026C003F0255067
:10065000C3DDE8CF49F2252AD8B4262A2750D8B4DA
:100660002806270602014851482B580FE96E040E50
:10067000EA6ED8B0EA2A49C2EFFFCAD7275028103D
:1006800004E14851400801E01A6A48C24AF20001F8
:10069000B8DF12000201476B266A256A1D6A040151
:1006A0001B51010A000107E0030A0BE0010A0DE0FB
:1006B000220A27E03BD0286A120E276E030E1D6E19
:1006C00037D0286A430E276E33D0020E1D6E02010A
:1006D000476B04011A510201475D0BE226C003F08B
:1006E000255000018ADD2526000E26220201472B17
:1006F000F0D726C003F0255000017FDD276E286A61
:1007000017D0036A04011A5100015ADD256E266ACA
:10071000253C02D0265208E026C003F025501DDDFE
:10072000276E286A05D002D06FDF11D06DDF0FD0A1
:1007300004011F5308E1285203E127501E5D03E224
:10074000286A1EC427F0010E1A6E00015FDFFBEF5E
:1007500004F00201475306E1040E226E0001EADEB6
:10076000EBD00201050E226E040E4A6F980E496FFF
:10077000010E486F48510F08D8A0DED048C250F291
:100780000001A0DE02014B6B036A48510001A5DCA9
:10079000FF0867E0040E02014B6FD8904835036AEA
:1007A0000001C3DC0900F5CF03F002014C6F03C068
:1007B0004DF2586B48C257F25A6B080E596F000140
:1007C00070DE01C04FF2010E02010124016E000E25
:1007D0000220036E01C0E9FF040E0324EA6E4CC23E
:1007E000EFFF586B48C257F25A6B080E596F000161
:1007F00058DE01C04FF2020E02010124016E000E0C
:100800000220036E01C0E9FF040E0324EA6E4AC20F
:10081000ECFFED5249C2EFFFD8904835036A000162
:1008200084DC0900F5CF03F00201492703504A2375
:10083000880E4E6F4DA101D04E814DA301D04E8345
:10084000586B48C257F25A6B080E596F000129DEE7
:10085000020101C0E9FF040E0224EA6E4EC2EFFF5E
:100860000001036A02014851000127DCFF0848E04B
:1008700002014B83586B48C257F25A6B080E596FEE
:1008800000010FDE02C050F201C04FF2040E02015F
:100890004F27000E5023020E4F25016E000E5021EF
:1008A000036E01C0E9FF040E0324EA6E4AC2ECFFA6
:1008B000ED5249C2EFFFD8904835036A00011DDCB4
:1008C0000900F5CF03F00201492703504A23586B72
:1008D00048C257F25A6B080E596F0001E2DD02C0A0
:1008E00050F201C04FF2040E02014F27000E5023B8
:1008F0004FC2E9FF040E5025EA6E400EEF6E000174
:1009000002014B51060802E10E0E4B6F036A48517B
:1009100000015DEC00F0010803E002014B890001D9
:10092000036A02014851700FE96E0F0E0320EA6E50
:100930004BC2EFFF482B1ED70001F3EF04F0040178
:100940001951000A00010DE0010A15E0020A21E038
:10095000060A2CE0030A33E00E0A33E0010A39E00C
:1009600049D01CC058F40401596B020E02014A6FB1
:10097000000147DE40D004011A2D08D0010E1C16DC
:1009800002014A6B00013DDE03D0040100013CDEA0
:1009900032D004011A2D07D01C8202014A6B0001DB
:1009A00030DE03D0040100012FDE25D0020E1A6EC6
:1009B0001AC424F002014A6B000123DE1CD06AD65F
:1009C0001AD01BC058F4010E02014A6F000119DE53
:1009D00012D004011A5101080BE31AC41BF01AC407
:1009E00047F20001B6D602014A6B00010ADE04019B
:1009F000000101D009DE96EF06F01BC047F20401AA
:100A00001951000A000105E00A0A0CE0010A2DE074
:100A100042D00401586B596B020E02014A6F00016B
:100A2000F0DD3AD0020147531DE0010E475D036A35
:100A30000001D7EC00F0016E04011C5DD8A002D0CB
:100A4000020110D0036A1C51290FE96E000E032029
:100A5000EA6EEFCF58F4010E02014A6F0001D1DDBA
:100A600003D002010001D0DD17D00201475310E08E
:100A7000036A04011C51290FE96E000E0320EA6E7F
:100A80001AC4EFFF02014A6B0001BBDD03D0020173
:100A90000001BADD01D0B8DD96EF06F00201489101
:100AA00047BF4881479F48A119D0586B47C257F2AA
:100AB0005A6B080E596F0001F4DC02C04AF201C003
:100AC00049F2040E02014927000E4A2349C2E9FFF8
:100AD000040E4A25EA6E880EEF6E0FD0586B47C29F
:100AE00057F25A6B080E596F0001DBDC020101C09E
:100AF000E9FF040E0224EA6EEF6A036A4751700FA1
:100B0000016E0F0E032201C0E9FF03C0EAFFEF9060
:100B100000010BEF06F00201489147BF4881479F53
:100B200048A119D0586B47C257F25A6B080E596F3B
:100B30000001B7DC02C04AF201C049F2040E020112
:100B40004927000E4A2349C2E9FF040E4A25EA6EEE
:100B5000840EEF6E10D0586B47C257F25A6B080ED6
:100B6000596F00019EDC020101C0E9FF040E02245E
:100B7000EA6E840EEF6E000113EF06F00201489159
:100B800047BF4881479F48A119D0586B47C257F2C9
:100B90005A6B080E596F000184DC02C04BF201C091
:100BA0004AF2040E02014A27000E4B234AC2E9FF13
:100BB000040E4B25EA6EEFCF49F210D0586B47C2B6
:100BC00057F25A6B080E596F00016BDC020101C02D
:100BD000E9FF040E0224EA6EEFCF49F249AF02D0DA
:100BE00049B502D0000E01D0010E016E00011FEFC9
:100BF00006F01CC451F22EDC01522EE00401195102
:100C0000010A000105E0020A0BE0030A11E023D00B
:100C10001CC447F243D702014A6B0001F2DC1CD02E
:100C20001CC447F278D702014A6B0001EADC14D0F9
:100C30000401586B596B1CC447F200019FD7015245
:100C400004E0010E0401586F0001020E02014A6F18
:100C50000001D7DC01D0D8DC96EF06F0FE0E236E43
:100C6000120004011C2D01D002D01C5345E11FC409
:100C700048F21EC447F21951000A00010BE0010AB4
:100C80000DE0210A0FE0010A12E0030A23E0010A45
:100C900028E030D0010EB76FE1DF2DD047C24AF215
:100CA000B0DC29D0020EB76FB581D8DF24D0040E96
:100CB000EA6E580EE96EE26A2B0EE16E070E016EC7
:100CC000E6CFEEFF012EFCD7070E02014A6F0001AE
:100CD00098DC11D01AC4B6F002014A6B000191DC15
:100CE0000AD01AC433F01BC432F002014A6B00016F
:100CF00088DC01D089DC0401000196EF06F01A6A55
:100D0000040118517F0B000A000107E0010A07E007
:100D1000030A07E0230A07E008D011D607D06DD6F2
:100D200005D067D703D09DD701D06EDC95EF09F0D1
:100D30000201586B48C257F25A6B080E596F0001F6
:100D400051EC02F0020101C0E9FF040E0224EA6E38
:100D5000EFCF4AF24951020806E14AAD02D0496B91
:100D600002D0010E496F495103081CE1840E4A6FFD
:100D7000586B48C257F25A6B080E596F000151EC7C
:100D800002F002C04EF201C04DF2040E02014D27E6
:100D9000000E4E234DC2E9FF040E4E25EA6E840E6E
:100DA000EF6E07D0492D03D0C80E4A6F02D0880ECF
:100DB0004A6FD8904835036A000195EC00F00900AD
:100DC000F5CF03F002014B6F03C04CF2586B48C2E1
:100DD00057F25A6B080E596F000151EC02F001C036
:100DE0004DF2010E02010124016E000E0220036E7D
:100DF00001C0E9FF040E0324EA6E4BC2EFFF4CA1D1
:100E000001D04A814CA301D04A83586B48C257F2A3
:100E10005A6B080E596F000151EC02F0020101C03B
:100E2000E9FF040E0224EA6E4AC2EFFF000112003D
:100E3000036A02015651700FE96E0F0E0320EA6E2D
:100E4000EF521BE0586B56C257F25A6B080E596F9F
:100E5000000151EC02F002C058F201C057F2040E3A
:100E600002015727000E582357C2E9FF040E5825E8
:100E7000EA6EEFCF59F259AF02D0000E01D0010E49
:100E8000016E0001120051C256F2D2DF0152D8B4F5
:100E90009BD00201586B51C257F25A6B080E596F22
:100EA000000151EC02F002C057F201C056F2040EEC
:100EB00002015627000E5723010E5625016E000E23
:100EC0005721036E01C0E9FF040E0324EA6E52C2EB
:100ED000EFFF5451020820E1586B51C257F25A6B90
:100EE000080E596F000151EC02F002C057F201C028
:100EF00056F2040E02015627000E572356C2E9FF90
:100F0000040E5725EA6EEFCF55F255AD02D0546B63
:100F100002D0010E546F1AD05451040817E1586BD7
:100F200051C257F25A6B080E596F000151EC02F092
:100F3000020101C0E9FF040E0224EA6EEFCF55F270
:100F400055AD03D0010E546F01D0546B542D03D016
:100F5000480E556F02D0080E556F586B51C257F2AC
:100F60005A6B080E596F000151EC02F002C057F2A3
:100F700001C056F2040E02015627000E572356C236
:100F8000E9FF040E5725EA6E55C2EFFF586B51C2B8
:100F900057F25A6B080E596F000151EC02F002C073
:100FA00057F201C056F2040E02015627000E5723D5
:100FB00056C2E9FF040E5725EA6EEF508009EF6E26
:100FC000010E016E04D00001000E016E020100014D
:100FD0001200B751010A03E0030A08E01BD0020126
:100FE0004A6B000101EC03F0B76B15D0EA6A2B0ED7
:100FF000E96E040EE26E180EE16E070E016EE6CF8A
:10100000EEFF012EFCD7B76B02014A6B000101EC29
:1010100003F001D0B76B49EF08F00201586B48C2EA
:1010200057F25A6B080E596F000151EC02F002C0E2
:101030004AF201C049F2010E02010124016E000EC4
:101040000220036E01C0E9FF040E0324EA6EEFCF15
:1010500001F0026A00013DEF08F01E90020E02014D
:10106000486F496F000164DE42EF08F01E80206A7D
:10107000020E0201486F0001D0D701C01FF01F52BD
:1010800001E1EBD750EF08F00201475304E1000102
:10109000A0D706D002014751020803E10001E6D7BC
:1010A00002010001120048C26EFF0201485303E032
:1010B000040E226E02D0020E226E000165EF08F0CF
:1010C0001B6A1A6A24C048F2EED76FEF09F049C2D2
:1010D00056F2AEDE015247E00201586B49C257F2A8
:1010E0005A6B080E596F000151EC02F002C052F227
:1010F00001C051F2040E02015127000E5223020ECC
:101100005125016E000E5221036E01C0E9FF040E4D
:101110000324EA6EECCF50F2ED52EFCF4FF250C203
:10112000EAFF4FC2E9FF4BC2E2FF4AC2E1FF4DC2F4
:1011300002F04CC201F0015202E0022A02D0025237
:1011400006E0E6CFEEFF012EFCD7022EFAD749C209
:1011500051F24DC253F24CC252F24EC254F200014F
:1011600092DE015002D0000E016E12004DC253F209
:101170004CC252F24FC255F24EC254F202015551C6
:10118000535D3CE303E15251545D38E25051542524
:10119000016E51515521036E5351035C2FE303E15E
:1011A0000150525D2BE2505152275151532350515F
:1011B000542751515523515303E1505100081DE26A
:1011C0005251D8B45307520753C257F252C256F283
:1011D0005451D8B45507540755C2EAFF54C2E9FF29
:1011E000EFCF58F253C2EAFF52C2E9FF58C2EFFFF5
:1011F0005051D8B451075007DED720D0515303E1E6
:10120000505100081BE253C257F25251522BD8B42E
:10121000532B566F55C2EAFF5451542BD8B4552B5B
:10122000E96EEFCF58F257C2EAFF56C2E9FF58C243
:10123000EFFF5051D8B451075007E0D74CC201F02E
:101240004DC202F000011200B45336E0B4C048F2BF
:10125000020148513F0802E23F0E486F020E496FFB
:101260004B6B340E4A6F4D6B48C24CF2020E4E6F00
:1012700000012DDF015220E0036A02014851340FC2
:10128000016E000E032201C049F203C04AF2485128
:101290000001B45D02014B6F4D6B340E4C6F03C007
:1012A0004FF201C04EF2516B4BC250F200015EDFB3
:1012B000020148510001B45F1200C6DF76EF09F069
:1012C000020147530EE11A2C05D0000106EC03F091
:1012D00006D002011A50020803E10001F1D6020112
:1012E00006D04751020803E10001E7D702010001DF
:1012F000120021300201456F453345331F0E45175B
:1013000021524EE1040100513C0B0201466F430E95
:101310000401001702014651340825E1040104517B
:10132000800B01E0046B0001EAD46D98233C07D0E8
:101330000201486B030E496F0001FADC12D0020172
:10134000486B020E496F0001F3DC2350FE0809E0F0
:101350000201516B536B23C052F2040E546F000113
:1013600092DD1CD002014651040819E1476B0001CF
:101370008BDE0201486B020E496F0001D9DC23505D
:10138000FE080CE0233C01D009D00201516B536BE5
:1013900023C052F2010E546F000175DD020122D00C
:1013A0002150040812E12368476B000189DF233CC8
:1013B00001D009D00201516B536B23C052F2020ECF
:1013C000546F000160DD0DD0020121B406D045C28A
:1013D00047F2000159DE05D0020145C247F2000183
:1013E0006FDF020100012AEF0AF037EF0AF0A19A3D
:1013F0002252D8B43CD06852D8B439D068A403D0B3
:1014000069B401EF02F06DB232D068AA03D069BAB4
:101410001FEF02F068A203D069B226EF02F068A0C5
:1014200003D069B0E1EF02F068A803D069B8F9EF22
:1014300002F068AC03D069BCFEEF02F00201446B1D
:1014400068A60AD069A608D06CCF21F0000102EC92
:1014500000F04FD703D0020106D000010201445131
:10146000442B0308EDE21EA003D00001BED7020109
:10147000000136EF00F0D76A720ED66E0000030E40
:10148000BA27000EBB23BB5102080AE2FF0A03E1A0
:10149000BA51E70805E2BC2BE80EBA5F030EBB5B4E
:1014A000BC513B0805E2BD2BD8B4BE2B3C0EBC5F43
:1014B000BE5303E1BD513B0805E2BB6BBA6BBC6B8D
:1014C000BE6BBD6BF29436EF00F00101886B8A6B46
:1014D00085C189F1886B8751885D05E2D8908A378C
:1014E0008A81882BF8D78651016E04E0D8908A371C
:1014F000012EFCD786C18BF189C101F08AC102F0AF
:101500008BC103F0000112006D926D6A696A080ECA
:101510006F6E945030090201946E226A196AF2BE0D
:10152000198EF29E0001C9EC02F019BEF28E120073
:10153000EBDFD8EF0AF01B50016E1200196AF2BE01
:10154000198EF29EC9EC02F019BEF28E6D926D6A90
:101550006D8C00D000D000006D9C140E6F6E696A17
:101560006D86010E226EC5EF0AF0E5DF015207E03D
:10157000196AF2BE198EF29E67DE19BEF28E93844E
:1015800081A404D06DB601D0D9D703D06DA601D007
:10159000BBDF222C0BD06DBA09D0686A696AA08AB9
:1015A000C00EF212110E696E020E226E1200C0D72A
:1015B000DCDF22500208FCE127EF1EF0020EEA6E8B
:1015C000140EE96EEF500EE00F0E016E006A002E51
:1015D000FED7012EFBD78F0E006E002EFED7000027
:1015E000EF2EF2D7120002012051070B006E2031BE
:1015F000016E013201321F0E011601502225E96EE3
:10160000000E2321EA6E016A012A002A01D0013668
:10161000002EFDD7215303E00150EF1203D0011E2D
:101620000150EF160001120002011F5302E1000EEB
:1016300001D0010E1EC220F2216F0F0E236F890E02
:10164000226F0001D0DF1EC220F20201216B0F0EBB
:10165000236F920E226F0001C6DF1200050E0201F9
:101660001E6F1F6B0001E0DF1200010E02011E5F02
:101670000DE3020EEA6E1E0EE96EEF5007E0020E59
:10168000006E002EFED700D0EF2EF9D7000164EFD8
:101690000BF0050E02011E6F010E1F6F0001C4DF6B
:1016A000120002011D6B0001D9DF020119517F0BED
:1016B0000001C16FC950C1C0C9FFC730FEE3640E4D
:1016C00002011E6F0001D1D702011D6B1C511D5D6F
:1016D0000EE21D511A25E96E000E1B21EA6EC9505B
:1016E000C968C730FEE3C9CFEFFF1D2BEFD700015C
:1016F000D0DF120018C219F202011B6BC10E1A6F63
:10170000010E1C6F0001CDDFC1C001F01200100EF0
:101710000201186F0001EEDF01C085F10101855162
:10172000240802E0000E01D0010E016E000136EF28
:101730001EF002012F91A0BA2F81A09A0001B4518E
:101740007F0807E2196AF2BE198EF29E7DDD19BE8E
:10175000F28EB4517F0802E27F0EB46FB451B42B05
:10176000036A340FE96E000E0320EA6E2EC2EFFF0B
:1017700002012FA101D0A08A0001C2EF0BF02DC2FF
:101780002EF2D7D7E1EF0BF0800ED880B45516E1DA
:10179000196AF2BE198EF29E020E0201566F000106
:1017A00018EC07F019BEF28E015207E0196AF2BE7A
:1017B000198EF29E49DD19BEF28EE6D72CC22DF2AB
:1017C000DED7ECEF0BF0EF520FE0EACF2BF2E9CFD0
:1017D0002AF2EFCF2CF2D8D72BC2EAFF2AC2E9FFB8
:1017E000E92AD8B4EA2AEFD7FFEF0BF0BEDEA3DE7A
:1017F000015205E029C2EAFF28C2E9FFE4D712003E
:1018000017C229F216C228F2F1DF0A0E0201186F80
:10181000196B020E296F180E286F0001E7DF120006
:10182000AEC114F2CBDE12006EC11EF2010E020137
:101830001F6F0001F9DE010E0101AE6F0001F0DF44
:101840006EC11EF202011F6B0001EEDE050E0101EA
:10185000AE6F0001E5DF19EF14F017C229F216C2CE
:1018600028F2C4DF120002011A6B0001F7DE020148
:10187000165180091B6FC9501BC2C9FFC730FEE358
:101880001A6B19511A5D0FE21A511725E96E000EF5
:101890001821EA6EEFCF1BF2C9501BC2C9FFC73037
:1018A000FEE31A2BEED70001F4DE120015C2C1F0E0
:1018B00014C216F20201186BC10E176F010E196FD8
:1018C0000001D1DFC1C001F01200010121BF12D01F
:1018D000215111080FE25A0E0201146FD1C115F205
:1018E0000001E4DF5C0E0201146FD1C115F20001AA
:1018F000DDDF0101000112008E0E006E19C201F041
:1019000018C202F0036A015209E102C001F0026A42
:10191000080E005E015202E1006A08D0D89001BEB4
:1019200004D0023601360006F9D7019E1200800E5F
:10193000D8A202D002011F1B0201246B256B1BC21F
:1019400023F21F51231B1A51D8B4DFD0226F006E2F
:101950001E51D8B4E3D0225FD8B483D03EE31FC277
:1019600028F2288F20C227F221C226F2256BD890B8
:101970002833273326332533222FF8D723AF03D03C
:101980002481E0D0249122912489020EEA6E1D0E5A
:10199000E96EEBD0249923BF0AD022A113D02833BB
:1019A000273326332533002AD8B4C7D00BD028BF1D
:1019B0000CD0D89025372637273728370006D8B4DB
:1019C000BCD0F5D7248D6DD0249D1BC223F21BAF54
:1019D00002D0288FABD0289FA9D01EC222F21EC2EF
:1019E00000F01A51225F1BC228F2288F1CC227F276
:1019F0001DC226F2256BD890283327332633253392
:101A0000222FF8D723AF03D024839CD02493229194
:101A1000248B020EEA6E210EE96EA7D0249B23BF11
:101A20000AD022A113D02833273326332533002AA6
:101A3000D8B483D00BD028BF0CD0D8902537263708
:101A4000273728370006D8B478D0F5D7248F29D087
:101A5000249F1FC223F21FAF02D0288F67D0289F78
:101A600065D01FC228F2288F20C227F221C226F299
:101A700023AF04D0289F248565D02495256B22911F
:101A8000020EEA6E1D0EE96E70D023BF1CD01BC281
:101A900023F222A106D02833273326332533002A08
:101AA0004CE025AF0BD0262B09E1272B07E1282B93
:101AB00005E1283327332633002A3FE024BD84D7AD
:101AC00024BFC6D71CD0800E281B28AF04D03AD024
:101AD0001FC223F20AD01BC223F2285306E1275368
:101AE00004E1265302E1006A21D028BF08D0D89033
:101AF0002537263727372837002EF7D71ED023AFB4
:101B000002D0288F13D0289F11D01EC200F01FC210
:101B100028F220C227F221C226F208D01AC200F011
:101B20001BC228F21CC227F21DC226F228C201F0F5
:101B300027C202F026C203F034D0006A016A026AAA
:101B4000036A2FD0256B261F271F281F251F252B33
:101B500005E1262B03E1272B01E1282B24B112D725
:101B600024B354D724B589D7B3D7EF50262705E33C
:101B7000272B03E1282BD8B42281ED52EF502727E1
:101B800003E3282BD8B42281ED52EF50EFBE01D0F1
:101B9000800A2827D8B0228124B9FCD624BB3ED79E
:101BA00074D70001120002011C51D8B471D0006E2C
:101BB0002051D8B46DD0002604E3810E002668E2DF
:101BC00004D07F0E005E64E363E01DC224F2215165
:101BD000241B1D8F218F1F512303F4CF26F21E518A
:101BE0002203F4CF03F0F3CF25F22303F35026278B
:101BF000F4502523000E03221F512203F350262701
:101C0000F4502523000E026A032202221D512303F1
:101C1000F3502527F4500322000E02221D51220307
:101C2000F3500326F4500222000E016A01221F51D4
:101C30002103F3502527F4500322000E0222012233
:101C40001E512103F3500326F4500222000E0122FC
:101C50001D512103F3500226F4500122002A01BE37
:101C600005D025370336023601360006000E25AFB3
:101C70000AD0032A02220122015005E1025003E1A9
:101C8000035001E1002A24BF018E24AF019E04D03D
:101C9000006A016A026A036A0001AEEF0EF0196A77
:101CA000F2BE198EF29E0201586B3C0E576FBEC0F9
:101CB0005AF2BDC059F2000151EC02F019BEF28E89
:101CC00002C019F201C018F2000116DE03C017F2BB
:101CD00002C016F201C015F200C014F20201196B25
:101CE000BCC018F2000108DED89217C21DF216C25D
:101CF0001CF215C21BF214C21AF203C021F202C078
:101D000020F201C01FF200C01EF211DE03C017F264
:101D100002C016F201C015F200C014F2BBC019F2E5
:101D2000BAC018F2E9DD03C01BF202C01AF201C00A
:101D300019F200C018F203C01FF202C01EF201C067
:101D40001DF200C01CF26F0E0201236F120E226FF3
:101D5000030E216F750E206F000125D7D89217C290
:101D60001DF216C21CF215C21BF214C21AF203C0F5
:101D700021F202C020F201C01FF200C01EF2D7DD26
:101D800003C017F202C016F201C015F200C014F22F
:101D900014C200F015C201F016C202F017C203F01F
:101DA000120014C218F2A6DC01C017F2020117518A
:101DB0001515006E1651016E04E0D8900032012E08
:101DC000FCD70050016E000112001BC222F202017A
:101DD0001F51221B22AF05D0D894D8901BBFD880AA
:101DE0002FD01BC222F21EC223F21A51235F06E03B
:101DF00022AF26D0D850010AD86E22D01FC223F2BB
:101E00001B51235F06E022AF1BD0D850010AD86EC9
:101E100017D020C223F21C51235F06E022AF10D05E
:101E2000D850010AD86E0CD021C223F21D51235F75
:101E300006E022AF05D0D850010AD86E01D0D89064
:101E400000011200C6C0EAFFC5C0E9FF2EC2EFFFC5
:101E5000E92AD8B4EA2AEF6A0001C52BD8B4C62B08
:101E60001200020129BF11D00F0E006E2839001692
:101E70000A0E005C03E2300E002602D02951002633
:101E800000C02EF20001DEDF02010F0E28170A0E3D
:101E9000285D02E2300E02D0299F2951282728C24E
:101EA0002EF20001CFDF1CEF10F002012F51016A6A
:101EB0002E5D03E22EC200F00CD0006A080E306FD7
:101EC0002E3700362F51005CD8B0006E0136302F0F
:101ED000F7D700011200200E020129A9300E2A6F47
:101EE00028C200F000AE08D0001E002A00C028F270
:101EF0002D0E2A6F298F2981015028C22EF2640EDF
:101F00002F6F0001D2DF00C028F2300E0124020141
:101F10002B6F28C22EF20A0E2F6F0001C6DF300E83
:101F2000002402012D6F300E01242C6F2AC200F014
:101F3000300E2B5D04E0298329BF298512D02AC2E7
:101F40002BF2200E2A6F300E2C5D04E0298129BF70
:101F5000298307D0D8A4298104E12BC22CF2200EBA
:101F60002B6F29B505D029B307D029B109D00CD0E2
:101F70002AC22EF2000166DF2BC22EF2000162DFC0
:101F80002CC22EF200015EDF2DC22EF200015ADFBC
:101F9000120002011B51100819E1020E0001C66F68
:101FA0001C0EC56F300E02012E6F00014BDF780E44
:101FB00002012E6F000146DF1AC228F2370E02011D
:101FC000296F00014ED7000137D002011B510208D2
:101FD00024E1300E1C6F620E1D6F276B275107081E
:101FE0001AE3020E2725036A1C0FE96E020E032076
:101FF000EA6E070ED8802755016E1AC200F0015212
:1020000004E0D8900032012EFCD70050010B300FB5
:10201000EF6E272BE3D7266B10D01B510A080DE17A
:10202000020E0001C66F1C0EC56F1AC228F2180EF0
:102030000201296F00014FDF0201020E296F1C0E01
:10204000286F0001F6EC0BF02BEF10F015C21AF21E
:1020500016C21BF29ED70A0E0201176F186B020EF2
:10206000296F170E286F0001F6EC0BF0120017DE37
:1020700003C0D5F102C0D4F101C0D3F100C0D2F148
:102080000EC116F20DC115F20CC114F28ADE015216
:10209000D8A489D0640E0201146F0001DEEC0AF0AE
:1020A000B5EC0AF0010EEA6ED60EE96E0A0E016E6C
:1020B000F76A000E66EC01F00A000900F5CFEEFFAA
:1020C000012EFBD7010E0201176FD60E166F00010D
:1020D00000EC0CF0E4DD03C017F202C016F201C000
:1020E00015F200C014F2EACF19F2E9CF18F2D88243
:1020F00003C01DF202C01CF201C01BF200C01AF2A4
:10210000D5C121F2D4C120F2D3C11FF2D2C11EF237
:102110000EDC19C2EAFF18C2E9FF03C017F202C0C1
:1021200016F201C015F200C014F202011D6B1C6B07
:10213000400E1B6F800E1A6F03C021F202C020F206
:1021400001C01FF200C01EF200013FDE01E22AE1E1
:10215000010EEA6ED60EE96E1F0E016EF76A000ED2
:1021600073EC01F00A000900F5CFEEFF012EFBD75A
:10217000010E0201176FD60E166F00012DEC0CF048
:10218000270E0201186F00017AEC0BF001C014F267
:1021900001C015F2020E0201166F000157DFB5EC07
:1021A0000AF0FDD76DD7010E0201186F00017AEC1D
:1021B0000BF001C055F1E30E01015517D135006E4A
:1021C0000036FC0E001600505513010E0201146F6C
:1021D00055C115F2000156EC0CF061DD03C0D5F1DC
:1021E00002C0D4F101C0D3F100C0D2F10EC116F289
:1021F0000DC115F20CC114F2D4DD0152D8A484D063
:10220000B5EC0AF0010EEA6EF50EE96E0A0E016EEB
:10221000F76A000E8BEC01F00A000900F5CFEEFF23
:10222000012EFBD7010E0201176FF50E166F00018C
:1022300000EC0CF034DD03C017F202C016F201C04E
:1022400015F200C014F2EACF19F2E9CF18F2D882E1
:1022500003C01DF202C01CF201C01BF200C01AF242
:10226000D5C121F2D4C120F2D3C11FF2D2C11EF2D6
:1022700097EC0CF019C2EAFF18C2E9FF03C017F28D
:1022800002C016F201C015F200C014F202011D6B6B
:102290001C6B400E1B6F800E1A6F03C021F202C030
:1022A00020F201C01FF200C01EF200018EDD01E22B
:1022B0002AE1010EEA6EF50EE96E1F0E016EF76A55
:1022C000000E98EC01F00A000900F5CFEEFF012E98
:1022D000FBD7010E0201176FF50E166F00012DECF2
:1022E0000CF0010E0201186F00017AEC0BF001C036
:1022F00014F201C015F2020E0201166F0001A6DEF3
:10230000B5EC0AF0FDD772D71200550E0101D16F5E
:10231000000165EC0CF0010E0101D16F0001A7DE98
:102320001200D2C118F27AEC0BF001C0D5F1010114
:10233000D351FF0AD517D1C100F0D451016E04E08A
:10234000D8900036012EFCD70050D513D2C114F21C
:10235000D5C115F2000156EC0CF012000101AEC11E
:10236000E9FFAFC1EAFFEFCFB0F1B05304E0AE53E5
:102370000DE1AF530BE1D16BD8C0D4F1D7C0D3F18D
:10238000D6C0D2F10001CDDF2BD00101010EAE2568
:10239000B16F000EAF21B26F2F0E0201166FB2C1E6
:1023A00018F2B1C117F2B0C119F2000133EC0CF010
:1023B000010E0101B05DB16FD16FDBC0D4F1DAC0A5
:1023C000D3F1D9C0D2F10001ACDF010E0101D16F10
:1023D000D8C0D4F1D7C0D3F1D6C0D2F10001A1DF6B
:1023E000B7EF14F00101B16BB16B2C0E0201146F49
:1023F000AFC115F2000156EC0CF00101B16B2D0ECE
:102400000201146FAEC115F2000156EC0CF0BDEFE5
:1024100014F0070E0201146FAEC115F2000156EC64
:102420000CF0080E0201146FB0C115F2000156EC59
:102430000CF0090E0201146FAFC115F2000156EC49
:102440000CF0BEEF14F00101B651D8B4A5D0C26FA4
:10245000BA51D8B4A1D0C25F05E37F0EC227D8B06D
:102460009BD006D0810EC25FD8A096D0D8B494D0AD
:10247000C2C100F0016A026A036AC16BB7C1C0F150
:10248000C08FB8C1BFF1B9C1BEF1190EC26FBD5145
:10249000BE5F0DE2010EBF5F0AE2C05F08E2C15FEE
:1024A00006E2C12BC02BBF2BBD51BE2728D0BC518B
:1024B000BF5F12E2010EC05F0FE2C15F0DE2C12BF0
:1024C000C02BBC51BF27BD51BE2719E3BF2B17E15D
:1024D000C02B15E1C12B13D0BB518009C05F0EE2A8
:1024E000010EC15F0BE2C12BBB518009C027BC515B
:1024F000BF27E9E3C02BE7E1C12BE5D70380C22F5B
:1025000001D00BD0D890BE37BF37C037C137D89075
:10251000033602360136C337BAD7C3A106D0D890E6
:10252000013202320332C33302D0000635E0C3BFAA
:102530001ED0D890BE37BF37C037C137BD51BE5F40
:1025400007E2010EBF5F04E2C05F02E2C15F1AE36F
:10255000BC51BF5F05E2010EC05F02E2C15F12E342
:10256000BB518009C05F03E2010EC15F0BE3032A88
:1025700009E1022A07E1012A05E1002A0DE0013202
:1025800002320332B7C1C2F1BB51C21BC2AF02D08B
:10259000018E06D0019E04D0006A016A026A036AB5
:1025A000000112008E0E006E0101B651005EB7C12F
:1025B00002F0B8C101F0028E005209E0D890025238
:1025C00002E1015204E002320132002EF7D7B7AF28
:1025D00005D0011E021E012AD8B4022A00011200F1
:1025E0000101B96B240EB86F740EB76F970EB66FFA
:1025F000B1C1BDF1B0C1BCF1AFC1BBF1AEC1BAF167
:10260000000121DF03C0B9F102C0B8F101C0B7F188
:1026100000C0B6F1D89203C01DF202C01CF201C086
:102620001BF200C01AF20201216B206B1F6B7E0EA1
:102630001E6F000197EC0CF003C0B9F102C0B8F1B5
:1026400001C0B7F100C0B6F1ADDF01C0B2F10101C8
:10265000B36BB46BB56BBA6B030E0201146FB3C1ED
:1026600015F2000156EC0CF00101B76BB86BB96BB9
:10267000040E0201146FB2C115F2000156EC0CF009
:10268000DCEF14F0B1C1B9F1B0C1B8F1AFC1B7F12D
:10269000AEC1B6F10101BD6B240EBC6F740EBB6FF1
:1026A000840EBA6F0001CFDE03C0B9F102C0B8F1E9
:1026B00001C0B7F100C0B6F1D89203C01DF202C04C
:1026C0001CF201C01BF200C01AF20201216B206B48
:1026D0001F6B7E0E1E6F000197EC0CF003C0B9F16A
:1026E00002C0B8F101C0B7F100C0B6F15BDF01C0B4
:1026F000B2F10101B36BB46BB56BBA6B050E02019D
:10270000146FB3C115F2000156EC0CF00101B76B68
:10271000B86BB96B060E0201146FB2C115F200015D
:1027200056EC0CF0E6EF14F00101AF6BB06BB16B3F
:10273000B26B0001B5A323D0010E0101B06FAEBF93
:1027400003D0AE510D0804E3120EAE25B26F15D0C2
:10275000AEBF0ED0AE510D080BE2AEBF03D0AE51EE
:10276000110806E3010EB16F0E0EAE25B26F05D053
:10277000010EB16F0B0EAE25B26F07D00001010E36
:102780000101AF6F120EAE25B26FAFC1D1F1E1C042
:10279000D4F1E0C0D3F1DFC0D2F10001C2DDB0C19D
:1027A000D1F1E4C0D4F1E3C0D3F1E2C0D2F1B9DD9C
:1027B000B1C1D1F1E7C0D4F1E6C0D3F1E5C0D2F1A7
:1027C000B0DDB2C1D1F1EAC0D4F1E9C0D3F1E8C0C3
:1027D000D2F1A7DDAEC121F14AEF15F00101906BF6
:1027E000010EEA6E910EE96E140E016EF76A000E8C
:1027F00000011BEC01F00A000900F5CFEEFF012EED
:10280000FBD7010E0201176F910E166F000100EC4D
:102810000CF00D0E0101216F87C16EF10001B5931F
:10282000010189A103D00001B5830101000114EF6A
:102830000CF0100E0201186F00017AEC0BF001C0D1
:1028400090F101019051240835E0010EEA6E910EDD
:10285000E96E1D0E016EF76A000E00012DEC01F00D
:102860000A000900F5CFEEFF012EFBD7010E020191
:10287000176F910E166F000100EC0CF0010EEA6E5E
:10288000910EE96E080E016EF76A000E44EC01F03D
:102890000A000900F5CFEEFF012EFBD7010E020161
:1028A000176F910E166F000100EC0CF0B5EC0AF0FA
:1028B000E5D70101490E916F640E926F6C0E936F14
:1028C000650E946F956B010E0201176F910E166FD6
:1028D00000012DEC0CF019DD520E0101916F650E17
:1028E000926F610E936F640E946F790E956F966B75
:1028F000010E0201176F910E166F000100EC0CF033
:102900003C0E0201146F8F0E156F000156EC0CF097
:102910006F0E0201146F300E156F000156EC0CF0B3
:102920005A0E0201146F550E156F000156EC0CF093
:102930005C0E0201146F700E156F000156EC0CF066
:10294000460E0101916F720E926F650E936F710EBC
:10295000946F956B010E0201176F910E166F0001B7
:102960002DEC0CF086C1AFF185C1AEF1F7D40101B9
:10297000AF6B88C1AEF1000135D54BD5520E0101C8
:10298000916F650E926F610E936F640E946F790E66
:10299000956F966B010E0201176F910E166F000175
:1029A00000EC0CF00101B16B240EB06F740EAF6F30
:1029B000900EAE6F000114D60101B16B240EB06F02
:1029C000740EAF6F900EAE6F00015CD6010E010168
:1029D000D16FCFC0D4F1CEC0D3F1CDC0D2F10001C0
:1029E000A0DC070E0101D16FEDC0D4F1ECC0D3F132
:1029F000EBC0D2F1000195DC0101D16BF0C0D4F144
:102A0000EFC0D3F1EEC0D2F100018BDC0101D16B3C
:102A1000F3C0D4F1F2C0D3F1F1C0D2F1000181DCF6
:102A2000070E0101D16FF6C0D4F1F5C0D3F1F4C0A7
:102A3000D2F1000176DC0101D16BF9C0D4F1F8C00C
:102A4000D3F1F7C0D2F100016CDC0101D16BFCC005
:102A5000D4F1FBC0D3F1FAC0D2F1000162DC010E67
:102A60000101D16FFFC0D4F1FEC0D3F1FDC0D2F19E
:102A7000000157DC020E0101D16F02C1D4F101C186
:102A8000D3F100C1D2F100014CDC0D0E0101AE6F9B
:102A900000014AD60101366B356B346B336B3A6BF0
:102AA000396B386B7E0E376F3E6B3D6B3C6B3B6F0B
:102AB000426B416B406B800E3F6F050E436F476B5F
:102AC000466B456B446B486B51695269536B546B51
:102AD000230E0201146F020E156F000156EC0CF06C
:102AE000250E0201146F156B000156EC0CF0260E3A
:102AF0000201146F050E156F000156EC0CF0290E43
:102B00000201146F1569000156EC0CF0380E020139
:102B1000146F400E156F000156EC0CF03D0E0201D3
:102B2000146F020E156F000156EC0CF0010E01013E
:102B3000D16F17C1D4F116C1D3F115C1D2F1000183
:102B400091EC11F0020E0101D16F14C1D4F113C147
:102B5000D3F112C1D2F1000191EC11F0010E01018B
:102B6000D16F1AC1D4F119C1D3F118C1D2F100014A
:102B700091EC11F0010EEA6E910EE96E1B0E016EE2
:102B8000F76A000E50EC01F00A000900F5CFEEFFE5
:102B9000012EFBD7010E0201176F910E166F000177
:102BA0002DEC0CF068EF1EF0550E0101D16F000105
:102BB00065EC0CF0010E0101D16F11C1D4F110C10F
:102BC000D3F10FC1D2F1000191EC11F0040E01011B
:102BD000D16F000137EC10F01200280E0201186FBF
:102BE00000017AEC0BF001C0ABF10101AB51040B19
:102BF000006E003200323F0E001600C001F00001EE
:102C0000EFEF19F0240E0201186F00017AEC0BF0BF
:102C1000000ED88001540201196B186F00017CEC82
:102C20000CF003C0B9F102C0B8F101C0B7F100C0A7
:102C3000B6F10101BD6BBC6BBB6B800EBA6F0001BE
:102C400002DC03C032F102C031F101C030F100C03A
:102C50002FF12FC100F030C101F031C102F032C1BB
:102C600003F05EEF1AF0E1C1E3F1E0C1E2F101012E
:102C7000E2C1E9FFE3C1EAFFDFC1ECFFED52DEC1D3
:102C8000EFFF020EE225E96E000EE321EA6EEC6A28
:102C9000ED52EF6AE2C101F0E3C102F00001F9EF89
:102CA00016F0020E0101DA25E96E000EDB21EA6E54
:102CB000ECCFDFF1ED52EFCFDEF1DE530CE1DF536D
:102CC0000AE1020EDC25E96E000EDD21EA6EEC6AF7
:102CD000ED52EF6A1BD0020EDC25016E000EDD21E5
:102CE000036EDF6F020EDA25E96E000EDB21EA6E5D
:102CF000ECCF03F0ED52EFCFE0F1DFC1EAFF01C00E
:102D0000E9FF03C0ECFFED52E0C1EFFF020EDA2550
:102D1000E96E000EDB21EA6EDDC1ECFFED52DCC195
:102D2000EFFF000106EF17F00101DFC1E9FFE0C18D
:102D3000EAFFE2C1ECFFED52E1C1EFFF000112003A
:102D4000C0C0D5F1BFC0D4F10101D45303E1D553C4
:102D5000D8B485D0D4C1E9FFD5C1EAFFECCFDBF10F
:102D6000ED52EFCFDAF1DBBF6ED0D4C1E9FFD5C1B0
:102D7000EAFFECCFDDF1ED52EFCFDCF1D351DD5DB9
:102D800062E303E1D251DC5D5EE3D4C1E9FFD5C16A
:102D9000EAFFECCFD9F1ED52EFCFD8F1040ED225F6
:102DA000016E000ED321036E0350D95D3EE303E1B3
:102DB000D851015C3AE2D251D85DDA6FD351D9597A
:102DC000DB6F040EDA5F000EDB5B040ED425DC6FD4
:102DD000000ED521DD6FD251DC27D351DD23DBC1BD
:102DE000DFF1DAC1DEF1DDC1E1F1DCC1E0F10001CA
:102DF0003AD702C0D7F101C0D6F1D5C1DBF1D4C1B9
:102E0000DAF1D7C1DDF1D6C1DCF14BD70101800E7B
:102E1000D325DB6FD5C1E0F1D4C1DFF1E26FD2C1C0
:102E2000E1F1000181DF0DD00101800ED925DB6FBA
:102E3000D5C1E0F1D4C1DFF1E26FD8C1E1F1000109
:102E400073DF01010CD0020ED425E96E000ED521EE
:102E5000EA6EECCFD5F1ED52EFCFD4F176D7D45363
:102E600007E1D55305E1000E016E026E08D007D0D0
:102E7000040ED425016E000ED521036E026E0001F2
:102E80001200C0C0E2F1BFC0E1F1020E0101E12574
:102E9000E96E000EE221EA6EECCFE4F1ED52EFCFE5
:102EA000E3F1DF51E35D03E1E051E45D0EE0020E8A
:102EB000E125E96E000EE221EA6EECCFE2F1ED527F
:102EC000EFCFE1F10001E1D70101020EE125016E32
:102ED000000EE221036EE46F020EDF25E96E000EA4
:102EE000E021EA6EECCF03F0ED52EFCFE5F1E4C163
:102EF000EAFF01C0E9FF03C0ECFFED52E5C1EFFFBF
:102F0000E06BDF6B0001E4EF17F0C0C0D8F1BFC089
:102F1000D7F10101D75303E1D853D8B47CD0D7C13E
:102F2000E9FFD8C1EAFFECCFE0F1ED52EFCFDFF1DE
:102F3000E0BF63D0D7C1E9FFD8C1EAFFECCFDCF135
:102F4000ED52EFCFDBF1020ED725E96E000ED8214E
:102F5000EA6EECCFDAF1ED52EFCFD9F1D9C1E9FF4A
:102F6000DAC1EAFFECCFE0F1ED52EFCFDFF1E0BFE5
:102F700036D0DB51D725E16FDC51D821E26F040E4A
:102F8000E125016E000EE221036E0150D95D27E1BB
:102F90000350DA5D24E1D9C1E9FFDAC1EAFFECCFE1
:102FA000DEF1ED52EFCFDDF1040EDD25016E000EF6
:102FB000DE21036E0150DB270350DC23DAC1E0F190
:102FC000D9C1DFF100015DD7D8C1E0F1D7C1DFF190
:102FD000DCC1E2F1DBC1E1F1A7DE0DD00101020E9F
:102FE000D725E96E000ED821EA6EECCFD8F1ED526C
:102FF000EFCFD7F100010DD00101020ED725E96E08
:10300000000ED821EA6EECCFD8F1ED52EFCFD7F118
:1030100000017FD70101000148EF18F00101D153F1
:1030200004E1D25302E135D031D0040ED15DD36F2B
:10303000000ED259D46FD3C1E9FFD4C1EAFFECCF5F
:10304000D8F1ED52EFCFD7F1D8AF1DD0D3C1E9FF02
:10305000D4C1EAFFECCFD8F1ED52EFCFD7F1000E9B
:10306000D75DD56F800ED859D66FD4C1E0F1D3C1EA
:10307000DFF1D6C1E2F1D5C1E1F1000155DE010178
:10308000D26BD16B03D0D26BD16B03D000013DD793
:103090000101000112005D0E0101D16F000165EC1C
:1030A0000CF00101D16B11C1D4F110C1D3F10FC1EA
:1030B000D2F1000191EC11F0030E0101D16F00017A
:1030C00037EC10F03BEF19F0280E0201186F0001E9
:1030D0007AEC0BF00150080B006E00320032003227
:1030E0001F0E001600C001F04BEF19F085EC11F037
:1030F0000101BF6BBE6BBD6BBC6B050EB225010F32
:10310000D16FD36BD26F00011BDE02C0C1F101C0D1
:10311000C0F10101C0C1E9FFC1C1EAFF040EB2253F
:10312000EF6EB551000809E2010EC025E96E000EF0
:10313000C121EA6E52C1EFFF08D0010EC025E96E31
:10314000000EC121EA6EB4C1EFFFB751000809E2D9
:10315000020EC025E96E000EC121EA6E51C1EFFFDB
:1031600008D0020EC025E96E000EC121EA6EB6C17C
:10317000EFFF030EC025E96E000EC121EA6EB8C153
:10318000EFFF040EC025E96E000EC121EA6EBAC140
:10319000EFFFBF6BBE6BBD6BBC6BBF5333E1BE5368
:1031A00031E1BD532FE1BC51B25D2CE3050EBC25CE
:1031B000D16F000EBD21D26F000EBE21D36F000E65
:1031C000BF21D46FC051D125016EC151D221036EF0
:1031D00001C0D5F1D66FB051BC25E96EB151BD210A
:1031E000EA6EEFCFD7F103C0EAFF01C0E9FFD7C114
:1031F000EFFF010EBC27D8B0BD2BD8B4BE2BD8B47E
:10320000BF2BCBD7050EB225D16F0201166BC1C102
:1032100018F2C0C117F2196F000133EC0CF0010E67
:10322000EA6EC20EE96E0A0E016EF76A000EB0EC8D
:1032300001F00A000900F5CFEEFF012EFBD7010EC9
:103240000201176FC20E166F00012DEC0CF0050E77
:103250000101C025D16F000EC121D26FE8CF17F256
:10326000D1C116F2000100EC0CF0C1C1D2F1C0C115
:10327000D1F1D4DE10D74FEC0EF003C0CFF102C075
:10328000CEF101C0CDF100C0CCF10101D091D0B19F
:103290004ED0000119D70152D8B402D0010147D055
:1032A000B5EC0AF04FEC0EF003C0D4F102C0D3F13C
:1032B00001C0D2F100C0D1F1EACFD6F1E9CFD5F10A
:1032C000D88203C01DF202C01CF201C01BF200C074
:1032D0001AF2CFC121F2CEC120F2CDC11FF2CCC172
:1032E0001EF297EC0CF0D6C1EAFFD5C1E9FF03C08E
:1032F000D4F102C0D3F101C0D2F100C0D1F142C17A
:103300001DF241C11CF240C11BF23FC11AF203C0C1
:1033100021F202C020F201C01FF200C01EF2E5EC53
:103320000EF001E202E10101D0810101B0D7B353F7
:1033300004E0000139DC04D00101000185EC11F04A
:10334000000E0101D0A1010E016E00016FEF1BF014
:1033500001018C918D6B8E6B916B906B8AC11DF20C
:1033600089C11CF288C11BF287C11AF20201216BCC
:10337000206B1F6B1E6B0001E5EC0EF008E13EC1F7
:103380008AF13DC189F13CC188F13BC187F18AC115
:103390001DF289C11CF288C11BF287C11AF2020119
:1033A000216B206B1F6B1E6B0001E5EC0EF0D8B497
:1033B00081D0D4EC15F04FEC0EF003C0B9F102C08F
:1033C000B8F101C0B7F100C0B6F1D2EC12F001C003
:1033D0008DF101018CB16FD00001EDEF15F00152BC
:1033E000D8B402D0010167D0B5EC0AF04FEC0EF072
:1033F00003C0AEF102C0ADF101C0ACF100C0ABF151
:103400000201196B8DC118F200017CEC0CF0EACFBF
:10341000B0F1E9CFAFF1D882AEC11DF2ADC11CF25F
:10342000ACC11BF2ABC11AF203C021F202C020F200
:1034300001C01FF200C01EF297EC0CF0B0C1EAFF11
:10344000AFC1E9FF03C0AEF102C0ADF101C0ACF104
:1034500000C0ABF142C11DF241C11CF240C11BF2E0
:103460003FC11AF203C021F202C020F201C01FF2D4
:1034700000C01EF2E5EC0EF001E21BE1010EEA6E67
:10348000960EE96E0A0E016EF76A000EBDEC01F0B1
:103490000A000900F5CFEEFF012EFBD7010E020155
:1034A000176F960E166F000100EC0CF001018C8175
:1034B00000018FD70101000102EF16F003C036F1C1
:1034C00002C035F101C034F100C033F185EC11F0D8
:1034D00001018CB173D10201186B00017AEC0BF081
:1034E00001C08FF1010EEA6EA00EE96E0B0E016EA7
:1034F000F76A000ECAEC01F00A000900F5CFEEFFF2
:10350000012EFBD7010E0201176FA00E166F0001EE
:103510002DEC0CF0010EC66F920EC56F8FC128F214
:10352000180E0201296F00016BEC0FF0010E020171
:10353000176F920E166F000100EC0CF001018F5313
:103540002CE0020E8F25AB6FD36BD26F0001A0EC85
:1035500016F002C091F101C090F1010190C1E9FFA4
:1035600091C1EAFF8FC1EFFF010E8F259025E96E13
:10357000000E9121EA6EEF6A010E9025AB6F000EEE
:103580009121AC6F0201196B1B6FABC11AF28FC195
:103590001CF2000151EC0BF001018F51040803E310
:1035A000916B906B0BD1513D01D01CD0010E902539
:1035B000E96E000E9121EA6EEF3C01D013D0010EAE
:1035C0009025E96E000E9121EA6E5151EF5C0AE000
:1035D00091C1D2F190C1D1F1000120DD0101916BC7
:1035E000906BC2D08653D8B4BFD0040E9025E96E3C
:1035F000000E9121EA6EEF50800BD8A4B5D0010ED9
:103600009025E96E000E9121EA6EEF3C01D0ACD01E
:1036100047C11DF246C11CF245C11BF244C11AF25A
:103620000201216B206B1F6B1E6B0001E5EC0EF09D
:1036300022E047C1B9F146C1B8F145C1B7F144C173
:10364000B6F10101BD6BBC6B7A0EBB6F880EBA6F11
:10365000000123EC12F003C0B9F102C0B8F101C0BF
:10366000B7F100C0B6F1D2EC12F001C0ABF101C06D
:10367000AEF110EC0CF0210E0101A06FA16B020E57
:103680009025E96E000E9121EA6EEFCFB3F1010EA5
:103690009025E96E000E9121EA6EEFCFB4F1030E92
:1036A0009025E96E000E9121EA6EEFCFB6F1040E7F
:1036B0009025E96E000E9121EA6EEF508009AF6F00
:1036C000010EB16FA00EB06FB26BB56BB76BB96B7B
:1036D000AFC1B8F1010EBB6FBA6B000107D5020E86
:1036E00001019025E96E000E9121EA6E036AEF5008
:1036F000490FE96E010E0320EA6EEFCFABF1030E26
:103700009025E96E000E9121EA6EEF50AB5D12E15B
:10371000040E9025E96E000E9121EA6EEFAC0AD0FE
:1037200091C1D2F190C1D1F1000178DC0101916B1E
:10373000906B1AD0020E9025E96E000E9121EA6E70
:10374000036AEF50490F016E010E0322030E90250C
:10375000E96E000E9121EA6EEFCFADF103C0EAFFF2
:1037600001C0E9FFADC1EFFF8B5328E1905302E1A7
:10377000915324E0010E8E6F040E8F5D8E5D17E273
:103780008E519025016E000E9121036E040E8E2540
:103790009025E96E000E9121EA6EEFCFADF103C0E6
:1037A000EAFF01C0E9FFADC1EFFF8E2BE5D790C165
:1037B000E9FF91C1EAFF040EEF5CEF6E855304E070
:1037C0000001D4EC15F003D0000185EC11F00101EB
:1037D00090C101F091C102F000018CEF1EF0F86A77
:1037E000D09E078EFE0E006E040E016E020EE96E74
:1037F000000EEA6EEE6A002EFDD7012EFBD7DD0E1D
:10380000006E030E016E230EE96E050EEA6EEE6A7F
:10381000002EFDD7012EFBD7C69A400EC76E220E92
:10382000C66E949E9380898A929A9392C66BC56B5A
:10383000020E0101856F050E866F020E876F000173
:1038400065EC0AF003C0C9F002C0C8F001C0C7F0BF
:10385000020E0101856F030E866F020E876F000155
:1038600065EC0AF003C0CCF002C0CBF001C0CAF096
:10387000020E0101856F866B876F000165EC0AF00F
:1038800003C0CFF002C0CEF001C0CDF04E0E01015A
:10389000856F030E866F010E876F000165EC0AF0DD
:1038A00003C0D2F002C0D1F001C0D0F04E0E010131
:1038B000856F020E866F010E876F000165EC0AF0BE
:1038C00003C0D5F002C0D4F001C0D3F02E0E010128
:1038D000856F070E866F010E876F000165EC0AF099
:1038E00003C0D8F002C0D7F001C0D6F02E0E0101FF
:1038F000856F030E866F876F000165EC0AF003C0C9
:10390000DBF002C0DAF001C0D9F03D0E0101856F95
:10391000866B010E876F000165EC0AF003C0DEF0D4
:1039200002C0DDF001C0DCF0110E0101856F070E51
:10393000866F010E876F000165EC0AF003C0E1F0AD
:1039400002C0E0F001C0DFF0110E0101856F060E2C
:10395000866F010E876F000165EC0AF003C0E4F08A
:1039600002C0E3F001C0E2F0110E0101856F050E07
:10397000866F010E876F000165EC0AF003C0E7F067
:1039800002C0E6F001C0E5F0110E0101856F866B03
:10399000050E876F000165EC0AF003C0EAF002C073
:1039A000E9F001C0E8F0190E0101856F050E866F80
:1039B000030E876F000165EC0AF003C0EDF002C052
:1039C000ECF001C0EBF0190E0101856F030E866F5C
:1039D000020E876F000165EC0AF003C0F0F002C030
:1039E000EFF001C0EEF0190E0101856F866B030E3A
:1039F000876F000165EC0AF003C0F3F002C0F2F03B
:103A000001C0F1F01A0E0101856F050E866F030EDD
:103A1000876F000165EC0AF003C0F6F002C0F5F014
:103A200001C0F4F01A0E0101856F030E866F020EBD
:103A3000876F000165EC0AF003C0F9F002C0F8F0EE
:103A400001C0F7F01A0E0101856F866B030E876FB8
:103A5000000165EC0AF003C0FCF002C0FBF001C0FD
:103A6000FAF0370E0101856F070E866F010E876F22
:103A7000000165EC0AF003C0FFF002C0FEF001C0D7
:103A8000FDF0370E0101856F050E866F020E876F00
:103A9000000165EC0AF003C002F102C001F101C0AF
:103AA00000F1370E0101856F040E866F010E876FDE
:103AB000000165EC0AF003C005F102C004F101C089
:103AC00003F1370E0101856F030E866F010E876FBC
:103AD000000165EC0AF003C008F102C007F101C063
:103AE00006F1370E0101856F010E866F020E876F9A
:103AF000000165EC0AF003C00BF102C00AF101C03D
:103B000009F1270E0101856F070E866F010E876F81
:103B1000000165EC0AF003C00EF102C00DF101C016
:103B20000CF1250E0101856F060E866F020E876F60
:103B3000000165EC0AF003C011F102C010F101C0F0
:103B40000FF1250E0101856F040E866F020E876F3F
:103B5000000165EC0AF003C014F102C013F101C0CA
:103B600012F1250E0101856F020E866F876F00012D
:103B700065EC0AF003C017F102C016F101C015F19F
:103B8000250E0101856F866B020E876F000165ECC3
:103B90000AF003C01AF102C019F101C018F1260E93
:103BA0000101856F060E866F020E876F000165ECBE
:103BB0000AF003C01DF102C01CF101C01BF1260E6A
:103BC0000101856F040E866F020E876F000165ECA0
:103BD0000AF003C020F102C01FF101C01EF1C15064
:103BE000C00B0F09C16E070EB46E020EC06F5C0EE3
:103BF000BF6F010E02015D6FA00E5C6F050E5F6F5F
:103C0000230E5E6F020E0501246FD90E236F266B03
:103C1000256B0001B86BB96BC70ED56ED76A720EF3
:103C2000D66E0000F28AC00EF212030E01016F6F11
:103C3000AA0E706F2D0E716FD40E726F200E736FFF
:103C4000C150C00B0F09C16E0001D7EF0AF0040E7E
:103C50000101856FFA0E0201146F0001DEEC0AF01B
:103C60000101852FF7D7000187EF0BF0015219E111
:103C7000010EEA6E740EE96E0E0E016EF76A000E0A
:103C8000D8EC01F00A000900F5CFEEFF012EFBD7BA
:103C9000010E0201176F740E166F000100EC0CF09C
:103CA000E3D7010E0101866F6F0E856F73C187F137
:103CB000040E886F010E896F8D6B1E0E8C6F840E43
:103CC0008B6F800E8A6F8F6B8E6B0001EEEF13F09F
:103CD000010EEA6E740EE96E0A0E016EF76A000EAE
:103CE000E7EC01F00A000900F5CFEEFF012EFBD74B
:103CF000010E0201176F740E166F000100EC0CF03C
:103D0000010E0101856F866B8A6B896B886B876BEF
:103D10008B6B0001A8EF19F002C083F101C082F1A2
:103D20000101825302E183532DE082C1E9FF83C187
:103D3000EAFFEF5227E0846B82C1E9FF83C1EAFF0B
:103D4000EF50845D14E2010E84258225E96E000E99
:103D50008321EA6EEF50866B856F0201176BE8CF07
:103D600016F200012DEC0CF00101842BE5D7746BE9
:103D7000010E0201176F740E166F000100EC0CF0BB
:103D80001AD00101010EEA6E740EE96E0A0E016E80
:103D9000F76A000E0001F4EC01F00A000900F5CF0B
:103DA000EEFF012EFBD7010E0201176F740E166F86
:103DB000000100EC0CF083C1D2F182C1D1F10EEC14
:103DC00018F0640E0201146F0001DEEC0AF098D7BF
:023DD0000300EE
:020000040030CA
:0E00000023CE3E1E0087A1000FC00FE00F4070
:00000001FF
;PIC18LF4550
;CRC=5A59  CREATED="29-may.-23 23:05"
