:1000000063EF1FF068961200046ED8CF05F0E0CFC2
:1000100006F00001E9CF0CF0EACF07F0E1CF08F0DD
:10002000E2CF09F0D9CF0AF0DACF0BF0F3CF12F01C
:10003000F4CF13F0FACF14F0F5CF15F0F6CF16F099
:10004000F7CF17F000C00EF001C00FF002C010F0A3
:1000500003C011F0F0A830EF00F0F0B21AEF0CF08E
:10006000A0AA36EF00F0A1BA16EF0AF00EC000F019
:100070000FC001F010C002F011C003F00CC0E9FF86
:1000800007C0EAFF078E08C0E1FF09C0E2FF0AC00F
:10009000D9FF0BC0DAFF12C0F3FF13C0F4FF14C086
:1000A000FAFF15C0F5FF16C0F6FF17C0F7FF0450A2
:1000B00006C0E0FF05C0D8FF1000F76ACA0FF66E51
:1000C000000EF7220900F5501200000302FFFFFFA7
:1000D000FFFFFFFFFFFFFFFFFFFFF76AEA0FF66E6C
:1000E000000EF7220900F550120000FF02FFFFFF8B
:1000F000FFFFFFFFFFFFFFFFFFFFF76A0A0FF66E2C
:10010000010EF7220900F550120040000B004000DC
:1001100000000000000000000000000000000000DF
:1001200000000000000000000000F76A3A0FF66EC1
:10013000010EF7220900F5501200400000004000B7
:1001400000000000000000000000000000000000AF
:1001500000000000000000000000F76A6A0FF66E61
:10016000010EF7220900F5501200090243000201B6
:100170000080FA09040000010202010005240010B9
:1001800001042402020524060001052401000107E0
:100190000581030B00FA09040100020A00000007B0
:1001A0000502024000010705820240000100F76AD3
:1001B000BE0FF66E010EF7220900F5501200020084
:1001C000F76AD00FF66E010EF7220900F550120003
:1001D00012171B20FFFFFFFFF76AE80FF66E010EF4
:1001E000F7220900F5501200120110010200004030
:1001F00005240B00000101020001F76A0A0FF66EE8
:10020000020EF7220900F550120004030904080346
:1002100043004300530020034300430053002000E9
:10022000550053004200200074006F00200055006C
:10023000410052005400F76A460FF66E020EF72294
:100240000900F5501200496E697469616C20636F92
:100250006E662073746172747300F76A6A0FF66ECB
:10026000020EF7220900F55012004572726F723AC1
:100270002049442064656C2052464D20696E636FAE
:100280007272656374610000F76A980FF66E020E71
:10029000F7220900F55012004944204C6F6F70009E
:1002A000F76AB00FF66E020EF7220900F550120041
:1002B000496E697469616C20636F6E6669677572F7
:1002C0006174696F6E20656E640A0000F76ADC0F66
:1002D000F66E020EF7220900F55012004F50204C26
:1002E0006F6F70203100F76AF60FF66E020EF7227C
:1002F0000900F55012004F7065726174696F6E20CD
:100300004D6F646520636F756C646E742062652048
:100310007365740A0000F76A260FF66E030EF72263
:100320000900F55012004F50204C6F6F70203200C2
:10033000F76A400FF66E030EF7220900F55012001F
:1003400054696D656F7574206F6E204F70657261B2
:1003500074696F6E204D6F6465205365740A0000E8
:10036000F76A700FF66E030EF7220900F5501200BF
:100370005061796C6F61643A2000F76A8A0FF66EFB
:10038000030EF7220900F550120054696D656420D0
:100390006F757400F76AA40FF66E030EF72209005A
:1003A000F55012000A5369676E616C2053747265D0
:1003B0006E6774683A200000F76AC80FF66E030E85
:1003C000F7220900F55012004649464F204C454E91
:1003D0003A200000F76AE40FF66E030EF7220900D8
:1003E000F5501200496420696E636F727265637420
:1003F0006F00F76A020FF66E040EF7220900F5503F
:100400001200494E495420444F4E4500F76A1C0FD4
:10041000F66E040EF7220900F55012005061636B6E
:1004200065740000F76A340FF66E040EF7220900B7
:10043000F55012004573706572616E646F006D92C5
:10044000699468A402D06894FCD7689822EF0AF0F7
:10045000400E0401016F040E02018B6F180E8BC257
:1004600003F4E8CF02F4880E0401006F046B040E5D
:10047000076F580E066F0001120070A002D0E8DF6F
:100480007090689A29EF0AF06A6A68922EEF0AF073
:100490000201979196BF9781969F9651100803E2AB
:1004A000000E016E1AD097A10DD0036A965100017B
:1004B00004DEFF0802E1000E01D0010E016E020110
:1004C0000CD00BD0036A9651000107DEFF0802E151
:1004D000000E01D0010E016E0201000112000201A6
:1004E000A551A703F3CF01F0F4CF00F0A803F35018
:1004F0000026A651A703F3500020026E000112004F
:10050000036A02019551700FE96E0F0E0320EA6E27
:10051000EF6A95C296F20001BBDF015228E00201AA
:10052000A66B95C2A5F2A86B080EA76F0001D7DFD6
:10053000020101C0E9FF040E0224EA6EEF6AA66B15
:1005400095C2A5F2A86B080EA76F0001C8DF02C014
:1005500097F201C096F2040E02019627000E97232F
:1005600096C2E9FF040E9725EA6EEF6A00011200B9
:10057000010E0201946F94510F0807E394C295F2A3
:100580000001BEDF0201942BF6D700011200020128
:10059000966B956B250E946F800E936F93C22BF024
:1005A00094C22CF02D6A2E6A936B93C22FF0936B3A
:1005B00093C230F0080E936F93C231F00001B66B16
:1005C000B591336A326AB46B1E90B76B1200286A19
:1005D000276A0201926B925101080AE3036A925161
:1005E000290FE96E000E0320EA6EEF6A922BF3D713
:1005F0000001CDDF1B6A010E1C6E1A6A12006B6AC5
:10060000696A6A6A686A6E6A706AB2DFE0DF160E4B
:10061000706E68A602D0F6DCFCD79F0E6B6E3D0EA6
:10062000696E6D9815DF030E226E33EF0AF0698450
:1006300069986D8238EF0AF0689C3DEF0AF08FC22E
:1006400023F012002368120002018D6B275028103E
:1006500033E08D513F0830E31D50000A000105E0F2
:10066000020A0AE0010A0FE014D026C003F0255068
:1006700074DDE8CF8EF20DD026C003F02550BDDD2D
:10068000E8CF8EF206D026C003F02550A5DDE8CFD6
:100690008EF2252AD8B4262A2750D8B42806270651
:1006A00002018D518D2B580FE96E040EEA6ED8B001
:1006B000EA2A8EC2EFFFCAD72750281004E18D51D5
:1006C000400801E01A6A8DC28FF20001B8DF120003
:1006D00002018C6B266A256A1D6A04011B51010AFE
:1006E000000107E0030A0BE0010A0DE0220A27E0FF
:1006F0003BD0286A120E276E030E1D6E37D0286A73
:10070000430E276E33D0020E1D6E02018C6B040166
:100710001A5102018C5D0BE226C003F02550000146
:100720006CDD2526000E262202018C2BF0D726C078
:1007300003F02550000161DD276E286A17D0036A97
:1007400004011A5100013CDD256E266A253C02D0C9
:10075000265208E026C003F02550FFDC276E286AE9
:1007600005D002D06FDF11D06DDF0FD004011F5311
:1007700008E1285203E127501E5D03E2286A1EC4E7
:1007800027F0010E1A6E00015FDF1AEF05F002017B
:100790008C5306E1040E226E0001EADEECD0020169
:1007A000050E226E040E8F6F980E8E6F010E8D6FE8
:1007B0008D510F08D8A0DFD08DC295F20001A0DEC8
:1007C0000201906B036A8D51000187DCFF0867E02E
:1007D000040E0201906FD8908D35036A0001A5DCEC
:1007E0000900F5CF03F00201916F03C092F2A66BEE
:1007F0008DC2A5F2A86B080EA76F000170DE01C0C4
:1008000094F2010E02010124016E000E0220036E1B
:1008100001C0E9FF040E0324EA6E91C2EFFFA66B4C
:100820008DC2A5F2A86B080EA76F000158DE01C0AB
:1008300094F2020E02010124016E000E0220036EEA
:1008400001C0E9FF040E0324EA6E8FC2ECFFED52F3
:100850008EC2EFFFD8908D35036A000166DC090077
:10086000F5CF03F002018E2703508F23880E936F7C
:1008700092A101D0938192A301D09383A66B8DC2E4
:10088000A5F2A86B080EA76F000129DE020101C0C6
:10089000E9FF040E0224EA6E93C2EFFF0001036A2F
:1008A00002018D51000109DCFF0849E0020190833B
:1008B000A66B8DC2A5F2A86B080EA76F00010FDE14
:1008C00002C095F201C094F2040E02019427000EBA
:1008D0009523020E9425016E000E9521036E01C032
:1008E000E9FF040E0324EA6E8FC2ECFFED528EC2C4
:1008F000EFFFD8908D35036A00017DEC00F0090010
:10090000F5CF03F002018E2703508F23A66B8DC213
:10091000A5F2A86B080EA76F0001E1DD02C095F2F9
:1009200001C094F2040E02019427000E952394C294
:10093000E9FF040E9525EA6E400EEF6E00010201FC
:100940009051060802E10E0E906F036A8D5100016E
:100950005DEC00F0010803E0020190890001036AE8
:1009600002018D51700FE96E0F0E0320EA6E90C2E6
:10097000EFFF8D2B1DD7000112EF05F00401195177
:10098000000A00010DE0010A15E0020A21E0060A52
:100990002CE0030A33E00E0A33E0010A39E049D0C3
:1009A0001CC058F40401596B020E02018F6F000144
:1009B00046DE40D004011A2D08D0010E1C1602019B
:1009C0008F6B00013CDE03D0040100013BDE32D01E
:1009D00004011A2D07D01C8202018F6B00012FDE4B
:1009E00003D0040100012EDE25D0020E1A6E1AC4B7
:1009F00024F002018F6B000122DE1CD069D61AD0D0
:100A00001BC058F4010E02018F6F000118DE12D0D6
:100A100004011A5101080BE31AC41BF01AC48CF22A
:100A20000001B5D602018F6B000109DE040100014F
:100A300001D008DEB5EF06F01BC08CF2040119519D
:100A4000000A000105E00A0A0CE0010A2DE042D08C
:100A50000401586B596B020E02018F6F0001EFDD2C
:100A60003AD002018C531DE0010E8C5D036A000137
:100A7000D7EC00F0016E04011C5DD8A002D0020189
:100A800010D0036A1C51290FE96E000E0320EA6E94
:100A9000EFCF58F4010E02018F6F0001D0DD03D0BB
:100AA00002010001CFDD17D002018C5310E0036A70
:100AB00004011C51290FE96E000E0320EA6E1AC4CE
:100AC000EFFF02018F6B0001BADD03D002010001CC
:100AD000B9DD01D0B7DDB5EF06F002018D918CBF15
:100AE0008D818C9F8DA119D0A66B8CC2A5F2A86BAD
:100AF000080EA76F0001F3DC02C08FF201C08EF276
:100B0000040E02018E27000E8F238EC2E9FF040E11
:100B10008F25EA6E880EEF6E0FD0A66B8CC2A5F201
:100B2000A86B080EA76F0001DADC020101C0E9FF23
:100B3000040E0224EA6EEF6A036A8C51700F016E94
:100B40000F0E032201C0E9FF03C0EAFFEF9000018E
:100B50002AEF06F002018D918CBF8D818C9F8DA1B3
:100B600019D0A66B8CC2A5F2A86B080EA76F000166
:100B7000B6DC02C08FF201C08EF2040E02018E2795
:100B8000000E8F238EC2E9FF040E8F25EA6E840EBD
:100B9000EF6E10D0A66B8CC2A5F2A86B080EA76FE3
:100BA00000019DDC020101C0E9FF040E0224EA6E8F
:100BB000840EEF6E000132EF06F002018D918CBFC2
:100BC0008D818C9F8DA119D0A66B8CC2A5F2A86BCC
:100BD000080EA76F000183DC02C090F201C08FF203
:100BE000040E02018F27000E90238FC2E9FF040E2E
:100BF0009025EA6EEFCF8EF210D0A66B8CC2A5F2D4
:100C0000A86B080EA76F00016ADC020101C0E9FFB2
:100C1000040E0224EA6EEFCF8EF28EAF02D08EB5B4
:100C200002D0000E01D0010E016E00013EEF06F071
:100C30001CC496F22DDC01522EE004011951010A68
:100C4000000105E0020A0BE0030A11E023D01CC4F6
:100C50008CF243D702018F6B0001F1DC1CD01CC465
:100C60008CF278D702018F6B0001E9DC14D004010B
:100C7000586B596B1CC48CF200019FD7015204E0E1
:100C8000010E0401586F0001020E02018F6F000176
:100C9000D6DC01D0D7DCB5EF06F0FE0E236E1200D5
:100CA00004011C2D01D002D01C5345E11FC48DF25C
:100CB0001EC48CF21951000A00010BE0010A0DE07C
:100CC000210A0FE0010A12E0030A23E0010A28E0EA
:100CD00030D0010EB76FE1DF2DD08CC28FF2AFDCC8
:100CE00029D0020EB76FB581D8DF24D0040EEA6E8A
:100CF000580EE96EE26A2B0EE16E070E016EE6CF2A
:100D0000EEFF012EFCD7070E02018F6F000197DC6A
:100D100011D01AC4B6F002018F6B000190DC0AD02A
:100D20001AC433F01BC432F002018F6B000187DC60
:100D300001D088DC04010001B5EF06F01A6A040155
:100D400018517F0B000A000107E0010A07E0030ABF
:100D500007E0230A07E008D011D607D06DD605D0EA
:100D600067D703D09DD701D06DDCB4EF09F0020145
:100D7000A66B8DC2A5F2A86B080EA76F00016FECE1
:100D800002F0020101C0E9FF040E0224EA6EEFCF77
:100D90008FF28E51020806E18FAD02D08E6B02D029
:100DA000010E8E6F8E5103081CE1840E8F6FA66BAF
:100DB0008DC2A5F2A86B080EA76F00016FEC02F0C0
:100DC00002C093F201C092F2040E02019227000EBB
:100DD000932392C2E9FF040E9325EA6E840EEF6E10
:100DE00007D08E2D03D0C80E8F6F02D0880E8F6F64
:100DF000D8908D35036A000195EC00F00900F5CF1D
:100E000003F00201906F03C091F2A66B8DC2A5F2B0
:100E1000A86B080EA76F00016FEC02F001C092F200
:100E2000010E02010124016E000E0220036E01C0BA
:100E3000E9FF040E0324EA6E90C2EFFF91A101D0F6
:100E40008F8191A301D08F83A66B8DC2A5F2A86B71
:100E5000080EA76F00016FEC02F0020101C0E9FF6C
:100E6000040E0224EA6E8FC2EFFF00011200036A33
:100E70000201A451700FE96E0F0E0320EA6EEF52CB
:100E80001BE0A66BA4C2A5F2A86B080EA76F000119
:100E90006FEC02F002C0A6F201C0A5F2040E02013E
:100EA000A527000EA623A5C2E9FF040EA625EA6E1B
:100EB000EFCFA7F2A7AF02D0000E01D0010E016E56
:100EC000000112009FC2A4F2D2DF0152D8B49BD01D
:100ED0000201A66B9FC2A5F2A86B080EA76F0001C6
:100EE0006FEC02F002C0A5F201C0A4F2040E0201F0
:100EF000A427000EA523010EA425016E000EA52136
:100F0000036E01C0E9FF040E0324EA6EA0C2EFFFE6
:100F1000A251020820E1A66B9FC2A5F2A86B080EA1
:100F2000A76F00016FEC02F002C0A5F201C0A4F2AD
:100F3000040E0201A427000EA523A4C2E9FF040E9B
:100F4000A525EA6EEFCFA3F2A3AD02D0A26B02D02B
:100F5000010EA26F1AD0A251040817E1A66B9FC21E
:100F6000A5F2A86B080EA76F00016FEC02F002015A
:100F700001C0E9FF040E0224EA6EEFCFA3F2A3AD95
:100F800003D0010EA26F01D0A26BA22D03D0480E98
:100F9000A36F02D0080EA36FA66B9FC2A5F2A86B29
:100FA000080EA76F00016FEC02F002C0A5F201C0AD
:100FB000A4F2040E0201A427000EA523A4C2E9FF97
:100FC000040EA525EA6EA3C2EFFFA66B9FC2A5F291
:100FD000A86B080EA76F00016FEC02F002C0A5F22B
:100FE00001C0A4F2040E0201A427000EA523A4C28E
:100FF000E9FF040EA525EA6EEF508009EF6E010EA1
:10100000016E04D00001000E016E02010001120009
:10101000B751010A03E0030A08E01BD002018F6BFD
:1010200000011FEC03F0B76B15D0EA6A2B0EE96ED6
:10103000040EE26E180EE16E070E016EE6CFEEFFB3
:10104000012EFCD7B76B02018F6B00011FEC03F080
:1010500001D0B76B68EF08F00201A66B8DC2A5F254
:10106000A86B080EA76F00016FEC02F002C08FF2B0
:1010700001C08EF2010E02010124016E000E022059
:10108000036E01C0E9FF040E0324EA6EEFCF01F006
:10109000026A00015CEF08F01E90020E02018D6FE3
:1010A0008E6F000164DE61EF08F01E80206A020E80
:1010B00002018D6F0001D0D701C01FF01F5201E166
:1010C000EBD76FEF08F002018C5304E10001A0D7C9
:1010D00006D002018C51020803E10001E6D70201AB
:1010E000000112008DC26EFF02018D5303E0040E59
:1010F000226E02D0020E226E000184EF08F01B6AFD
:101100001A6A24C08DF2EED78EEF09F097C2A4F2CE
:10111000AEDE015247E00201A66B97C2A5F2A86BB2
:10112000080EA76F00016FEC02F002C0A0F201C030
:101130009FF2040E02019F27000EA023020E9F259E
:10114000016E000EA021036E01C0E9FF040E03240E
:10115000EA6EECCF9EF2ED52EFCF9DF29EC2EAFF17
:101160009DC2E9FF99C2E2FF98C2E1FF9BC202F073
:101170009AC201F0015202E0022A02D0025206E0B5
:10118000E6CFEEFF012EFCD7022EFAD797C29FF2D0
:101190009BC2A1F29AC2A0F29CC2A2F2000192DE0E
:1011A000015002D0000E016E12009BC2A1F29AC241
:1011B000A0F29DC2A3F29CC2A2F20201A351A15DC2
:1011C0003CE303E1A051A25D38E29E51A225016EED
:1011D0009F51A321036EA151035C2FE303E1015052
:1011E000A05D2BE29E51A0279F51A1239E51A227D3
:1011F0009F51A3239F5303E19E5100081DE2A0517C
:10120000D8B4A107A007A1C2A5F2A0C2A4F2A2511E
:10121000D8B4A307A207A3C2EAFFA2C2E9FFEFCF97
:10122000A6F2A1C2EAFFA0C2E9FFA6C2EFFF9E514B
:10123000D8B49F079E07DED720D09F5303E19E516D
:1012400000081BE2A1C2A5F2A051A02BD8B4A12B8B
:10125000A46FA3C2EAFFA251A22BD8B4A32BE96EBC
:10126000EFCFA6F2A5C2EAFFA4C2E9FFA6C2EFFF34
:101270009E51D8B49F079E07E0D79AC201F09BC247
:1012800002F000011200B45336E0B4C096F202013D
:1012900096513F0802E23F0E966F020E976F996BD0
:1012A000340E986F9B6B96C29AF2020E9C6F0001EF
:1012B0002DDF015220E0036A02019651340F016EC6
:1012C000000E032201C097F203C098F2965100016C
:1012D000B45D0201996F9B6B340E9A6F03C09DF24F
:1012E00001C09CF29F6B99C29EF200015EDF020179
:1012F00096510001B45F1200C6DF95EF09F00201BC
:101300008C530EE11A2C05D0000124EC03F006D01A
:1013100002011A50020803E10001F1D6020106D0D1
:101320008C51020803E10001E7D70201000112001D
:10133000213002018A6F8A338A331F0E8A172152A5
:101340004EE1040100513C0B02018B6F430E04017E
:10135000001702018B51340825E104010451800B70
:1013600001E0046B0001EAD46D98233C07D0020130
:101370008D6B030E8E6F0001FADC12D002018D6BB3
:10138000020E8E6F0001F3DC2350FE0809E002011B
:101390009F6BA16B23C0A0F2040EA26F000192DD2F
:1013A0001CD002018B51040819E18C6B00018BDE0B
:1013B00002018D6B020E8E6F0001D9DC2350FE08F6
:1013C0000CE0233C01D009D002019F6BA16B23C02C
:1013D000A0F2010EA26F000175DD020122D02150A2
:1013E000040812E123688C6B000189DF233C01D0E3
:1013F00009D002019F6BA16B23C0A0F2020EA26F65
:10140000000160DD0DD0020121B406D08AC28CF249
:10141000000159DE05D002018AC28CF200016FDFA3
:101420000201000149EF0AF056EF0AF0A19A225298
:10143000D8B43CD06852D8B439D068A403D069B4C9
:101440001FEF02F06DB232D068AA03D069BA3DEF47
:1014500002F068A203D069B244EF02F068A003D0A2
:1014600069B0FFEF02F068A803D069B817EF03F086
:1014700068AC03D069BC1CEF03F00201896B68A65D
:101480000AD069A608D06CCF21F0000102EC00F070
:101490004FD703D0020106D0000102018951892BE8
:1014A0000308EDE21EA003D00001BED70201000137
:1014B00036EF00F002019351070B006E9331016E7D
:1014C000013201321F0E011601509525E96E000E02
:1014D0009621EA6E016A012A002A01D00136002E07
:1014E000FDD7945303E00150EF1203D0011E0150C9
:1014F000EF160001120002018A51070B006E8A31BB
:10150000016E013201321F0E011601508B25E96E6A
:10151000000E8C21EA6EEFCF01F0002A01D00132DB
:10152000002EFDD7010E01160001ABEF0AF089C2B3
:1015300093F2010E0201946F0F0E966F920E956F4B
:101540000001B8DF89C28AF20F0E02018C6F800E93
:101550008B6F0001D0D7000E01B0010E016E12009A
:101560001B50016E1200E7EC02F06D926D6A6D8CFB
:1015700000D000D000006D9C140E6F6E696A6D86FD
:10158000010E226E1200ECDF015201E07CDE6DB62E
:1015900001D0E9DF222C0BD06DBA09D0686A696AE4
:1015A000A08AC00EF212110E696E020E226E120097
:1015B00002019591A0BA9581A09A0001B4517F08CB
:1015C00001E261DEB4517F0802E27F0EB46FB451D4
:1015D000B42B036A340FE96E000E0320EA6E94C246
:1015E000EFFF020195A101D0A08A0001120093C271
:1015F00094F2DEDF1200800ED880B45509E1020EAD
:101600000201A46F000133DC015201E03CDEF3D79C
:1016100092C293F2ECDF1200B6DFA2DF015208E0C3
:10162000020191510001D45D03E390C292F2E3DF25
:1016300012008DC290F28EC291F2EEDF1200020112
:10164000925302E1000E01D0010E91C293F2946F09
:101650000F0E966F890E956F00012CDF91C293F2E9
:101660000201946B0F0E966F920E956F000122DFB0
:101670001200050E0201916F010E926F0001DFDF73
:10168000B5931200050E0201916F926B0001D7DF36
:10169000B5831200010E0201915F0DE3020EEA6EA6
:1016A000910EE96EEF5007E0020E006E002EFED79D
:1016B00000D0EF2EF9D7000112003F0E02018D6F0E
:1016C000020E8E6F0001B5DFB5B3D3DFDB6BDADF5F
:1016D000C950C96AC730FEE3640E0201916F000170
:1016E000D9DFDB6BC351DB5D1EE2DB5101019225CB
:1016F000E96E000E9321EA6EC950C968C730FEE357
:10170000C9CFEFFF0001DB5101019225E96E000E08
:101710009321EA6EEFCF8DF2010E02018E6F000170
:1017200088DFDB2BDFD7A5DF32EF0CF0DB6BAADF26
:1017300002018D517F0B0001D76FC950D7C0C9FF7F
:10174000C730FEE3640E0201916F0001A3DFDB6B83
:10175000020190510001DB5D10E2DB5102018E2598
:10176000E96E000E8F21EA6EC950C968C730FEE3EA
:10177000C9CFEFFF0001DB2BEBD77BDF1200210E7F
:1017800002018D6F020E8E6F000153DFB5B371DF62
:10179000DB5101019627000E9723D8909635026EF3
:1017A0009735036E02509025E96E91510320EA6E41
:1017B000ECCF8FF2ED52EFCF8EF202018D6BC3C0F2
:1017C00090F20001B3DFDB5101019627000E972351
:1017D00002018A6B896B8A510101975D26E308E15A
:1017E00096510201895DD8A002D001011ED00101ED
:1017F000D89002018935026E8A35036E02500101CC
:101800009025E96E91510320EA6EECCF8CF2ED52F7
:10181000EFCF8DF2010E02018E6F00010ADF02018F
:10182000892BD8B48A2BD7D70101976B966B00010F
:1018300036EF0CF00C0E0201896F000178DE01C05A
:10184000BFF00B0E0201896F000171DE01C0C1F013
:10185000040E0201896F00016ADE01C0C2F0C253AA
:10186000D8A42BD7C153D8B401D089D7F09236EF82
:1018700000F00101BC6BBE6BB9C1BDF1BC6BBB51CB
:10188000BC5D05E2D890BE37BE81BC2BF8D7BA51FB
:10189000016E04E0D890BE37012EFCD7BAC1BFF16B
:1018A000BDC101F0BEC102F0BFC103F000011200D2
:1018B0006D926D6A696A080E6F6E9450300901016D
:1018C000946E226A196AF2BE198EF29E0001E7EC4C
:1018D00002F019BEF28E6EEF0CF0EAD771EF0CF049
:1018E000FCD7196AF2BE198EF29E4DDE19BEF28E39
:1018F00022500208F6E1BFEF21F0020EEA6E510E0F
:10190000E96EEF500EE00F0E016E006A002EFED75A
:10191000012EFBD78F0E006E002EFED70000EF2E9B
:10192000F2D71200EBC151F2E8DF1200196AF2BEE1
:10193000198EF29E55C28DF202018F6BD70E8E6FFB
:10194000010E906F0001F2DE19BEF28ED7C001F0D9
:101950001200DDC0EAFFDCC0E9FF73C2EFFFE92A35
:10196000D8B4EA2AEF6A0001DC2BD8B4DD2B1200D0
:1019700002016BBF11D00F0E006E6A3900160A0EFD
:10198000005C03E2300E002602D06B51002600C03E
:1019900073F20001DEDF02010F0E6A170A0E6A5DA4
:1019A00002E2300E02D06B9F6B516A276AC273F25B
:1019B0000001CFDF56EF0EF0EACF72F2E9CF71F2FD
:1019C00002016BAF08D0718F71A9712B6A1F6B1F59
:1019D0006A2BD8B46B2B6B39F0096D6F6D27E20F52
:1019E0006E6F320F706F6B510F0B6E276E27702763
:1019F000E90F6F6F6F276F276A390F0B6F277027FB
:101A00006F377037701F70376A510F0B70276D3743
:101A1000070E6C6F0A0E6F077027FDE36E076F27C6
:101A2000FDE36D076E27FDE36C076D27FDE3020EF6
:101A3000EA6E6C0EE96E070E7115719DED5271150F
:101A400007E171B9EE5271B903D0200E006E21D0BA
:101A5000E926000EEA22E950700804E1EA50020883
:101A600001E1718DEF50006E08E171BD06D071B9D2
:101A70001DD071B702D0200E0BD071AF06D02D0E45
:101A8000006EED50719D719F04D071877199300E79
:101A90000026EACF6BF2E9CF6AF200C073F20001D0
:101AA00058DF6BC2EAFF6AC2E9FF0201EE5071AD76
:101AB000D2D7000145EF0EF0EACF72F2E9CF71F212
:101AC00002016B39F0096D6F6D27E20F6E6F320FF7
:101AD000706F6B510F0B6E276E277027E90F6F6FBA
:101AE0006F276F276A390F0B6F2770276F37703793
:101AF000701F70376A510F0B70276D37070E6C6FB0
:101B00000A0E6F077027FDE36E076F27FDE36D0771
:101B10006E27FDE36C076D27FDE3020EEA6E6C0E87
:101B2000E96E070E7115719DE926000EEA22E95053
:101B3000700804E1EA50020801E1718DEF50006E77
:101B400008E171BD06D071B915D071B702D0200E71
:101B500003D071877199300E0026EACF6BF2E9CF7E
:101B60006AF200C073F20001F4DE6BC2EAFF6AC2DF
:101B7000E9FF0201EE5071ADDAD700011200EF5219
:101B800015E0EACF70F2E9CF6FF2196AF2BE198E52
:101B9000F29EEFCF92F22FDD19BEF28E70C2EAFFF5
:101BA0006FC2E9FFE92AD8B4EA2AE9D7ECEF0DF0D1
:101BB000196AF2BE198EF29EE6DC19BEF28ED0DCF6
:101BC00001520AE002016E510001D45D05E36DC2CD
:101BD000EAFF6CC2E9FFD3D7120002015C51100882
:101BE00019E1020E0001DD6F5E0EDC6F300E0201A6
:101BF000736F0001AEDE780E0201736F0001A9DE83
:101C00005AC26AF2370E02016B6F0001B1D60001B1
:101C10004DD002015C51020829E1300E5E6F620E68
:101C20005F6F696B695107081FE3020E6925036A3C
:101C30005E0FE96E020E0320EA6E070ED88069552A
:101C4000006E5BC26DF25AC26CF2005205E0D89091
:101C50006D336C33002EFBD7010E6C176D6B300E9D
:101C60006C25EF6E692BDED7686B21D05C510A08BA
:101C70000EE1020E0001DD6F5E0EDC6F100EE96EEC
:101C80005BC26BF25AC26AF297D610D002015C5165
:101C90000B080DE1020E0001DD6F5E0EDC6F100E11
:101CA000E96E5BC26BF25AC26AF206DF0201020EF3
:101CB0006D6F5E0E6C6F5DC26EF2000179DF120017
:101CC000100E0201556F000131DE01C0B9F10201B1
:101CD0005B6BB9C15AF2030E5C6F5D6B00017DDF77
:101CE0000101B951240802E0000E01D0010E016E7D
:101CF0000001C7EF21F056C26DF255C26CF257C217
:101D00006EF256DF0A0E0201586F596B020E6D6FAC
:101D1000580E6C6F57C26EF200014ADF1200196A4A
:101D2000F2BE198EF29E88C191F2010E0201926FED
:101D3000000185DC19BEF28E010E0101EB6F00017E
:101D4000F1DD196AF2BE198EF29E88C191F202018C
:101D5000926B000174DC19BEF28E050E0101EB6F6F
:101D60000001E0DD2DEF14F056C26DF255C26CF2A9
:101D700057C26EF21DDF12000201576B196AF2BEE4
:101D8000198EF29E00017EDC19BEF28E02015351C3
:101D90008009586FC95058C2C9FFC730FEE3576B5E
:101DA0005651575D0FE257515425E96E000E5521EB
:101DB000EA6EEFCF58F2C95058C2C9FFC730FEE3F0
:101DC000572BEED7196AF2BE198EF29E000151DC34
:101DD00019BEF28E120052C2D7F051C253F2020164
:101DE000556BD70E546F010E566F0001C5DFD7C07B
:101DF00001F0120001013BBF12D03B5111080FE26C
:101E00005A0E0201516F10C252F20001E4DF5C0E63
:101E10000201516F10C252F20001DDDF0101000129
:101E2000120051C255F282DD01C054F20201545138
:101E30005215006E5351016E04E0D8900032012E0D
:101E4000FCD70050016E0001120002015B6B53C20F
:101E50005AF254C25CF255C25DF20001BEDE0A0EB7
:101E60000201566F576B020E6D6F560E6C6F55C2A6
:101E70006EF200019DDE12000201126B116B25C192
:101E800053F224C152F223C151F20001CADF0152C0
:101E90006AE1640E0201516F00012FDD640E020140
:101EA0001127000E1223196AF2BE198EF29E00014C
:101EB000C3EC0AF019BEF28E020EEA6E130EE96E42
:101EC0000A0E016EF76A000E66EC01F00A000900C6
:101ED000F5CFEEFF012EFBD7020E0201566F130E57
:101EE000556F030E576F000106DF020112510A08F9
:101EF00038E2FF0A03E11151B70833E2020EEA6E3D
:101F0000130EE96E1F0E016EF76A000E000173ECEE
:101F100001F00A000900F5CFEEFF012EFBD7020EFB
:101F20000201566F130E556F020E576F00011CDF32
:101F3000270E0201556F0001F9DC01C051F201C00A
:101F400053F2020E0201546F556F00017EDF196AD1
:101F5000F2BE198EF29EC3EC0AF019BEF28EF7D7CC
:101F600002018DD70001010E0201556F0001DEDC78
:101F700001C06FF1E30E01016F1702011035006E11
:101F80000036FC0E0016005001016F13010E020115
:101F9000516F6FC152F200011EDF0201126B116B13
:101FA00025C153F224C152F223C151F2000139DF9D
:101FB0000152D8A482D0196AF2BE198EF29EC3ECE7
:101FC0000AF019BEF28E640E0201516F000195DC19
:101FD000640E02011127000E1223020EEA6E320E69
:101FE000E96E0A0E016EF76A000E00018BEC01F03B
:101FF0000A000900F5CFEEFF012EFBD7020E020109
:10200000566F320E556F020E576F000174DE010ECF
:102010000201556F00018ADC01C051F201C053F288
:10202000020E0201546F556F00010FDF11C253F20F
:102030000A0E0201546F020E556F000106DF020105
:1020400012510A0838E2FF0A03E11151B70833E2DE
:10205000020EEA6E320EE96E1F0E016EF76A000E76
:10206000000198EC01F00A000900F5CFEEFF012E07
:10207000FBD7020E0201566F320E556F020E576FDC
:10208000000172DE010E0201556F00014FDC01C03C
:1020900051F201C053F2020E0201546F556F00015C
:1020A000D4DE196AF2BE198EF29EC3EC0AF019BE94
:1020B000F28EF7D7020174D700011200550E02010B
:1020C000106F000197DE010E0201106F0001D4DED7
:1020D000120011C255F22ADC01C014F202011251A1
:1020E000FF0A141710C200F01351016E04E0D890DB
:1020F0000036012EFCD70050141311C251F214C245
:1021000052F2000168DE12000101E2C1E9FFE3C101
:10211000EAFFEFCFE4F1E45304E0E2530EE1E353CE
:102120000CE10201106BEFC013F2EEC012F2EDC031
:1021300011F20001CEDF2BD00101010EE225E56F87
:10214000000EE321E66F2F0E0201536FE6C155F238
:10215000E5C154F2E4C156F200010EDE010E0101A8
:10216000E45DE56FE8CF10F2F2C013F2F1C012F2B5
:10217000F0C011F20001ADDF010E0201106FEFC0DF
:1021800013F2EEC012F2EDC011F20001A2DFDDEF9A
:1021900014F00101E56BE56B2C0E0201516FE3C1F8
:1021A00052F2000118DE0101E56B2D0E0201516FA4
:1021B000E2C152F200010FDEE4EF14F06C0E0101F7
:1021C000E26F400EE46FE36B070E0201516FE2C154
:1021D00052F2000100DE080E0201516FE4C152F21A
:1021E0000001F9DD090E0201516FE3C152F2000155
:1021F000F2DDE6EF14F00101EE51D8B4A5D0FA6F8C
:10220000F251D8B4A1D0FA5F05E37F0EFA27D8B017
:102210009BD006D0810EFA5FD8A096D0D8B494D0C7
:10222000FAC100F0016A026A036AF96BEFC1F8F1C2
:10223000F88FF0C1F7F1F1C1F6F1190EFA6FF5510F
:10224000F65F0DE2010EF75F0AE2F85F08E2F95F60
:1022500006E2F92BF82BF72BF551F62728D0F4518D
:10226000F75F12E2010EF85F0FE2F95F0DE2F92B62
:10227000F82BF451F727F551F62719E3F72B17E15F
:10228000F82B15E1F92B13D0F3518009F85F0EE21A
:10229000010EF95F0BE2F92BF3518009F827F45195
:1022A000F727E9E3F82BE7E1F92BE5D70380FA2FCD
:1022B00001D00BD0D890F637F737F837F937D890E8
:1022C000033602360136FB37BAD7FBA106D0D890C9
:1022D000013202320332FB3302D0000635E0FBBF8D
:1022E0001ED0D890F637F737F837F937F551F65F43
:1022F00007E2010EF75F04E2F85F02E2F95F1AE31A
:10230000F451F75F05E2010EF85F02E2F95F12E3B4
:10231000F3518009F85F03E2010EF95F0BE3032A32
:1023200009E1022A07E1012A05E1002A0DE0013254
:1023300002320332EFC1FAF1F351FA1BFAAF02D0C5
:10234000018E06D0019E04D0006A016A026A036A07
:1023500000011200800ED8A202D002011B1B020154
:10236000206B216B17C21FF21B511F1B1651D8B4D3
:10237000DFD01E6F006E1A51D8B4E3D01E5FD8B400
:1023800083D03EE31BC224F2248F1CC223F21DC261
:1023900022F2216BD89024332333223321331E2F92
:1023A000F8D71FAF03D02081E0D020911E91208963
:1023B000020EEA6E190EE96EEBD020991FBF0AD00B
:1023C0001EA113D02433233322332133002AD8B45F
:1023D000C7D00BD024BF0CD0D89021372237233759
:1023E00024370006D8B4BCD0F5D7208D6DD0209D01
:1023F00017C21FF217AF02D0248FABD0249FA9D0F1
:102400001AC21EF21AC200F016511E5F17C224F241
:10241000248F18C223F219C222F2216BD8902433E0
:102420002333223321331E2FF8D71FAF03D020834D
:102430009CD020931E91208B020EEA6E1D0EE96E39
:10244000A7D0209B1FBF0AD01EA113D02433233353
:1024500022332133002AD8B483D00BD024BF0CD030
:10246000D89021372237233724370006D8B478D0C4
:10247000F5D7208F29D0209F1BC21FF21BAF02D09F
:10248000248F67D0249F65D01BC224F2248F1CC2E6
:1024900023F21DC222F21FAF04D0249F208565D0F5
:1024A0002095216B1E91020EEA6E190EE96E70D016
:1024B0001FBF1CD017C21FF21EA106D02433233326
:1024C00022332133002A4CE021AF0BD0222B09E12B
:1024D000232B07E1242B05E1243323332233002A65
:1024E0003FE020BD84D720BFC6D71CD0800E241B60
:1024F00024AF04D03AD01BC21FF20AD017C21FF279
:10250000245306E1235304E1225302E1006A21D05F
:1025100024BF08D0D8902137223723372437002E04
:10252000F7D71ED01FAF02D0248F13D0249F11D015
:102530001AC200F01BC224F21CC223F21DC222F2F6
:1025400008D016C200F017C224F218C223F219C232
:1025500022F224C201F023C202F022C203F034D0DE
:10256000006A016A026A036A2FD0216B221F231FAF
:10257000241F211F212B05E1222B03E1232B01E145
:10258000242B20B112D720B354D720B589D7B3D785
:10259000EF50222705E3232B03E1242BD8B41E811F
:1025A000ED52EF50232703E3242BD8B41E81ED52C4
:1025B000EF50EFBE01D0800A2427D8B01E8120B989
:1025C000FCD620BB3ED774D7000112008E0E006EE1
:1025D0000101EA51005EEBC102F0ECC101F0028E94
:1025E000005209E0D890025202E1015204E00232A6
:1025F0000132002EF7D7EBAF05D0011E021E012AD3
:10260000D8B4022A000112000101F16B240EF06F10
:10261000740EEF6F970EEE6FE5C1F5F1E4C1F4F1C2
:10262000E3C1F3F1E2C1F2F10001E5DD03C0EDF138
:1026300002C0ECF101C0EBF100C0EAF1D89203C096
:1026400019F202C018F201C017F200C016F202011E
:102650001D6B1C6B1B6B7E0E1A6F00017BDE03C0B3
:10266000EDF102C0ECF101C0EBF100C0EAF1AEDF28
:1026700001C0E6F10101E76BE86BE96BEE6B030E5D
:102680000201516FE7C152F20001EBEC0EF00101C3
:10269000EB6BEC6BED6B040E0201516FE6C152F275
:1026A0000001EBEC0EF006EF15F0E5C1F1F1E4C12D
:1026B000F0F1E3C1EFF1E2C1EEF10101F56B240E9F
:1026C000F46F740EF36F840EF26F000194DD03C09B
:1026D000EDF102C0ECF101C0EBF100C0EAF1D892DB
:1026E00003C019F202C018F201C017F200C016F2BE
:1026F00002011D6B1C6B1B6B7E0E1A6F00012ADE24
:1027000003C0EDF102C0ECF101C0EBF100C0EAF151
:102710005DDF01C0E6F10101E76BE86BE96BEE6B91
:10272000050E0201516FE7C152F20001EBEC0EF011
:102730000101EB6BEC6BED6B060E0201516FE6C114
:1027400052F20001EBEC0EF010EF15F00101E36B1B
:10275000E46BE56BE66B0001B5A523D0010E01012A
:10276000E46FE2BF03D0E2510D0804E3120EE2254C
:10277000E66F15D0E2BF0ED0E2510D080BE2E2BFCA
:1027800003D0E251110806E3010EE56F0E0EE225BB
:10279000E66F05D0010EE56F0B0EE225E66F07D060
:1027A0000001010E0101E36F120EE225E66FE3C1A5
:1027B00010F2F8C013F2F7C012F2F6C011F20001E5
:1027C00088DCE4C110F2FBC013F2FAC012F2F9C0C7
:1027D00011F27FDCE5C110F2FEC013F2FDC012F26F
:1027E000FCC011F276DCE6C110F201C113F200C1A7
:1027F00012F2FFC011F26DDCE2C13BF17DEF15F08A
:102800000101C46B010EEA6EC50EE96E140E016E75
:10281000F76A000E00011BEC01F00A000900F5CF79
:10282000EEFF012EFBD7010E0201566FC50E556F4C
:10283000030E576F00017BEC0EF00D0E01013B6F94
:10284000BBC188F10001B5950101BDA103D0000114
:10285000B585010100018FEF0EF0100E0201556FDA
:10286000000196EC0CF001C0C4F10101C451240830
:102870003FE0010EEA6EC50EE96E1D0E016EF76AAD
:10288000000E00012DEC01F00A000900F5CFEEFF6B
:10289000012EFBD7010E0201566FC50E556F010EBA
:1028A000576F00017BEC0EF0010EEA6EC50EE96E6B
:1028B000080E016EF76A000E44EC01F00A000900F0
:1028C000F5CFEEFF012EFBD7010E0201566FC50EAC
:1028D000556F020E576F00017BEC0EF0196AF2BEC5
:1028E000198EF29EC3EC0AF019BEF28EDDD70101FB
:1028F000490EC56F640EC66F6C0EC76F650EC86F4C
:10290000C96B010E0201566FC50E556F030E576F4E
:102910000001B4EC0EF05EEC10F0520E0101C56F38
:10292000650EC66F610EC76F640EC86F790EC96FF2
:10293000CA6B010E0201566FC50E556F020E576F1E
:1029400000017BEC0EF03C0E0201516F8F0E526FB6
:102950000001EBEC0EF06F0E0201516F300E526F62
:102960000001EBEC0EF05A0E0201516F550E526F42
:102970000001EBEC0EF05C0E0201516F700E526F15
:102980000001EBEC0EF0460E0101C56F720EC66F32
:10299000650EC76F710EC86FC96B010E0201566FCD
:1029A000C50E556F030E576F0001B4EC0EF0BAC19F
:1029B000E3F1B9C1E2F184EF10F00101E36BBCC1B6
:1029C000E2F10001C9EF10F0DEEF10F0520E01014C
:1029D000C56F650EC66F610EC76F640EC86F790E46
:1029E000C96FCA6B010E0201566FC50E556F030EFB
:1029F000576F00017BEC0EF00101E56B240EE46FD4
:102A0000740EE36F900EE26F0001FED50101E56BDD
:102A1000240EE46F740EE36F900EE26F000145D652
:102A2000010E0201106FE6C013F2E5C012F2E4C01D
:102A300011F2000169EC10F0070E0201106F04C1E1
:102A400013F203C112F202C111F2000169EC10F09D
:102A50000201106B07C113F206C112F205C111F297
:102A6000000169EC10F00201106B0AC113F209C1F8
:102A700012F208C111F2000169EC10F0070E020118
:102A8000106F0DC113F20CC112F20BC111F2000153
:102A900069EC10F00201106B10C113F20FC112F2B9
:102AA0000EC111F2000169EC10F00201106B13C1AC
:102AB00013F212C112F211C111F2000169EC10F00F
:102AC000010E0201106F16C113F215C112F214C1EA
:102AD00011F2000169EC10F0020E0201106F19C131
:102AE00013F218C112F217C111F2000169EC10F0D3
:102AF0000D0E0101E26F000129D60101506B4F6BF1
:102B00004E6B4D6B546B536B526B7E0E516F586B0B
:102B1000576B566B556F5C6B5B6B5A6B800E596FC6
:102B2000050E5D6F616B606B5F6B5E6B626B6B69FB
:102B30006C696D6B6E6B230E0201516F020E526F4A
:102B40000001EBEC0EF0250E0201516F526B0001FB
:102B5000EBEC0EF0260E0201516F050E526F0001D4
:102B6000EBEC0EF0290E0201516F52690001EBEC03
:102B70000EF0380E0201516F400E526F0001EBEC67
:102B80000EF03D0E0201516F020E526F0001EBEC90
:102B90000EF0010E0201106F2EC113F22DC112F2C0
:102BA0002CC111F2000169EC10F0020E0201106F4D
:102BB0002BC113F22AC112F229C111F2000169ECF2
:102BC00010F0010E0201106F31C113F230C112F288
:102BD0002FC111F2000169EC10F0010EEA6EC50E72
:102BE000E96E1B0E016EF76A000E50EC01F00A0050
:102BF0000900F5CFEEFF012EFBD7010E0201566F43
:102C0000C50E556F020E576F0001B4EC0EF003EFC6
:102C100022F017C21EF202011B511E1B1EAF05D06F
:102C2000D894D89017BFD8802FD017C21EF21AC2DE
:102C30001FF216511F5F06E01EAF26D0D850010AC2
:102C4000D86E22D01BC21FF217511F5F06E01EAFC5
:102C50001BD0D850010AD86E17D01CC21FF21851D1
:102C60001F5F06E01EAF10D0D850010AD86E0CD0FE
:102C70001DC21FF219511F5F06E01EAF05D0D850CC
:102C8000010AD86E01D0D89000011200550E020141
:102C9000106F0001FAEC0EF0010E0201106F28C156
:102CA00013F227C112F226C111F2000169EC10F0F3
:102CB000040E0201106F00013CEC0FF012008E0EAA
:102CC000006E15C201F014C202F0036A015209E15C
:102CD00002C001F0026A080E005E015202E1006AC1
:102CE00008D0D89001BE04D0023601360006F9D7CC
:102CF000019E120002011851D8B471D0006E1C510F
:102D0000D8B46DD0002604E3810E002668E204D01A
:102D10007F0E005E64E363E019C220F21D51201BA8
:102D2000198F1D8F1B511F03F4CF22F21A511E035E
:102D3000F4CF03F0F3CF21F21F03F3502227F45016
:102D40002123000E03221B511E03F3502227F450AF
:102D50002123000E026A0322022219511F03F3509D
:102D60002127F4500322000E022219511E03F350B2
:102D70000326F4500222000E016A01221B511D039A
:102D8000F3502127F4500322000E022201221A518F
:102D90001D03F3500326F4500222000E01221951A4
:102DA0001D03F3500226F4500122002A01BE05D073
:102DB00021370336023601360006000E21AF0AD055
:102DC000032A02220122015005E1025003E10350CF
:102DD00001E1002A20BF018E20AF019E04D0006ACD
:102DE000016A026A036A00011200196AF2BE198EB2
:102DF000F29E0201A66B3C0EA56FBEC0A8F2BDC03C
:102E0000A7F200016FEC02F019BEF28E02C015F2BB
:102E100001C014F2000153DF03C013F202C012F22A
:102E200001C011F200C010F20201156BBCC014F217
:102E3000000145DFD89213C219F212C218F211C272
:102E400017F210C216F203C01DF202C01CF201C03C
:102E50001BF200C01AF2AAEC11F003C013F202C078
:102E600012F201C011F200C010F2BBC015F2BAC0DC
:102E700014F225DF03C017F202C016F201C015F2EA
:102E800000C014F203C01BF202C01AF201C019F212
:102E900000C018F26F0E02011F6F120E1E6F030E9C
:102EA0001D6F750E1C6F000125DFD89213C219F239
:102EB00012C218F211C217F210C216F203C01DF2AC
:102EC00002C01CF201C01BF200C01AF2AAEC11F001
:102ED00003C013F202C012F201C011F200C010F2DE
:102EE00010C200F011C201F012C202F013C203F0CE
:102EF0001200280E0201556F000196EC0CF001C083
:102F0000EAF10101EA51040B006E003200323F0E7B
:102F1000001600C001F000010AEF1DF0240E0201AE
:102F2000556F000196EC0CF00201156B01C014F214
:102F30000001C5DE00C0EAF10150800A0101EB6F1B
:102F400002C0ECF103C0EDF103C0F1F102C0F0F1F9
:102F5000EF6F00C0EEF1F56BF46BF36B800EF26F68
:102F60000001FBEC10F003C04CF102C04BF101C0BA
:102F70004AF100C049F149C100F04AC101F04BC11A
:102F800002F04CC103F078EF1DF00101F751B608D3
:102F9000F76F036AF8C1FBF1F88FD890F833F93373
:102FA000FA330332023201320032F72FF6D7FBAF89
:102FB0000BD0001E011E021E031E002AD8B4012AD7
:102FC000D8B4022AD8B4032A000178EF18F0D8B296
:102FD00003D0010EEA6EE968006A016A026A036AB8
:102FE0000101FF6B0201006B016B026B0101FE51DD
:102FF000FD11FC11FB1146E0200E0201036FD89079
:103000000101F737F837F937FA37FF370201003790
:10301000013702370101FE510201025D0EE101019B
:10302000FD510201015D09E10101FC510201005D58
:1030300004E10101FB51FF5D02011DE30101FB51B0
:10304000FF5FFC51D8A0FC3D01D003D00201005F1E
:103050000101FD51D8A0FD3D01D003D00201015F67
:103060000101FE51D8A0FE3D01D003D00201025F54
:103070000101D88002010036013602360336032FE3
:10308000BED70101FFC1EFFF00C2ECFF01C2ECFFA0
:1030900002C2ECFF00011200E9500101EF6FEE5196
:1030A000F16F1CE0EDC11BF2ECC11AF2EBC119F299
:1030B000EAC118F202011F6B1E6B200E1D6F820EFB
:1030C0001C6F000117DE03C0EDF102C0ECF101C07E
:1030D000EBF100C0EAF10101F12FE4D7EDC1FAF103
:1030E000ECC1F9F1EBC1F8F1EAC1F7F100014DD7FC
:1030F00003C0EDF102C0ECF101C0EBF100C0EAF158
:103100000101EDAF0DD0EF07EF8BEA1FEB1FEC1FB6
:10311000ED1FEA2BD8B4EB2BD8B4EC2BD8B4ED2BA5
:103120003B0EF66F9A0EF56FCA0EF46FF36B0A0E34
:10313000F16FEE51D8B4EF2BD882010EEA6EEA0E91
:10314000E96EEDC1FAF1ECC1F9F1EBC1F8F1EAC1B8
:10315000F7F1F6C1FEF1F5C1FDF1F4C1FCF1F3C1E7
:10316000FBF1000134DF0150005213E10101EE29AF
:10317000F15DD8A402D000010CD0EF510DE00F0B8F
:10318000F15D01E047E2EFBF45D0EFBD05D0200E75
:103190003AD0200E0101EF17EFAB10D0EF9BEE51AC
:1031A000D8A4EF070050EF6F2D0E0201736F0001DE
:1031B000A9EC0CF00101EF51006EEF6BEE51F15DE7
:1031C0000EE10050EF6F2E0E0201736F0001A9ECAB
:1031D0000CF00101EF51006E200EEF17000E300EC3
:1031E000EFAB11D0EF9BEE51D8A4EF070050EF6F7B
:1031F0002D0E0201736F0001A9EC0CF00101EF51DB
:10320000006EEF6B300E002600C073F20001A9ECD7
:103210000CF00101D892F6C1FAF1F5C1F9F1F4C14F
:10322000F8F1F3C1F7F1FE6BFD6BFC6B0A0EFB6F5F
:103230000001CDDE03C0F6F102C0F5F101C0F4F1EA
:1032400000C0F3F10101F12F77D70001ADEF1DF0C0
:1032500020C222F21FC221F2020121C2E9FF22C2D2
:10326000EAFF1EC2ECFFED521DC2EFFF020E212548
:10327000E96E000E2221EA6EEC6AED52EF6A21C27D
:1032800001F022C202F00001EEEF19F0020E02017D
:103290001925E96E000E1A21EA6EECCF1EF2ED52EE
:1032A000EFCF1DF21D530CE11E530AE1020E1B2548
:1032B000E96E000E1C21EA6EEC6AED52EF6A1BD03B
:1032C000020E1B25016E000E1C21036E1E6F020EE6
:1032D0001925E96E000E1A21EA6EECCF03F0ED52CB
:1032E000EFCF1FF21EC2EAFF01C0E9FF03C0ECFFEF
:1032F000ED521FC2EFFF020E1925E96E000E1A21D2
:10330000EA6E1CC2ECFFED521BC2EFFF0001FBEFA7
:1033100019F002011EC2E9FF1FC2EAFF21C2ECFF41
:10332000ED5220C2EFFF00011200D6C014F2D5C04A
:1033300013F20201135303E11453D8B485D013C21E
:10334000E9FF14C2EAFFECCF1AF2ED52EFCF19F207
:103350001ABF6ED013C2E9FF14C2EAFFECCF1CF211
:10336000ED52EFCF1BF212511C5D62E303E11151EC
:103370001B5D5EE313C2E9FF14C2EAFFECCF18F253
:10338000ED52EFCF17F2040E1125016E000E12213F
:10339000036E0350185D3EE303E11751015C3AE20E
:1033A0001151175D196F125118591A6F040E195FD8
:1033B000000E1A5B040E13251B6F000E14211C6FE8
:1033C00011511B2712511C231AC21EF219C21DF2E1
:1033D0001CC220F21BC21FF200013AD702C016F233
:1033E00001C015F214C21AF213C219F216C21CF26D
:1033F00015C21BF24BD70201800E12251A6F14C2A0
:103400001FF213C21EF2216F11C220F2000181DFF0
:103410000DD00201800E18251A6F14C21FF213C2BC
:103420001EF2216F17C220F2000173DF02010CD0DF
:10343000020E1325E96E000E1421EA6EECCF14F291
:10344000ED52EFCF13F276D7135307E1145305E192
:10345000000E016E026E08D007D0040E1325016E17
:10346000000E1421036E026E00011200D6C021F27C
:10347000D5C020F2020E02012025E96E000E2121A6
:10348000EA6EECCF23F2ED52EFCF22F21E51225D15
:1034900003E11F51235D0EE0020E2025E96E000EB0
:1034A0002121EA6EECCF21F2ED52EFCF20F20001A4
:1034B000E1D70201020E2025016E000E2121036ECC
:1034C000236F020E1E25E96E000E1F21EA6EECCF5F
:1034D00003F0ED52EFCF24F223C2EAFF01C0E9FF6F
:1034E00003C0ECFFED5224C2EFFF1F6B1E6B000107
:1034F000D9EF1AF0D6C017F2D5C016F20201165352
:1035000003E11753D8B47CD016C2E9FF17C2EAFF13
:10351000ECCF1FF2ED52EFCF1EF21FBF63D016C2E9
:10352000E9FF17C2EAFFECCF1BF2ED52EFCF1AF220
:10353000020E1625E96E000E1721EA6EECCF19F285
:10354000ED52EFCF18F218C2E9FF19C2EAFFECCF33
:103550001FF2ED52EFCF1EF21FBF36D01A511625C3
:10356000206F1B511721216F040E2025016E000EC4
:103570002121036E0150185D27E10350195D24E1FC
:1035800018C2E9FF19C2EAFFECCF1DF2ED52EFCFEE
:103590001CF2040E1C25016E000E1D21036E01504D
:1035A0001A2703501B2319C21FF218C21EF2000172
:1035B0005DD717C21FF216C21EF21BC221F21AC239
:1035C00020F2A7DE0DD00201020E1625E96E000ED4
:1035D0001721EA6EECCF17F2ED52EFCF16F2000191
:1035E0000DD00201020E1625E96E000E1721EA6EBB
:1035F000ECCF17F2ED52EFCF16F200017FD70201A8
:1036000000013DEF1BF00201105304E1115302E1F0
:1036100035D031D0040E105D126F000E1159136FAA
:1036200012C2E9FF13C2EAFFECCF17F2ED52EFCF5F
:1036300016F217AF1DD012C2E9FF13C2EAFFECCF9A
:1036400017F2ED52EFCF16F2000E165D146F800EDA
:103650001759156F13C21FF212C21EF215C221F2C2
:1036600014C220F2000155DE0201116B106B03D071
:10367000116B106B03D000013DD702010001120055
:103680005D0E0201106F0001FAEC0EF00201106BEA
:1036900028C113F227C112F226C111F2000169EC10
:1036A00010F0030E0201106F00013CEC0FF04CEF24
:1036B0001CF0280E0201556F000196EC0CF0015031
:1036C000080B006E0032003200321F0E001600C0E0
:1036D00001F05CEF1CF05EEC10F00101FE6BFD6B85
:1036E000FC6BFB6B050EF125010F0201106F126BD5
:1036F000116F00011ADE02C000F201C0FFF1FFC12C
:10370000E9FF00C2EAFF040E0101F125EF6EF4515A
:1037100000080BE2010EFF25E96E000E02010021F8
:10372000EA6E6CC1EFFF0AD00101010EFF25E96EC0
:10373000000E02010021EA6EF3C1EFFF0101F65114
:1037400000080BE2020EFF25E96E000E02010021C7
:10375000EA6E6BC1EFFF0AD00101020EFF25E96E90
:10376000000E02010021EA6EF5C1EFFF030E010118
:10377000FF25E96E000E02010021EA6EF7C1EFFF9E
:10378000040E0101FF25E96E000E02010021EA6E20
:10379000F9C1EFFF0101FE6BFD6BFC6BFB6BFE5390
:1037A0003EE1FD533CE1FC533AE1FB51F15D37E36F
:1037B000050EFB250201106F000E0101FC21020124
:1037C000116F000E0101FD210201126F000E0101B7
:1037D000FE210201136F0101FF5102011025016E4C
:1037E00000511121036E01C014F2156F0101EF5158
:1037F000FB25E96EF051FC21EA6EEFCF16F203C013
:10380000EAFF01C0E9FF16C2EFFF010E0101FB272D
:10381000D8B0FC2BD8B4FD2BD8B4FE2BC0D7050EE6
:10382000F1250201106F536B00C255F2FFC154F233
:10383000566F0001BCEC0EF0020EEA6E010EE96E4E
:103840000A0E016EF76A000EB0EC01F00A000900E2
:10385000F5CFEEFF012EFBD7020E0201566F010ECF
:10386000556F020E576F0001B4EC0EF0050E01010A
:10387000FF250201106F000E0021116F566F10C25C
:1038800055F2020E576F00017BEC0EF000C211F2F0
:10389000FFC110F2B8DEF4D6F5EC16F003C00EF25C
:1038A00002C00DF201C00CF200C00BF202010F9138
:1038B0000FB154D00001FDD60152D8B402D002019C
:1038C0004DD0196AF2BE198EF29EC3EC0AF019BEF1
:1038D000F28EF5EC16F003C013F202C012F201C032
:1038E00011F200C010F2EACF15F2E9CF14F2D8823B
:1038F00003C019F202C018F201C017F200C016F29C
:103900000EC21DF20DC21CF20CC21BF20BC21AF247
:10391000AAEC11F015C2EAFF14C2E9FF03C013F2CA
:1039200002C012F201C011F200C010F25CC119F223
:103930005BC118F25AC117F259C116F203C01DF249
:1039400002C01CF201C01BF200C01AF209EC16F012
:1039500001E202E102010F810201AAD70101F25343
:1039600005E0000146EC16F004D0010100015EEC18
:1039700010F0000E02010FA1010E016E0001DAEF3E
:103980001EF00101C091C16BC26BC46BC36BC86BED
:10399000C76BBEC119F2BDC118F2BCC117F2BBC1E1
:1039A00016F202011D6B1C6B1B6B1A6B000109ECFC
:1039B00016F008E158C1BEF157C1BDF156C1BCF1C6
:1039C00055C1BBF1BEC119F2BDC118F2BCC117F29D
:1039D000BBC116F202011D6B1C6B1B6B1A6B000145
:1039E00009EC16F0D8B480D046EC16F0F5EC16F0E1
:1039F00003C0EDF102C0ECF101C0EBF100C0EAF14F
:103A0000E6EC12F001C0C1F10101C0B16ED00001BD
:103A100079EF17F00152D8B402D0010166D0196ACB
:103A2000F2BE198EF29EC3EC0AF019BEF28E010EA0
:103A30000201516F00017DEC0CF0010E0101C32762
:103A4000000EC42302011B6B1A6B7A0E196F880ECD
:103A5000186F5CC11FF25BC11EF25AC11DF259C141
:103A60001CF200017AEC16F003C0EDF102C0ECF19B
:103A700001C0EBF100C0EAF1C4C115F2C3C114F2F8
:103A80005FEC16F0EDC119F2ECC118F2EBC117F2C0
:103A9000EAC116F203C01DF202C01CF201C01BF203
:103AA00000C01AF209EC16F001E21DE1010EEA6E07
:103AB000CD0EE96E0A0E016EF76A000EBDEC01F044
:103AC0000A000900F5CFEEFF012EFBD7010E02011F
:103AD000566FCD0E556F030E576F00017BEC0EF045
:103AE0000101C081000190D7010100018EEF17F0A4
:103AF00003C050F102C04FF101C04EF100C04DF1C2
:103B0000010EEA6ED70EE96E130E016EF76A000E13
:103B1000CAEC01F00A000900F5CFEEFF012EFBD739
:103B2000010E0201566FD70E556F020E576F00013E
:103B3000B4EC0EF0DD6BC50EDC6F890EE96E50C182
:103B4000EDF14FC1ECF14EC1EBF14DC1EAF1020EC6
:103B50000101EE6F00014CEF18F00201566BC50E2B
:103B6000556F020E576F00017BEC0EF05EEC10F00B
:103B70000101C0B197D10201556B000196EC0CF028
:103B80000101C66B01C0C5F1010EEA6ED70EE96EE8
:103B90000B0E016EF76A000E0001DCEC01F00A006A
:103BA0000900F5CFEEFF012EFBD7010E0201566F83
:103BB000D70E556F030E576F0001B4EC0EF0010ED7
:103BC000DD6FC90EDC6F100EE96EC6C16BF2C5C1A8
:103BD0006AF25CEC0DF0010E0201566FC90E556FD2
:103BE000030E576F00017BEC0EF00101C55302E19B
:103BF000C6533CE0020EC525EA6F000EC621EB6FEE
:103C0000E8CF12F2EAC111F2000195EC19F002C0FE
:103C1000C8F101C0C7F10101C7C1E9FFC8C1EAFF8E
:103C2000C5C1EFFF010EC525EA6F000EC621EB6F7F
:103C3000C751EA25E96EC851EB21EA6EEF6A010E21
:103C4000C725EA6F000EC821EB6F196AF2BE198E04
:103C5000F29E02018D6B8F6FEAC18EF2C5C190F2A8
:103C6000000196EC0BF019BEF28E0101C65306E17D
:103C7000C551040803E3C86BC76B14D16B3D01D079
:103C80001CD0010EC725E96E000EC821EA6EEF3C7C
:103C900001D013D0010EC725E96E000EC821EA6ECF
:103CA0006B51EF5C0AE0C8C111F2C7C110F200010C
:103CB000AADC0101C86BC76BC2D0BA53D8B4BFD05D
:103CC000040EC725E96E000EC821EA6EEF50800B86
:103CD000D8A4B5D0010EC725E96E000EC821EA6E42
:103CE000EF3C01D0ACD061C119F260C118F25FC1E4
:103CF00017F25EC116F202011D6B1C6B1B6B1A6B77
:103D0000000109EC16F022E061C1F1F160C1F0F1AF
:103D10005FC1EFF15EC1EEF10101F56BF46B7A0E5C
:103D2000F36F880EF26F0001FBEC10F003C0EDF1B1
:103D300002C0ECF101C0EBF100C0EAF1E6EC12F0D8
:103D400001C0EAF101C0EBF192EC0CF0210E01018F
:103D5000D76FD86B020EC725E96E000EC821EA6E38
:103D6000EFCFF2F1010EC725E96E000EC821EA6E11
:103D7000EFCFF3F1030EC725E96E000EC821EA6EFE
:103D8000EFCFF5F1040EC725E96E000EC821EA6EEB
:103D9000EF508009EE6F010EF06FD70EEF6FF16BF1
:103DA000F46BF66BF86BEEC1F7F1010EFA6FF96B7D
:103DB000000191D4020E0101C725E96E000EC82151
:103DC000EA6E036AEF50630FE96E010E0320EA6E9C
:103DD000EFCFEAF1030EC725E96E000EC821EA6EA7
:103DE000EF50EA5D12E1040EC725E96E000EC8210E
:103DF000EA6EEFAC0AD0C8C111F2C7C110F20001DF
:103E000002DC0101C86BC76B1AD0020EC725E96E30
:103E1000000EC821EA6E036AEF50630F016E010EB7
:103E20000322030EC725E96E000EC821EA6EEFCF0C
:103E3000ECF103C0EAFF01C0E9FFECC1EFFFBF53A3
:103E400031E1C75302E1C8532DE0010EC26F040EE9
:103E5000C55D006E000EC659036E00C001F003522E
:103E600003E10150C25D17E2C251C725016E000E89
:103E7000C821036E040EC225C725E96E000EC821B5
:103E8000EA6EEFCFECF103C0EAFF01C0E9FFECC13D
:103E9000EFFFC22BDCD7C7C1E9FFC8C1EAFF040EA0
:103EA000EF5CEF6EB95304E0000146EC16F003D06E
:103EB00000015EEC10F00101C7C101F0C8C102F0C1
:103EC000000134EF22F0F86AD09E078EFE0E006EDD
:103ED000040E016E020EE96E000EEA6EEE6A002E0E
:103EE000FDD7012EFBD7DD0E006E030E016E230EF3
:103EF000E96E050EEA6EEE6A002EFDD7012EFBD7A5
:103F0000BF6BC069C16BC26B400EC36FB593C46B0E
:103F1000010ED46FC69A400EC76E220EC66E949ED6
:103F20009380898A929A9392DD6BDC6B020E010179
:103F3000B96F050EBA6F020EBB6F000139EC0CF0C1
:103F400003C0E0F002C0DFF001C0DEF0020E0101AC
:103F5000B96F030EBA6F020EBB6F000139EC0CF0A3
:103F600003C0E3F002C0E2F001C0E1F0020E010183
:103F7000B96FBA6BBB6F000139EC0CF003C0E6F00F
:103F800002C0E5F001C0E4F04E0E0101B96F030E6E
:103F9000BA6F010EBB6F000139EC0CF003C0E9F001
:103FA00002C0E8F001C0E7F04E0E0101B96F020E49
:103FB000BA6F010EBB6F000139EC0CF003C0ECF0DE
:103FC00002C0EBF001C0EAF02E0E0101B96F070E3E
:103FD000BA6F010EBB6F000139EC0CF003C0EFF0BB
:103FE00002C0EEF001C0EDF02E0E0101B96F030E1C
:103FF000BA6FBB6F000139EC0CF003C0F2F002C0E5
:10400000F1F001C0F0F03D0E0101B96FBA6B010E85
:10401000BB6F000139EC0CF003C0F5F002C0F4F006
:1040200001C0F3F0110E0101B96F070EBA6F010E56
:10403000BB6F000139EC0CF003C0F8F002C0F7F0E0
:1040400001C0F6F0110E0101B96F060EBA6F010E34
:10405000BB6F000139EC0CF003C0FBF002C0FAF0BA
:1040600001C0F9F0110E0101B96F050EBA6F010E12
:10407000BB6F000139EC0CF003C0FEF002C0FDF094
:1040800001C0FCF0110E0101B96FBA6B050EBB6FD8
:10409000000139EC0CF003C001F102C000F101C0D5
:1040A000FFF0190E0101B96F050EBA6F030EBB6F59
:1040B000000139EC0CF003C004F102C003F101C0AF
:1040C00002F1190E0101B96F030EBA6F020EBB6F38
:1040D000000139EC0CF003C007F102C006F101C089
:1040E00005F1190E0101B96FBA6B030EBB6F000128
:1040F00039EC0CF003C00AF102C009F101C008F16B
:104100001A0E0101B96F050EBA6F030EBB6F0001E5
:1041100039EC0CF003C00DF102C00CF101C00BF141
:104120001A0E0101B96F030EBA6F020EBB6F0001C8
:1041300039EC0CF003C010F102C00FF101C00EF118
:104140001A0E0101B96FBA6B030EBB6F000139EC97
:104150000CF003C013F102C012F101C011F1370ECF
:104160000101B96F070EBA6F010EBB6F000139EC88
:104170000CF003C016F102C015F101C014F1370EA6
:104180000101B96F050EBA6F020EBB6F000139EC69
:104190000CF003C019F102C018F101C017F1370E7D
:1041A0000101B96F040EBA6F010EBB6F000139EC4B
:1041B0000CF003C01CF102C01BF101C01AF1370E54
:1041C0000101B96F030EBA6F010EBB6F000139EC2C
:1041D0000CF003C01FF102C01EF101C01DF1370E2B
:1041E0000101B96F010EBA6F020EBB6F000139EC0D
:1041F0000CF003C022F102C021F101C020F1270E12
:104200000101B96F070EBA6F010EBB6F000139ECE7
:104210000CF003C025F102C024F101C023F1250EEA
:104220000101B96F060EBA6F020EBB6F000139ECC7
:104230000CF003C028F102C027F101C026F1250EC1
:104240000101B96F040EBA6F020EBB6F000139ECA9
:104250000CF003C02BF102C02AF101C029F1250E98
:104260000101B96F020EBA6FBB6F000139EC0CF09F
:1042700003C02EF102C02DF101C02CF1250E010169
:10428000B96FBA6B020EBB6F000139EC0CF003C0C2
:1042900031F102C030F101C02FF1260E0101B96FDA
:1042A000060EBA6F020EBB6F000139EC0CF003C0B2
:1042B00034F102C033F101C032F1260E0101B96FB1
:1042C000040EBA6F020EBB6F000139EC0CF003C094
:1042D00037F102C036F101C035F1380E0101B96F76
:1042E000BA6B080EBB6F000139EC0CF003C03AF159
:1042F00002C039F101C038F10101896B8B6B8A6B07
:104300008D6B8C6B8F6B8E6B916B906B0001B59787
:10431000B599010E0101956F946B976B966BC15027
:10432000C00B0F09C16E070EB46E020E0001D66FEE
:10433000AA0ED56F010E0201AB6F520EAA6F050EC9
:10434000AD6F230EAC6F020E0501246FD90E236FE3
:10435000266B256B0001B86BB96B030E0101986FDA
:10436000AA0E996F2D0E9A6FD40E9B6F200E9C6F24
:10437000C150C00B0F09C16E000170EF0CF0E80EC8
:104380000101EB6F000192EC0CF060EF0EF00152B6
:1043900023E1196AF2BE198EF29EC3EC0AF019BE2F
:1043A000F28E010EEA6E9D0EE96E0E0E016EF76A38
:1043B000000EEAEC01F00A000900F5CFEEFF012E35
:1043C000FBD7010E0201566F9D0E556F020E576FFF
:1043D00000017BEC0EF0D9D7010E0101BA6F980EE7
:1043E000B96F9CC1BBF1040EBC6F010EBD6FC16BF8
:1043F0001E0EC06F840EBF6F800EBE6FC36BC26B8C
:10440000000100EF14F0010EEA6EAB0EE96E0A0E29
:10441000016EF76A000EF9EC01F00A000900F5CF11
:10442000EEFF012EFBD7010E0201566FAB0E556F4A
:10443000030E576F00017BEC0EF00201106B2EC1D2
:1044400013F22DC112F22CC111F2000169EC10F02F
:10445000010E0101B96FBA6BBE6BBD6BBC6BBB6B60
:10446000BF6B0001C1EF1CF002C0B6F101C0B5F195
:104470000101B55302E1B6534EE0B5C1E9FFB6C143
:10448000EAFFEF5248E0010EEA6EAB0EE96E070E4E
:10449000016EF76A000E000106EC02F00A00090046
:1044A000F5CFEEFF012EFBD7010E0201566FAB0ECA
:1044B000556F030E576F00017BEC0EF00101B86BD6
:1044C000B76BB5C1E9FFB6C1EAFF010EEF5CB853A7
:1044D00021E1B75D1FE2010EB725B96F000EB821CB
:1044E000BA6FB551B925E96EB651BA21EA6E196AAB
:1044F000F2BE198EF29EEFCF8DF2010E02018E6F89
:10450000000119EC0BF019BEF28E0101B72BD8B4E3
:10451000B82BD7D71CD0010EEA6EAB0EE96E0A0E8F
:10452000016EF76A000E000112EC02F00A000900A9
:10453000F5CFEEFF012EFBD7010E0201566FAB0E39
:10454000556F010E576F00017BEC0EF00101B6C1F3
:1045500011F2B5C110F2000103EC1BF079D7030092
:020000040030CA
:0E00000024CE3E1E0087A1000FC00FE00F406F
:00000001FF
;PIC18LF4550
;CRC=433F  CREATED="11-ago.-23 12:07"
