:10000000EDEF0BF068961200046ED8CF05F0E0CF4C
:1000100006F00001E9CF0CF0EACF07F0E1CF08F0DD
:10002000E2CF09F0D9CF0AF0DACF0BF0F3CF12F01C
:10003000F4CF13F0FACF14F0F5CF15F0F6CF16F099
:10004000F7CF17F000C00EF001C00FF002C010F0A3
:1000500003C011F0A0AA30EF00F0A1BA1BEF09F025
:100060000EC000F00FC001F010C002F011C003F08C
:100070000CC0E9FF07C0EAFF078E08C0E1FF09C016
:10008000E2FF0AC0D9FF0BC0DAFF12C0F3FF13C0B2
:10009000F4FF14C0FAFF15C0F5FF16C0F6FF17C035
:1000A000F7FF045006C0E0FF05C0D8FF1000F76A54
:1000B000BE0FF66E000EF7220900F5501200000385
:1000C00002FFFFFFFFFFFFFFFFFFFFFFFFFFF76ADA
:1000D000DE0FF66E000EF7220900F550120000FF49
:1000E00002FFFFFFFFFFFFFFFFFFFFFFFFFFF76ABA
:1000F000FE0FF66E000EF7220900F55012004000C8
:100100000B004000000000000000000000000000A4
:100110000000000000000000000000000000F76A7E
:100120002E0FF66E010EF7220900F5501200400066
:10013000000040000000000000000000000000007F
:100140000000000000000000000000000000F76A4E
:100150005E0FF66E010EF7220900F550120009023B
:10016000430002010080FA090400000102020100BC
:1001700005240010010424020205240600010524C0
:10018000010001070581030B00FA09040100020ABE
:10019000000000070502024000010705820240003E
:1001A0000100F76AB20FF66E010EF7220900F55052
:1001B00012000200F76AC40FF66E010EF722090062
:1001C000F550120012171B20FFFFFFFFF76ADC0F2C
:1001D000F66E010EF7220900F5501200120110010F
:1001E0000200004005240B00000101020001F76A33
:1001F000FE0FF66E010EF7220900F55012000403FF
:100200000904080343004300530020034300430054
:1002100053002000550053004200200074006F007E
:1002200020005500410052005400F76A3A0FF66E64
:10023000020EF7220900F5501200416464726573E2
:1002400073202D20484558202D2042494E006D92A4
:10025000699468A402D06894FCD7689827EF09F0E5
:10026000400E0401016F040E0101B76F180EB7C1F3
:1002700003F4E8CF02F4880E0401006F046B040E4F
:10028000076F580E066F0001120070A002D0E8DF61
:100290007090689A2EEF09F06A6A689233EF09F05D
:1002A0000101C391C2BFC381C29FC251100803E2C2
:1002B000000E016E1AD0C3A10DD0036AC251000115
:1002C000F6DEFF0802E1000E01D0010E016E010111
:1002D0000CD00BD0036AC2510001F9DEFF0802E125
:1002E000000E01D0010E016E01010001120001019A
:1002F000C851CA03F3CF01F0F4CF00F0CB03F350A1
:100300000026C951CA03F3500020026E00011200FA
:10031000036A0101C151700FE96E0F0E0320EA6EEE
:10032000EF6AC1C1C2F10001BBDF015228E0010147
:10033000C96BC1C1C8F1CB6B080ECA6F0001D7DF12
:10034000010101C0E9FF040E0224EA6EEF6AC96BE5
:10035000C1C1C8F1CB6B080ECA6F0001C8DF02C073
:10036000C3F101C0C2F1040E0101C227000EC32374
:10037000C2C1E9FF040EC325EA6EEF6A0001120054
:10038000010E0101C06FC0510F0807E3C0C1C1F1E8
:100390000001BEDF0101C02BF6D7000112000101F0
:1003A000BA6BB96B250EB86F800EB76FB7C12BF063
:1003B000B8C12CF02D6A2E6AB76BB7C12FF0B76B9E
:1003C000B7C130F0080EB76FB7C131F00001B66B9E
:1003D000B591336A326AB46B1E90B76B1200286A0B
:1003E000276A0101B66BB65101080AE3036AB651E8
:1003F000290FE96E000E0320EA6EEF6AB62BF3D7E1
:100400000001CDDF1B6A010E1C6E1A6A12006B6AB6
:10041000696A6A6A686A6E6A706AB2DFE0DF160E3D
:10042000706E68A602D0EEDDFCD79F0E6B6E3D0E9F
:10043000696E6D9815DF030E226E38EF09F069843E
:1004400069986D823DEF09F0689C42EF09F0BBC1ED
:1004500023F01200236812000101B96B2750281005
:1004600033E0B9513F0830E31D50000A000105E0B8
:10047000020A0AE0010A0FE014D026C003F025505A
:1004800066DEE8CFBAF10DD026C003F02550AFDE0E
:10049000E8CFBAF106D026C003F0255097DEE8CFAA
:1004A000BAF1252AD8B4262A2750D8B42806270618
:1004B0000101B951B92B580FE96E040EEA6ED8B09C
:1004C000EA2ABAC1EFFFCAD72750281004E1B95170
:1004D000400801E01A6AB9C1BBF10001B8DF12009F
:1004E0000101B86B266A256A1D6A04011B51010AC5
:1004F000000107E0030A0BE0010A0DE0220A27E0F1
:100500003BD0286A120E276E030E1D6E37D0286A64
:10051000430E276E33D0020E1D6E0101B86B04012D
:100520001A510101B85D0BE226C003F0255000010D
:100530005EDE2526000E26220101B82BF0D726C04C
:1005400003F02550000153DE276E286A17D0036A96
:1005500004011A5100012EDE256E266A253C02D0C8
:10056000265208E026C003F02550F1DD276E286AE8
:1005700005D002D06FDF11D06DDF0FD004011F5303
:1005800008E1285203E127501E5D03E2286A1EC4D9
:1005900027F0010E1A6E00015FDF20EF04F0010169
:1005A000B85306E1040E226E0001EADEEAD0010132
:1005B000050E226E040EBB6F980EBA6F010EB96F56
:1005C000B9510F08D8A0DDD0B9C1C1F10001A0DE3A
:1005D0000101BC6B036AB951000179DDFF0867E0D6
:1005E000040E0101BC6FD890B935036A000197DD94
:1005F0000900F5CF03F00101BD6F03C0BEF1C96B67
:10060000B9C1C8F1CB6B080ECA6F000170DE01C022
:10061000C0F1010E01010124016E000E0220036EE3
:1006200001C0E9FF040E0324EA6EBDC1EFFFC96BF0
:10063000B9C1C8F1CB6B080ECA6F000158DE01C00A
:10064000C0F1020E01010124016E000E0220036EB2
:1006500001C0E9FF040E0324EA6EBBC1ECFFED52BA
:10066000BAC1EFFFD890B935036A000158DD09001F
:10067000F5CF03F00101BA270350BB23880EBF6FEB
:10068000BEA101D0BF81BEA301D0BF83C96BB9C1D8
:10069000C8F1CB6B080ECA6F000129DE010101C051
:1006A000E9FF040E0224EA6EBFC1EFFF0001036AF6
:1006B0000101B9510001FBDCFF0848E00101BC83E6
:1006C000C96BB9C1C8F1CB6B080ECA6F00010FDE50
:1006D00002C0C1F101C0C0F1040E0101C027000E2B
:1006E000C123020EC025016E000EC121036E01C0A0
:1006F000E9FF040E0324EA6EBBC1ECFFED52BAC160
:10070000EFFFD890B935036A0001F1DC0900F5CF9D
:1007100003F00101BA270350BB23C96BB9C1C8F16B
:10072000CB6B080ECA6F0001E2DD02C0C1F101C04F
:10073000C0F1040E0101C027000EC123C0C1E9FFB2
:10074000040EC125EA6E400EEF6E00010101BC519E
:10075000060802E10E0EBC6F036AB9510001A7DC66
:10076000010803E00101BC890001036A0101B951DC
:10077000700FE96E0F0E0320EA6EBCC1EFFFB92BBC
:100780001FD7000118EF04F004011951000A0001FD
:100790000DE0010A15E0020A21E0060A2CE0030A36
:1007A00033E00E0A33E0010A39E049D01CC058F4A6
:1007B0000401596B020E0101BB6F000148DE40D0FD
:1007C00004011A2D08D0010E1C160101BB6B00019B
:1007D0003EDE03D0040100013DDE32D004011A2DBB
:1007E00007D01C820101BB6B000131DE03D0040184
:1007F000000130DE25D0020E1A6E1AC424F0010169
:10080000BB6B000124DE1CD06BD61AD01BC058F481
:10081000010E0101BB6F00011ADE12D004011A5152
:1008200001080BE31AC41BF01AC4B8F10001B7D6D3
:100830000101BB6B00010BDE0401000101D00ADEE7
:10084000BAEF05F01BC0B8F104011951000A00010C
:1008500005E00A0A0CE0010A2CE041D00401586BC3
:10086000596B020E0101BB6F0001F1DD39D00101AE
:10087000B8531CE0010EB85D036A000192DC016E02
:1008800004011C5DD8A002D0010110D0036A1C51E4
:10089000290FE96E000E0320EA6EEFCF58F4010E27
:1008A0000101BB6F0001D3DD03D001010001D2DDE6
:1008B00017D00101B85310E0036A04011C51290F3D
:1008C000E96E000E0320EA6E1AC4EFFF0101BB6B54
:1008D0000001BDDD03D001010001BCDD01D0BADDA6
:1008E000BAEF05F00101B991B8BFB981B89FB9A1BC
:1008F00019D0C96BB8C1C8F1CB6B080ECA6F000123
:10090000F6DC02C0BBF101C0BAF1040E0101BA2746
:10091000000EBB23BAC1E9FF040EBB25EA6E880EA8
:10092000EF6E0FD0C96BB8C1C8F1CB6B080ECA6FA0
:100930000001DDDC010101C0E9FF040E0224EA6EC2
:10094000EF6A036AB851700F016E0F0E032201C0E7
:10095000E9FF03C0EAFFEF9000012FEF05F001016E
:10096000B991B8BFB981B89FB9A119D0C96BB8C145
:10097000C8F1CB6B080ECA6F0001B9DC02C0BBF135
:1009800001C0BAF1040E0101BA27000EBB23BAC19F
:10099000E9FF040EBB25EA6E840EEF6E10D0C96B22
:1009A000B8C1C8F1CB6B080ECA6F0001A0DC010111
:1009B00001C0E9FF040E0224EA6E840EEF6E00010E
:1009C00037EF05F00101B991B8BFB981B89FB9A15E
:1009D00019D0C96BB8C1C8F1CB6B080ECA6F000142
:1009E00086DC02C0BCF101C0BBF1040E0101BB27D3
:1009F000000EBC23BBC1E9FF040EBC25EA6EEFCF9D
:100A0000BAF110D0C96BB8C1C8F1CB6B080ECA6F70
:100A100000016DDC010101C0E9FF040E0224EA6E51
:100A2000EFCFBAF1BAAF02D0BAB502D0000E01D002
:100A3000010E016E000143EF05F01CC4C2F130DC71
:100A400001522EE004011951010A000105E0020AD9
:100A50000BE0030A11E023D01CC4B8F143D7010115
:100A6000BB6B0001F4DC1CD01CC4B8F178D70101C9
:100A7000BB6B0001ECDC14D00401586B596B1CC437
:100A8000B8F100019FD7015204E0010E0401586F34
:100A90000001020E0101BB6F0001D9DC01D0DADCDC
:100AA000BAEF05F0FE0E236E120004011C2D01D0DA
:100AB00002D01C5345E11FC4B9F11EC4B8F119514D
:100AC000000A00010BE0010A0DE0210A0FE0010A13
:100AD00012E0030A23E0010A28E030D0010EB76FCC
:100AE000E1DF2DD0B8C1BBF1B2DC29D0020EB76F67
:100AF000B581D8DF24D0040EEA6E580EE96EE26AA2
:100B00002B0EE16E070E016EE6CFEEFF012EFCD735
:100B1000070E0101BB6F00019ADC11D01AC4B6F0B8
:100B20000101BB6B000193DC0AD01AC433F01BC473
:100B300032F00101BB6B00018ADC01D08BDC0401C7
:100B40000001BAEF05F01A6A040118517F0B000A80
:100B5000000107E0010A07E0030A07E0230A07E0B3
:100B600008D012D607D06ED605D067D703D09DD750
:100B700001D070DCB9EF08F00101C96BB9C1C8F14F
:100B8000CB6B080ECA6F000177EC01F0010101C0C8
:100B9000E9FF040E0224EA6EEFCFBBF1BA5102085E
:100BA00006E1BBAD02D0BA6B02D0010EBA6FBA51EA
:100BB00003081CE1840EBB6FC96BB9C1C8F1CB6BD4
:100BC000080ECA6F000177EC01F002C0BFF101C04E
:100BD000BEF1040E0101BE27000EBF23BEC1E9FF16
:100BE000040EBF25EA6E840EEF6E07D0BA2D03D037
:100BF000C80EBB6F02D0880EBB6FD890B935036AA0
:100C000000018FEC00F00900F5CF03F00101BC6F8B
:100C100003C0BDF1C96BB9C1C8F1CB6B080ECA6F77
:100C2000000177EC01F001C0BEF1010E01010124C9
:100C3000016E000E0220036E01C0E9FF040E0324C2
:100C4000EA6EBCC1EFFFBDA101D0BB81BDA301D045
:100C5000BB83C96BB9C1C8F1CB6B080ECA6F000169
:100C600077EC01F0010101C0E9FF040E0224EA6EF5
:100C7000BBC1EFFF00011200036A0101C751700FF1
:100C8000E96E0F0E0320EA6EEF521BE0C96BC7C17D
:100C9000C8F1CB6B080ECA6F000177EC01F002C0FF
:100CA000C9F101C0C8F1040E0101C827000EC92313
:100CB000C8C1E9FF040EC925EA6EEFCFCAF1CAAF79
:100CC00002D0000E01D0010E016E00011200C2C15F
:100CD000C7F1D2DF0152D8B49BD00101C96BC2C1A8
:100CE000C8F1CB6B080ECA6F000177EC01F002C0AF
:100CF000C8F101C0C7F1040E0101C727000EC823C7
:100D0000010EC725016E000EC821036E01C0E9FF68
:100D1000040E0324EA6EC3C1EFFFC551020820E1AF
:100D2000C96BC2C1C8F1CB6B080ECA6F000177EC6A
:100D300001F002C0C8F101C0C7F1040E0101C727CC
:100D4000000EC823C7C1E9FF040EC825EA6EEFCF25
:100D5000C6F1C6AD02D0C56B02D0010EC56F1AD068
:100D6000C551040817E1C96BC2C1C8F1CB6B080EAD
:100D7000CA6F000177EC01F0010101C0E9FF040E28
:100D80000224EA6EEFCFC6F1C6AD03D0010EC56FE7
:100D900001D0C56BC52D03D0480EC66F02D0080E1A
:100DA000C66FC96BC2C1C8F1CB6B080ECA6F000118
:100DB00077EC01F002C0C8F101C0C7F1040E0101D7
:100DC000C727000EC823C7C1E9FF040EC825EA6E75
:100DD000C6C1EFFFC96BC2C1C8F1CB6B080ECA6FA9
:100DE000000177EC01F002C0C8F101C0C7F1040EA8
:100DF0000101C727000EC823C7C1E9FF040EC8259B
:100E0000EA6EEF508009EF6E010E016E04D0000112
:100E1000000E016E010100011200B751010A03E04A
:100E2000030A08E01BD00101BB6B000127EC02F0B4
:100E3000B76B15D0EA6A2B0EE96E040EE26E180E3F
:100E4000E16E070E016EE6CFEEFF012EFCD7B76B09
:100E50000101BB6B000127EC02F001D0B76B6DEF15
:100E600007F00101C96BB9C1C8F1CB6B080ECA6F9D
:100E7000000177EC01F002C0BBF101C0BAF1010E34
:100E800001010124016E000E0220036E01C0E9FF82
:100E9000040E0324EA6EEFCF01F0026A000161EF55
:100EA00007F01E90020E0101B96FBA6F000164DEF7
:100EB00066EF07F01E80206A020E0101B96F000183
:100EC000D0D701C01FF01F5201E1EBD774EF07F03C
:100ED0000101B85304E10001A0D706D00101B851C7
:100EE000020803E10001E6D7010100011200B9C1C7
:100EF0006EFF0101B95303E0040E226E02D0020E10
:100F0000226E000189EF07F01B6A1A6A24C0B9F14A
:100F1000EED793EF08F0BAC1C7F1AEDE015247E059
:100F20000101C96BBAC1C8F1CB6B080ECA6F0001D1
:100F300077EC01F002C0C3F101C0C2F1040E01015F
:100F4000C227000EC323020EC225016E000EC3216C
:100F5000036E01C0E9FF040E0324EA6EECCFC1F179
:100F6000ED52EFCFC0F1C1C1EAFFC0C1E9FFBCC182
:100F7000E2FFBBC1E1FFBEC102F0BDC101F0015201
:100F800002E0022A02D0025206E0E6CFEEFF012E76
:100F9000FCD7022EFAD7BAC1C2F1BEC1C4F1BDC19D
:100FA000C3F1BFC1C5F1000192DE015002D0000EB5
:100FB000016E1200BEC1C4F1BDC1C3F1C0C1C6F112
:100FC000BFC1C5F10101C651C45D3CE303E1C3519A
:100FD000C55D38E2C151C525016EC251C621036EFF
:100FE000C451035C2FE303E10150C35D2BE2C15107
:100FF000C327C251C423C151C527C251C623C253FE
:1010000003E1C15100081DE2C351D8B4C407C307AE
:10101000C4C1C8F1C3C1C7F1C551D8B4C607C5071B
:10102000C6C1EAFFC5C1E9FFEFCFC9F1C4C1EAFFFC
:10103000C3C1E9FFC9C1EFFFC151D8B4C207C1079D
:10104000DED720D0C25303E1C15100081BE2C4C166
:10105000C8F1C351C32BD8B4C42BC76FC6C1EAFFB4
:10106000C551C52BD8B4C62BE96EEFCFC9F1C8C1A5
:10107000EAFFC7C1E9FFC9C1EFFFC151D8B4C20738
:10108000C107E0D7BDC101F0BEC102F000011200EE
:10109000B45336E0B4C0B9F10101B9513F0802E2DE
:1010A0003F0EB96F020EBA6FBC6B340EBB6FBE6BD6
:1010B000B9C1BDF1020EBF6F00012DDF015220E06A
:1010C000036A0101B951340F016E000E032201C001
:1010D000BAF103C0BBF1B9510001B45D0101BC6FAD
:1010E000BE6B340EBD6F03C0C0F101C0BFF1C26B57
:1010F000BCC1C1F100015EDF0101B9510001B45F63
:101100001200C6DF9AEF08F00101B8530EE11A2C65
:1011100005D000012CEC02F006D001011A500208A3
:1011200003E10001F1D6010106D0B851020803E144
:101130000001E7D701010001120021300101B66F63
:10114000B633B6331F0EB61721524EE104010051DB
:101150003C0B0101B76F430E040100170101B751A9
:10116000340825E104010451800B01E0046B000107
:10117000EAD46D98233C07D00101B96B030EBA6F16
:101180000001FADC12D00101B96B020EBA6F000146
:10119000F3DC2350FE0809E00101C26BC46B23C0DD
:1011A000C3F1040EC56F000192DD1CD00101B751DF
:1011B000040819E1B86B00018BDE0101B96B020E66
:1011C000BA6F0001D9DC2350FE080CE0233C01D0AB
:1011D00009D00101C26BC46B23C0C3F1010EC56FFE
:1011E000000175DD010122D02150040812E12368BD
:1011F000B86B000189DF233C01D009D00101C26B2B
:10120000C46B23C0C3F1020EC56F000160DD0DD0B9
:10121000010121B406D0B6C1B8F1000159DE05D0F4
:101220000101B6C1B8F100016FDF010100014EEF0D
:1012300009F05BEF09F0A19A2252D8B43CD0685271
:10124000D8B439D068A403D069B427EF01F06DB2E7
:1012500032D068AA03D069BA45EF01F068A203D082
:1012600069B24CEF01F068A003D069B007EF02F05B
:1012700068A803D069B81FEF02F068AC03D069BC5E
:1012800024EF02F00101B56B68A60AD069A608D068
:101290006CCF21F0000102EC00F04FD703D0010128
:1012A00006D000010101B551B52B0308EDE21EA0E7
:1012B00003D00001BED70101000130EF00F00101B1
:1012C000726B746B6FC173F1726B7151725D05E279
:1012D000D89074377481722BF8D77051016E04E086
:1012E000D8907437012EFCD770C175F173C101F02D
:1012F00074C102F075C103F0000112006D926D6AB5
:10130000696A080E6F6E945030090101946E226A6A
:10131000196AF2BE198EF29E0001EFEC01F019BEBF
:10132000F28E1200EBDFD2EF09F01B50016E1200BB
:10133000196AF2BE198EF29EEFEC01F019BEF28E20
:101340006D926D6A6D8C00D000D000006D9C140E03
:101350006F6E696A6D86010E226EBFEF09F0E5DFE0
:10136000015207E0196AF2BE198EF29E91DE19BE93
:10137000F28E938481A404D06DB601D0D9D703D066
:101380006DA601D0BBDF222C0BD06DBA09D0686AE4
:10139000696AA08AC00EF212110E696E020E226EE8
:1013A0001200C0D7DCDF22500208FCE106EF0EF08D
:1013B0000101A091A0BAA081A09A0001B4517F08B8
:1013C00007E2196AF2BE198EF29E62DE19BEF28E33
:1013D000B4517F0802E27F0EB46FB451B42B036A9C
:1013E000340FE96E000E0320EA6E9FC1EFFF01018A
:1013F000A0A101D0A08A000101EF0AF09EC19FF1D7
:10140000D7D71FEF0AF0800ED880B45515E1196ABE
:10141000F2BE198EF29E020E0101C76F00012CDC94
:1014200019BEF28E015207E0196AF2BE198EF29EC1
:101430002FDE19BEF28EE7D79DC19EF1DFD72AEFCE
:101440000AF0EF520FE0EACF9CF1E9CF9BF1EFCF2A
:101450009DF1D9D79CC1EAFF9BC1E9FFE92AD8B425
:10146000EA2AEFD73DEF0AF07ADF5FDF015205E0AD
:101470009AC1EAFF99C1E9FFE4D7120088C19AF145
:1014800087C199F1F1DF0A0E0101896F8A6B010EA4
:101490009A6F890E996F0001E7DF93EF0BF001015E
:1014A0008D51070B006E8D31016E013201321F0E1E
:1014B000011601508F25E96E000E9021EA6E016A37
:1014C000012A002A01D00136002EFDD78E5303E0F9
:1014D0000150EF1203D0011E0150EF16000112005F
:1014E00001018C5302E1000E01D0010E8BC18DF180
:1014F0008E6F0F0E906F890E8F6F0001D0DF8BC142
:101500008DF101018E6B0F0E906F920E8F6F0001A7
:10151000C6DF1200050E01018B6F8C6B0001E0DF4E
:10152000B2EF0AF0010E01018B5F0DE3010EEA6ECE
:101530008B0EE96EEF5007E0020E006E002EFED714
:1015400000D0EF2EF9D70001C1EF0AF0050E01011E
:101550008B6F010E8C6F0001C3DF120001018A6BDB
:101560000001D8D7010186517F0B0001BC6FC95023
:10157000BCC0C9FFC730FEE3640E01018B6F0001E0
:10158000D1D701018A6B89518A5D0EE28A51872584
:10159000E96E000E8821EA6EC950C968C730FEE3C3
:1015A000C9CFEFFF8A2BEFD70001D0DFE2EF0AF0BF
:1015B00085C186F10101886BBC0E876F010E896FB2
:1015C0000001CCD7BCC001F09DEF0BF0C1C0EAFF19
:1015D000C0C0E9FF9BC1EFFFE92AD8B4EA2AEF6A4D
:1015E0000001C02BD8B4C12B120001019ABF11D049
:1015F0000F0E006E993900160A0E005C03E2300EE1
:10160000002602D09A51002600C09BF10001DEDFC7
:1016100001010F0E99170A0E995D02E2300E02D0F9
:101620009A9F9A51992799C19BF10001CFDF5DEFF5
:101630000BF001018C51100819E1010E0001C16F7E
:101640008D0EC06F300E01019B6F0001BFDF780E61
:1016500001019B6F0001BADF8BC199F1370E0101C7
:101660009A6F0001C2D7000128D001018C510208F5
:1016700023E1300E8D6F620E8E6F986B98510708C4
:101680001AE3020E9825036A8D0FE96E010E0320FE
:10169000EA6E070ED8809855016E8BC100F001529A
:1016A00004E0D8900032012EFCD70050010B300F1F
:1016B000EF6E982BE3D7976B0001010E01019A6F33
:1016C0008D0E996F0001D0DE120088C19AF187C19A
:1016D00099F1CADE120086C18BF187C18CF1A9DFB6
:1016E0000A0E0101886F896B010E9A6F880E996F3F
:1016F0000001BADED0EF0BF0010EEA6E700EE96E5B
:10170000140E016EF76A000E15EC01F00A000900D4
:10171000F5CFEEFF012EFBD7010E0101886F700E91
:10172000876F0001ABD6010E0101846F84514F0811
:101730003AE384C185F100013BD701C06FF184C158
:101740008BF1100E01018C6F000173DF200E01017F
:10175000706F2D0E716F200E726F736B010E886F9C
:10176000700E876F0001B1DF6FC18BF1100E0101A8
:101770008C6F00015EDF200E0101706F2D0E716F06
:10178000200E726F736B010E886F700E876F0001F1
:101790009CDF6FC186F1020E0101876F00019BD7AC
:1017A0000101842BC3D70001D1DE07EF0EF0010E3B
:1017B000EA6E700EE96EEF500EE00F0E016E006AD9
:1017C000002EFED7012EFBD78F0E006E002EFED707
:1017D0000000EF2EF2D70EEF0EF0F86AD09E078EC3
:1017E000FE0E006E040E016E020EE96E000EEA6E31
:1017F000EE6A002EFDD7012EFBD7DD0E006E030E24
:10180000016E230EE96E050EEA6EEE6A002EFDD71C
:10181000012EFBD7C69A400EC76E220EC66E949E4E
:101820009380898A929A9392C16BC06B020E0101D8
:101830006F6F050E706F020E716F000140DD03C007
:10184000C4F002C0C3F001C0C2F0020E01016F6F0C
:10185000030E706F020E716F000131DD03C0C7F01F
:1018600002C0C6F001C0C5F0020E01016F6F706BBF
:10187000716F000124DD03C0CAF002C0C9F001C0CD
:10188000C8F04E0E01016F6F030E706F010E716F85
:10189000000115DD03C0CDF002C0CCF001C0CBF0DB
:1018A0004E0E01016F6F020E706F010E716F00011D
:1018B00006DD03C0D0F002C0CFF001C0CEF02E0E86
:1018C00001016F6F070E706F010E716F0001F7DC81
:1018D00003C0D3F002C0D2F001C0D1F02E0E01013E
:1018E0006F6F030E706F716F0001E9DC03C0D6F0FB
:1018F00002C0D5F001C0D4F03D0E01016F6F706BD6
:10190000010E716F0001DBDC03C0D9F002C0D8F01A
:1019100001C0D7F0110E01016F6F070E706F010E3D
:10192000716F0001CCDC03C0DCF002C0DBF001C051
:10193000DAF0110E01016F6F060E706F010E716FFC
:101940000001BDDC03C0DFF002C0DEF001C0DDF04D
:10195000110E01016F6F050E706F010E716F0001A6
:10196000AEDC03C0E2F002C0E1F001C0E0F0110E15
:1019700001016F6F706B050E716F0001A0DC03C079
:10198000E5F002C0E4F001C0E3F0190E01016F6F51
:10199000050E706F030E716F000191DC03C0E8F05B
:1019A00002C0E7F001C0E6F0190E01016F6F030EEF
:1019B000706F020E716F000182DC03C0EBF002C099
:1019C000EAF001C0E9F0190E01016F6F706B030EB0
:1019D000716F000174DC03C0EEF002C0EDF001C0D5
:1019E000ECF01A0E01016F6F050E706F030E716F30
:1019F000000165DC03C0F1F002C0F0F001C0EFF0BF
:101A00001A0E01016F6F030E706F020E716F0001ED
:101A100056DC03C0F4F002C0F3F001C0F2F01A0E7D
:101A200001016F6F706B030E716F000148DC03C022
:101A3000F7F002C0F6F001C0F5F0370E01016F6F4C
:101A4000070E706F010E716F000139DC03C0FAF0F0
:101A500002C0F9F001C0F8F0370E01016F6F050EFA
:101A6000706F020E716F00012ADC03C0FDF002C02E
:101A7000FCF001C0FBF0370E01016F6F040E706FB8
:101A8000010E716F00011BDC03C000F102C0FFF00A
:101A900001C0FEF0370E01016F6F030E706F010E73
:101AA000716F00010CDC03C003F102C002F101C040
:101AB00001F1370E01016F6F010E706F020E716F31
:101AC00000015FEC09F003C006F102C005F101C09E
:101AD00004F1270E01016F6F070E706F010E716F19
:101AE00000015FEC09F003C009F102C008F101C078
:101AF00007F1250E01016F6F060E706F020E716FF8
:101B000000015FEC09F003C00CF102C00BF101C051
:101B10000AF1250E01016F6F040E706F020E716FD6
:101B200000015FEC09F003C00FF102C00EF101C02B
:101B30000DF1250E01016F6F020E706F716F0001C4
:101B40005FEC09F003C012F102C011F101C010F105
:101B5000250E01016F6F706B020E716F00015FEC5B
:101B600009F003C015F102C014F101C013F1260EF3
:101B700001016F6F060E706F020E716F00015FEC56
:101B800009F003C018F102C017F101C016F1260ECA
:101B900001016F6F040E706F020E716F00015FEC38
:101BA00009F003C01BF102C01AF101C019F1C150C4
:101BB000C00B0F09C16E070EB46E010EBB6FCD0EC8
:101BC000BA6F020E0101CE6F2F0ECD6F050ED06FD2
:101BD000230ECF6F020E0501246FD90E236F266BE3
:101BE000256B0001B86BB96B030E01016A6FAA0E79
:101BF0006B6F2D0E6C6FD40E6D6F200E6E6FC1501B
:101C0000C00B0F09C16E0001D1EF09F075D5040EAC
:101C100001016F6FFA0E706F0001C9D501016F2FBE
:081C2000F9D70001F3D703001E
:020000040030CA
:0E00000023CE3E1E0087A1000FC00FE00F4070
:00000001FF
;PIC18LF4550
;CRC=E897  CREATED="24-may.-23 00:30"
