:10000000C7EF1CF068961200046ED8CF05F0E0CF61
:1000100006F00001E9CF0CF0EACF07F0E1CF08F0DD
:10002000E2CF09F0D9CF0AF0DACF0BF0F3CF12F01C
:10003000F4CF13F0FACF14F0F5CF15F0F6CF16F099
:10004000F7CF17F000C00EF001C00FF002C010F0A3
:1000500003C011F0A0AA30EF00F0A1BAFDEF09F043
:100060000EC000F00FC001F010C002F011C003F08C
:100070000CC0E9FF07C0EAFF078E08C0E1FF09C016
:10008000E2FF0AC0D9FF0BC0DAFF12C0F3FF13C0B2
:10009000F4FF14C0FAFF15C0F5FF16C0F6FF17C035
:1000A000F7FF045006C0E0FF05C0D8FF1000F76A54
:1000B000BE0FF66E000EF7220900F5501200000385
:1000C00002FFFFFFFFFFFFFFFFFFFFFFFFFFF76ADA
:1000D000DE0FF66E000EF7220900F550120000FF49
:1000E00002FFFFFFFFFFFFFFFFFFFFFFFFFFF76ABA
:1000F000FE0FF66E000EF7220900F55012004000C8
:100100000B004000000000000000000000000000A4
:100110000000000000000000000000000000F76A7E
:100120002E0FF66E010EF7220900F5501200400066
:10013000000040000000000000000000000000007F
:100140000000000000000000000000000000F76A4E
:100150005E0FF66E010EF7220900F550120009023B
:10016000430002010080FA090400000102020100BC
:1001700005240010010424020205240600010524C0
:10018000010001070581030B00FA09040100020ABE
:10019000000000070502024000010705820240003E
:1001A0000100F76AB20FF66E010EF7220900F55052
:1001B00012000200F76AC40FF66E010EF722090062
:1001C000F550120012171B20FFFFFFFFF76ADC0F2C
:1001D000F66E010EF7220900F5501200120110010F
:1001E0000200004005240B00000101020001F76A33
:1001F000FE0FF66E010EF7220900F55012000403FF
:100200000904080343004300530020034300430054
:1002100053002000550053004200200074006F007E
:1002200020005500410052005400F76A3A0FF66E64
:10023000020EF7220900F5501200496E69746961D7
:100240006C20636F6E662073746172747300F76A5A
:100250005E0FF66E020EF7220900F550120045728D
:10026000726F723A2049442064656C2052464D20DA
:10027000696E636F7272656374610000F76A8C0F58
:10028000F66E020EF7220900F55012004944204C88
:100290006F6F7000F76AA40FF66E020EF722090066
:1002A000F5501200496E697469616C20636F6E6667
:1002B000696775726174696F6E20656E640A00000B
:1002C000F76AD00FF66E020EF7220900F550120001
:1002D0004F50204C6F6F70203100F76AEA0FF66EB6
:1002E000020EF7220900F55012004F70657261741A
:1002F000696F6E204D6F646520636F756C646E74FA
:10030000206265207365740A0000F76A1A0FF66EA2
:10031000030EF7220900F55012004F50204C6F6F6A
:1003200070203200F76A340FF66E030EF7220900D0
:10033000F550120054696D656F7574206F6E204F13
:100340007065726174696F6E204D6F6465205365CE
:10035000740A0000F76A640FF66E030EF7220900B4
:10036000F55012005061796C6F61643A2000F76AB1
:100370007E0FF66E030EF7220900F5501200546945
:100380006D6564206F757400F76A980FF66E030E42
:10039000F7220900F55012004649464F204C454EC1
:1003A0003A200000F76AB40FF66E030EF722090038
:1003B000F5501200496420696E636F727265637450
:1003C0006F00F76AD20FF66E030EF7220900F550A0
:1003D0001200494E495420444F4E4500F76AEC0F35
:1003E000F66E030EF7220900F55012005061636BA0
:1003F00065740000F76A040FF66E040EF722090018
:10040000F55012004573706572616E646F006D92F5
:10041000699468A402D06894FCD7689809EF0AF040
:10042000400E0401016F040E02015A6F180E5AC2E9
:1004300003F4E8CF02F4880E0401006F046B040E8D
:10044000076F580E066F0001120070A002D0E8DF9F
:100450007090689A10EF0AF06A6A689215EF0AF0D5
:100460000201669165BF6681659F6551100803E2D0
:10047000000E016E1AD066A10DD0036A655100010D
:1004800016DEFF0802E1000E01D0010E016E02012E
:100490000CD00BD0036A6551000119DEFF0802E1A0
:1004A000000E01D0010E016E0201000112000201D6
:1004B0006B516D03F3CF01F0F4CF00F06E03F350F6
:1004C00000266C516D03F3500020026E00011200F3
:1004D000036A02016451700FE96E0F0E0320EA6E89
:1004E000EF6A64C265F20001BBDF015228E002013D
:1004F0006C6B64C26BF26E6B080E6D6F0001D7DF20
:10050000020101C0E9FF040E0224EA6EEF6A6C6B7F
:1005100064C26BF26E6B080E6D6F0001C8DF02C023
:1005200066F201C065F2040E02016527000E662323
:1005300065C2E9FF040E6625EA6EEF6A000112004B
:10054000010E0201636F63510F0807E363C264F297
:100550000001BEDF0201632BF6D700011200020189
:100560005D6B5C6B250E5B6F800E5A6F5AC22BF071
:100570005BC22CF02D6A2E6A5A6B5AC22FF05A6B4E
:100580005AC230F0080E5A6F5AC231F00001B66BF1
:10059000B591336A326AB46B1E90B76B1200286A49
:1005A000276A0201596B595101080AE3036A59513C
:1005B000290FE96E000E0320EA6EEF6A592BF3D77C
:1005C0000001CDDF1B6A010E1C6E1A6A12006B6AF5
:1005D000696A6A6A686A6E6A706AB2DFE0DF160E7C
:1005E000706E68A602D00EDDFCD79F0E6B6E3D0EBE
:1005F000696E6D9815DF030E226E1AEF0AF069849A
:1006000069986D821FEF0AF0689C24EF0AF05EC2C1
:1006100023F012002368120002015C6B275028109F
:1006200033E05C513F0830E31D50000A000105E053
:10063000020A0AE0010A0FE014D026C003F0255098
:1006400086DDE8CF5DF20DD026C003F02550CFDD6A
:10065000E8CF5DF206D026C003F02550B7DDE8CF25
:100660005DF2252AD8B4262A2750D8B428062706B2
:1006700002015C515C2B580FE96E040EEA6ED8B093
:10068000EA2A5DC2EFFFCAD72750281004E15C5167
:10069000400801E01A6A5CC25EF20001B8DF120095
:1006A00002015B6B266A256A1D6A04011B51010A5F
:1006B000000107E0030A0BE0010A0DE0220A27E02F
:1006C0003BD0286A120E276E030E1D6E37D0286AA3
:1006D000430E276E33D0020E1D6E02015B6B0401C8
:1006E0001A5102015B5D0BE226C003F025500001A8
:1006F0007EDD2526000E262202015B2BF0D726C0C8
:1007000003F02550000173DD276E286A17D0036AB5
:1007100004011A5100014EDD256E266A253C02D0E7
:10072000265208E026C003F0255011DD276E286A06
:1007300005D002D06FDF11D06DDF0FD004011F5341
:1007400008E1285203E127501E5D03E2286A1EC417
:1007500027F0010E1A6E00015FDF01EF05F00201C4
:100760005B5306E1040E226E0001EADEEBD00201CB
:10077000050E226E040E5E6F980E5D6F010E5C6FAB
:100780005C510F08D8A0DED05CC264F20001A0DE8C
:1007900002015F6B036A5C51000199DCFF0867E0AE
:1007A000040E02015F6FD8905C35036A0001B7DC6C
:1007B0000900F5CF03F00201606F03C061F26C6BBA
:1007C0005CC26BF26E6B080E6D6F000170DE01C0D3
:1007D00063F2010E02010124016E000E0220036E7D
:1007E00001C0E9FF040E0324EA6E60C2EFFF6C6BE8
:1007F0005CC26BF26E6B080E6D6F000158DE01C0BB
:1008000063F2020E02010124016E000E0220036E4B
:1008100001C0E9FF040E0324EA6E5EC2ECFFED5254
:100820005DC2EFFFD8905C35036A000178DC0900F7
:10083000F5CF03F002015D2703505E23880E626F3F
:1008400061A101D0628161A301D062836C6B5CC243
:100850006BF26E6B080E6D6F000129DE020101C0A4
:10086000E9FF040E0224EA6E62C2EFFF0001036A90
:1008700002015C5100011BDCFF0848E002015F83BC
:100880006C6B5CC26BF26E6B080E6D6F00010FDE5D
:1008900002C064F201C063F2040E02016327000E7D
:1008A0006423020E6325016E000E6421036E01C0F5
:1008B000E9FF040E0324EA6E5EC2ECFFED525DC256
:1008C000EFFFD8905C35036A000111DC0900F5CF19
:1008D00003F002015D2703505E236C6B5CC26BF278
:1008E0006E6B080E6D6F0001E2DD02C064F201C0A4
:1008F00063F2040E02016327000E642363C2E9FF62
:10090000040E6425EA6E400EEF6E000102015F5195
:10091000060802E10E0E5F6F036A5C51000157EC9E
:1009200000F0010803E002015F890001036A02018F
:100930005C51700FE96E0F0E0320EA6E5FC2EFFF8D
:100940005C2B1ED70001F9EF04F004011951000AD5
:1009500000010DE0010A15E0020A21E0060A2CE080
:10096000030A33E00E0A33E0010A39E049D01CC023
:1009700058F40401596B020E02015E6F000147DE5C
:1009800040D004011A2D08D0010E1C1602015E6B26
:1009900000013DDE03D0040100013CDE32D0040141
:1009A0001A2D07D01C8202015E6B000130DE03D0DD
:1009B000040100012FDE25D0020E1A6E1AC424F0A5
:1009C00002015E6B000123DE1CD06AD61AD01BC068
:1009D00058F4010E02015E6F000119DE12D004010D
:1009E0001A5101080BE31AC41BF01AC45BF2000190
:1009F000B6D602015E6B00010ADE0401000101D0DF
:100A000009DE9CEF06F01BC05BF204011951000ADD
:100A1000000105E00A0A0CE0010A2DE042D00401C1
:100A2000586B596B020E02015E6F0001F0DD3AD087
:100A300002015B531DE0010E5B5D036A0001D1EC16
:100A400000F0016E04011C5DD8A002D0020110D09C
:100A5000036A1C51290FE96E000E0320EA6EEFCFE6
:100A600058F4010E02015E6F0001D1DD03D00201D6
:100A70000001D0DD17D002015B5310E0036A0401CE
:100A80001C51290FE96E000E0320EA6E1AC4EFFF15
:100A900002015E6B0001BBDD03D002010001BADD83
:100AA00001D0B8DD9CEF06F002015C915BBF5C8178
:100AB0005B9F5CA119D06C6B5BC26BF26E6B080E16
:100AC0006D6F0001F4DC02C05EF201C05DF2040E45
:100AD00002015D27000E5E235DC2E9FF040E5E2564
:100AE000EA6E880EEF6E0FD06C6B5BC26BF26E6BB2
:100AF000080E6D6F0001DBDC020101C0E9FF040E8E
:100B00000224EA6EEF6A036A5B51700F016E0F0EEA
:100B1000032201C0E9FF03C0EAFFEF90000111EFDB
:100B200006F002015C915BBF5C815B9F5CA119D008
:100B30006C6B5BC26BF26E6B080E6D6F0001B7DC05
:100B400002C05EF201C05DF2040E02015D27000EDC
:100B50005E235DC2E9FF040E5E25EA6E840EEF6E31
:100B600010D06C6B5BC26BF26E6B080E6D6F000188
:100B70009EDC020101C0E9FF040E0224EA6E840E2D
:100B8000EF6E000119EF06F002015C915BBF5C8122
:100B90005B9F5CA119D06C6B5BC26BF26E6B080E35
:100BA0006D6F000184DC02C05FF201C05EF2040ED2
:100BB00002015E27000E5F235EC2E9FF040E5F257F
:100BC000EA6EEFCF5DF210D06C6B5BC26BF26E6BB6
:100BD000080E6D6F00016BDC020101C0E9FF040E1D
:100BE0000224EA6EEFCF5DF25DAF02D05DB502D0B8
:100BF000000E01D0010E016E000125EF06F01CC4AD
:100C000065F22EDC01522EE004011951010A0001A7
:100C100005E0020A0BE0030A11E023D01CC45BF2DA
:100C200043D702015E6B0001F2DC1CD01CC45BF2F6
:100C300078D702015E6B0001EADC14D00401586B26
:100C4000596B1CC45BF200019FD7015204E0010EF6
:100C50000401586F0001020E02015E6F0001D7DC33
:100C600001D0D8DC9CEF06F0FE0E236E12000401CA
:100C70001C2D01D002D01C5345E11FC45CF21EC4E0
:100C80005BF21951000A00010BE0010A0DE0210A94
:100C90000FE0010A12E0030A23E0010A28E030D045
:100CA000010EB76FE1DF2DD05BC25EF2B0DC29D060
:100CB000020EB76FB581D8DF24D0040EEA6E580E4D
:100CC000E96EE26A2B0EE16E070E016EE6CFEEFFD3
:100CD000012EFCD7070E02015E6F000198DC11D0D7
:100CE0001AC4B6F002015E6B000191DC0AD01AC48E
:100CF00033F01BC432F002015E6B000188DC01D0CE
:100D000089DC040100019CEF06F01A6A0401185105
:100D10007F0B000A000107E0010A07E0030A07E071
:100D2000230A07E008D011D607D06DD605D067D7C3
:100D300003D09DD701D06EDC9BEF09F002016C6BF4
:100D40005CC26BF26E6B080E6D6F000157EC02F027
:100D5000020101C0E9FF040E0224EA6EEFCF5EF249
:100D60005D51020806E15EAD02D05D6B02D0010E5E
:100D70005D6F5D5103081CE1840E5E6F6C6B5CC29D
:100D80006BF26E6B080E6D6F000157EC02F002C043
:100D900062F201C061F2040E02016127000E6223BB
:100DA00061C2E9FF040E6225EA6E840EEF6E07D081
:100DB0005D2D03D0C80E5E6F02D0880E5E6FD89096
:100DC0005C35036A00018FEC00F00900F5CF03F0F9
:100DD00002015F6F03C060F26C6B5CC26BF26E6B02
:100DE000080E6D6F000157EC02F001C061F2010EB8
:100DF00002010124016E000E0220036E01C0E9FF12
:100E0000040E0324EA6E5FC2EFFF60A101D05E8191
:100E100060A301D05E836C6B5CC26BF26E6B080EDC
:100E20006D6F000157EC02F0020101C0E9FF040EF2
:100E30000224EA6E5EC2EFFF00011200036A0201A3
:100E40006A51700FE96E0F0E0320EA6EEF521BE03D
:100E50006C6B6AC26BF26E6B080E6D6F000157EC23
:100E600002F002C06CF201C06BF2040E02016B27AB
:100E7000000E6C236BC2E9FF040E6C25EA6EEFCF07
:100E80006DF26DAF02D0000E01D0010E016E0001B7
:100E9000120065C26AF2D2DF0152D8B49BD00201BF
:100EA0006C6B65C26BF26E6B080E6D6F000157ECD8
:100EB00002F002C06BF201C06AF2040E02016A275E
:100EC000000E6B23010E6A25016E000E6B21036E6E
:100ED00001C0E9FF040E0324EA6E66C2EFFF685109
:100EE000020820E16C6B65C26BF26E6B080E6D6FD1
:100EF000000157EC02F002C06BF201C06AF2040E6E
:100F000002016A27000E6B236AC2E9FF040E6B25FB
:100F1000EA6EEFCF69F269AD02D0686B02D0010EC4
:100F2000686F1AD06851040817E16C6B65C26BF2E8
:100F30006E6B080E6D6F000157EC02F0020101C0EC
:100F4000E9FF040E0224EA6EEFCF69F269AD03D027
:100F5000010E686F01D0686B682D03D0480E696F71
:100F600002D0080E696F6C6B65C26BF26E6B080E77
:100F70006D6F000157EC02F002C06BF201C06AF223
:100F8000040E02016A27000E6B236AC2E9FF040EF9
:100F90006B25EA6E69C2EFFF6C6B65C26BF26E6B1C
:100FA000080E6D6F000157EC02F002C06BF201C039
:100FB0006AF2040E02016A27000E6B236AC2E9FF7F
:100FC000040E6B25EA6EEF508009EF6E010E016E84
:100FD00004D00001000E016E020100011200B751A1
:100FE000010A03E0030A08E01BD002015E6B000166
:100FF00007EC03F0B76B15D0EA6A2B0EE96E040E0E
:10100000E26E180EE16E070E016EE6CFEEFF012EC6
:10101000FCD7B76B02015E6B000107EC03F001D057
:10102000B76B4FEF08F002016C6B5CC26BF26E6B3A
:10103000080E6D6F000157EC02F002C05EF201C0B5
:101040005DF2010E02010124016E000E0220036E0A
:1010500001C0E9FF040E0324EA6EEFCF01F0026A3B
:10106000000143EF08F01E90020E02015C6F5D6FFD
:10107000000164DE48EF08F01E80206A020E0201C3
:101080005C6F0001D0D701C01FF01F5201E1EBD708
:1010900056EF08F002015B5304E10001A0D706D02F
:1010A00002015B51020803E10001E6D702010001E1
:1010B00012005CC26EFF02015C5303E0040E226E5C
:1010C00002D0020E226E00016BEF08F01B6A1A6A52
:1010D00024C05CF2EED775EF09F05DC26AF2AEDEB5
:1010E000015247E002016C6B5DC26BF26E6B080E41
:1010F0006D6F000157EC02F002C066F201C065F2AC
:10110000040E02016527000E6623020E6525016E9E
:10111000000E6621036E01C0E9FF040E0324EA6E8F
:10112000ECCF64F2ED52EFCF63F264C2EAFF63C228
:10113000E9FF5FC2E2FF5EC2E1FF61C202F060C28E
:1011400001F0015202E0022A02D0025206E0E6CF8C
:10115000EEFF012EFCD7022EFAD75DC265F261C206
:1011600067F260C266F262C268F2000192DE01506C
:1011700002D0000E016E120061C267F260C266F218
:1011800063C269F262C268F202016951675D3CE3C1
:1011900003E16651685D38E264516825016E65516E
:1011A0006921036E6751035C2FE303E10150665D23
:1011B0002BE26451662765516723645168276551A6
:1011C0006923655303E1645100081DE26651D8B4F8
:1011D0006707660767C26BF266C26AF26851D8B4E5
:1011E0006907680769C2EAFF68C2E9FFEFCF6CF2DE
:1011F00067C2EAFF66C2E9FF6CC2EFFF6451D8B470
:1012000065076407DED720D0655303E16451000809
:101210001BE267C26BF26651662BD8B4672B6A6F0C
:1012200069C2EAFF6851682BD8B4692BE96EEFCF29
:101230006CF26BC2EAFF6AC2E9FF6CC2EFFF645155
:10124000D8B465076407E0D760C201F061C202F05C
:1012500000011200B45336E0B4C05CF202015C51EC
:101260003F0802E23F0E5C6F020E5D6F5F6B340E53
:101270005E6F616B5CC260F2020E626F00012DDF77
:10128000015220E0036A02015C51340F016E000E2E
:10129000032201C05DF203C05EF25C510001B45D47
:1012A00002015F6F616B340E606F03C063F201C0B7
:1012B00062F2656B5FC264F200015EDF02015C51A5
:1012C0000001B45F1200C6DF7CEF09F002015B533E
:1012D0000EE11A2C05D000010CEC03F006D002013F
:1012E0001A50020803E10001F1D6020106D05B5159
:1012F000020803E10001E7D70201000112002130DA
:101300000201596F593359331F0E591721524EE1BB
:10131000040100513C0B02015A6F430E04010017F7
:1013200002015A51340825E104010451800B01E007
:10133000046B0001EAD46D98233C07D002015C6B7A
:10134000030E5D6F0001FADC12D002015C6B020E2D
:101350005D6F0001F3DC2350FE0809E00201656BBC
:10136000676B23C066F2040E686F000192DD1CD02B
:1013700002015A51040819E15B6B00018BDE020186
:101380005C6B020E5D6F0001D9DC2350FE080CE09F
:10139000233C01D009D00201656B676B23C066F264
:1013A000010E686F000175DD020122D02150040892
:1013B00012E123685B6B000189DF233C01D009D077
:1013C0000201656B676B23C066F2020E686F000155
:1013D00060DD0DD0020121B406D059C25BF20001DC
:1013E00059DE05D0020159C25BF200016FDF020134
:1013F000000130EF0AF03DEF0AF0A19A2252D8B472
:101400003CD06852D8B439D068A403D069B407EF8F
:1014100002F06DB232D068AA03D069BA25EF02F0AB
:1014200068A203D069B22CEF02F068A003D069B0C3
:10143000E7EF02F068A803D069B8FFEF02F068ACEC
:1014400003D069BC04EF03F00201586B68A60AD010
:1014500069A608D06CCF21F0000102EC00F04FD754
:1014600003D0020106D0000102015851582B030895
:10147000EDE21EA003D00001BED70201000130EF53
:1014800000F00101946B966B91C195F1946B9351AF
:10149000945D05E2D89096379681942BF8D79251B7
:1014A000016E04E0D8909637012EFCD792C197F1D7
:1014B00095C101F096C102F097C103F0000112003E
:1014C00002012C51070B006E2C31016E01320132EA
:1014D0001F0E011601502E25E96E000E2F21EA6E17
:1014E000016A012A002A01D00136002EFDD72D53B2
:1014F00003E00150EF1203D0011E0150EF1600016E
:10150000120002012B5302E1000E01D0010E2AC28B
:101510002CF22D6F0F0E2F6F890E2E6F0001D0DF72
:101520002AC22CF202012D6B0F0E2F6F920E2E6F1E
:101530000001C6DF12006D926D6A696A080E6F6E57
:10154000945030090101946E226A196AF2BE198E14
:10155000F29E0001CFEC02F019BEF28EB1EF0AF05C
:10156000EAD7E9EF0AF01B50016E1200196AF2BEC9
:10157000198EF29ECFEC02F019BEF28E6D926D6A5A
:101580006D8C00D000D000006D9C140E6F6E696AE7
:101590006D86010E226EDAEF0AF0E5DF015207E0F8
:1015A000196AF2BE198EF29E55DE19BEF28E6DB624
:1015B00001D0DCD7222C0BD06DBA09D0686A696AD9
:1015C000A08AC00EF212110E696E020E226E120077
:1015D000C7D7E3DF22500208FCE1FFEF1EF0020E46
:1015E000EA6E200EE96EEF500EE00F0E016E006AFB
:1015F000002EFED7012EFBD78F0E006E002EFED7D9
:101600000000EF2EF2D71200BAC120F2E8DF12007C
:10161000050E02012A6F2B6B000173DF1200010E11
:1016200002012A5F0DE3020EEA6E2A0EE96EEF5008
:1016300007E0020E006E002EFED700D0EF2EF9D785
:1016400000013EEF0BF0050E02012A6F010E2B6F19
:10165000000157DF12000201296B0001D9DF0201EE
:1016600025517F0B0001C26FC950C2C0C9FFC730EE
:10167000FEE3640E02012A6F0001D1D70201296B3B
:101680002851295D0EE229512625E96E000E2721F9
:10169000EA6EC950C968C730FEE3C9CFEFFF292BF6
:1016A000EFD70001D0DF120024C225F20201276B20
:1016B000C20E266F010E286F0001CDDFC2C001F0FF
:1016C0001200C7C0EAFFC6C0E9FF42C2EFFFE92A25
:1016D000D8B4EA2AEF6A0001C62BD8B4C72B12008F
:1016E00002013ABF11D00F0E006E393900160A0EF2
:1016F000005C03E2300E002602D03A51002600C002
:1017000042F20001DEDF02010F0E39170A0E395DC9
:1017100002E2300E02D03A9F3A51392739C242F2E2
:101720000001CFDF4CEF0DF0EACF41F2E9CF40F2FC
:1017300002013AAF08D0408F40A9402B391F3A1F11
:10174000392BD8B43A2B3A39F0093C6F3C27E20FD9
:101750003D6F320F3F6F3A510F0B3D273D273F271B
:10176000E90F3E6F3E273E2739390F0B3E273F27B3
:101770003E373F373F1F3F3739510F0B3F273C372D
:10178000070E3B6F0A0E3E073F27FDE33D073E274E
:10179000FDE33C073D27FDE33B073C27FDE3020E4D
:1017A000EA6E3B0EE96E070E4015409DED52401566
:1017B00007E140B9EE5240B903D0200E006E21D0AF
:1017C000E926000EEA22E9503F0804E1EA50020847
:1017D00001E1408DEF50006E08E140BD06D040B9F8
:1017E0001DD040B702D0200E0BD040AF06D02D0E3A
:1017F000006EED50409D409F04D040874099300ED0
:101800000026EACF3AF2E9CF39F200C042F20001F5
:1018100058DF3AC2EAFF39C2E9FF0201EE5040AD9B
:10182000D2D700013BEF0DF0EACF41F2E9CF40F211
:1018300002013A39F0093C6F3C27E20F3D6F320F4D
:101840003F6F3A510F0B3D273D273F27E90F3E6F72
:101850003E273E2739390F0B3E273F273E373F377C
:101860003F1F3F3739510F0B3F273C37070E3B6F68
:101870000A0E3E073F27FDE33D073E27FDE33C07F9
:101880003D27FDE33B073C27FDE3020EEA6E3B0EDE
:10189000E96E070E4015409DE926000EEA22E95048
:1018A0003F0804E1EA50020801E1408DEF50006E6C
:1018B00008E140BD06D040B915D040B702D0200E97
:1018C00003D040874099300E0026EACF3AF2E9CFA4
:1018D00039F200C042F20001F4DE3AC2EAFF39C236
:1018E000E9FF0201EE5040ADDAD700014CEF0DF0F8
:1018F00002014391A0BA4381A09A0001B4517F082C
:1019000007E2196AF2BE198EF29EA4DC19BEF28EAD
:10191000B4517F0802E27F0EB46FB451B42B036A56
:10192000340FE96E000E0320EA6E42C2EFFF02019F
:1019300043A101D0A08A0001A1EF0CF041C242F204
:10194000D7D7C0EF0CF0800ED880B45516E1196AD5
:10195000F2BE198EF29E020E02016A6F00011EECA9
:1019600007F019BEF28E015207E0196AF2BE198E15
:10197000F29E70DC19BEF28EE6D740C241F2DED78D
:101980001200EF520FE0EACF3FF2E9CF3EF2EFCF85
:1019900040F2D9DF3FC2EAFF3EC2E9FFE92AD8B4EC
:1019A000EA2AEFD7E2EF0CF0F8DDDDDD01520AE0C4
:1019B00002013D510001BF5D05E33CC2EAFF3BC2AD
:1019C000E9FFDFD7120002012B51100819E1020EC6
:1019D0000001C76F2D0EC66F300E0201426F00016D
:1019E00070DE780E0201426F00016BDE29C239F20F
:1019F000370E02013A6F000173D600014DD002018B
:101A00002B51020829E1300E2D6F620E2E6F386BBC
:101A1000385107081FE3020E3825036A2D0FE96EBF
:101A2000020E0320EA6E070ED8803855006E2AC2D7
:101A30003CF229C23BF2005205E0D8903C333B33E4
:101A4000002EFBD7010E3B173C6B300E3B25EF6E93
:101A5000382BDED7376B21D02B510A080EE1020E4E
:101A60000001C76F2D0EC66F100EE96E2AC23AF242
:101A700029C239F259D610D002012B510B080DE1C1
:101A8000020E0001C76F2D0EC66F100EE96E2AC23E
:101A90003AF229C239F2C8D60201020E3C6F2D0E6D
:101AA0003B6F2CC23DF200017FDF1200100E0201DD
:101AB000246F0001F9DD01C091F102012A6B91C18F
:101AC00029F2030E2B6F2C6B00017DDF0101915178
:101AD000240802E0000E01D0010E016E000107EFA4
:101AE0001FF025C23CF224C23BF226C23DF25CDF6D
:101AF0000A0E0201276F286B020E3C6F270E3B6F08
:101B000026C23DF2000150DF12006FC12AF2010E21
:101B100002012B6F0001F5DC010E0101BA6F00011B
:101B200073DD6FC12AF202012B6B0001EADC050EA6
:101B30000101BA6F000168DDECEF12F025C23CF242
:101B400024C23BF226C23DF22FDF12000201266BB7
:101B500000015EDD020122518009276FC95027C2B2
:101B6000C9FFC730FEE3266B2551265D0FE22651E3
:101B70002325E96E000E2421EA6EEFCF27F2C9502B
:101B800027C2C9FFC730FEE3262BEED700015BDD7D
:101B9000120021C2C2F020C222F20201246BC20E46
:101BA000236F010E256F0001D1DFC2C001F01200CA
:101BB000010122BF12D0225111080FE25A0E020178
:101BC000206FDFC121F20001E4DF5C0E0201206F13
:101BD000DFC121F20001DDDF01010001120020C29E
:101BE00024F262DD01C023F2020123512115006EAF
:101BF0002251016E04E0D8900032012EFCD7005033
:101C0000016E0001120002012A6B22C229F223C2D6
:101C10002BF224C22CF20001D6DE0A0E0201256F3F
:101C2000266B020E3C6F250E3B6F24C23DF2000175
:101C3000BBDE12000101E16BE06B0FC122F20EC1AD
:101C400021F20DC120F20001CADF01525CE1640EF5
:101C50000201206F0001C3DC640E0101E027000EC9
:101C6000E12300019ADC010EEA6EE20EE96E0A0E33
:101C7000016EF76A000E60EC01F00A000900F5CF72
:101C8000EEFF012EFBD7010E0201256FE20E246F3D
:101C9000030E266F000125DF0101E1510A0831E240
:101CA000FF0A03E1E051B7082CE2010EEA6EE20EF2
:101CB000E96E1F0E016EF76A000E00016DEC01F077
:101CC0000A000900F5CFEEFF012EFBD7010E02013D
:101CD000256FE20E246F020E266F00012FDF270E04
:101CE0000201246F0001E0DC01C020F201C022F2F9
:101CF000020E0201236F246F000185DF4EDCFED748
:101D000001019BD70001010E0201246F0001CCDC10
:101D100001C056F1E30E01015617DF35006E0036A3
:101D2000FC0E001600505613010E0201206F56C122
:101D300021F200012EDF0101E16BE06B0FC122F205
:101D40000EC121F20DC120F2000149DF0152D8A4D9
:101D500075D023DC640E0201206F000140DC640EAC
:101D60000101E027000EE123020EEA6E010EE96E8A
:101D70000A0E016EF76A000E000185EC01F00A0000
:101D80000900F5CFEEFF012EFBD7020E0201256FF1
:101D9000010E246F020E266F0001A3DE010E020168
:101DA000246F000181DC01C020F201C022F2020E8A
:101DB0000201236F246F000126DFE0C122F20A0E28
:101DC0000201236F020E246F00011DDF0101E151AA
:101DD0000A0832E2FF0A03E1E051B7082DE2020EE1
:101DE000EA6E010EE96E1F0E016EF76A000E000129
:101DF00092EC01F00A000900F5CFEEFF012EFBD7AF
:101E0000020E0201256F010E246F020E266F0001E3
:101E100095DE010E0201246F000146DC01C020F2B4
:101E200001C022F2020E0201236F246F0001EBDEDB
:101E3000CDEC0AF0FDD7010181D700011200550E4B
:101E40000101DF6F0001B4DE010E0101DF6F00014F
:101E5000F1DE1200E0C124F227DC01C0E3F1010150
:101E6000E151FF0AE317DFC100F0E251016E04E027
:101E7000D8900036012EFCD70050E313E0C120F2C9
:101E8000E3C121F2000185DE12000101BAC1E9FFC0
:101E9000BBC1EAFFEFCFBCF1BC5304E0BA530DE184
:101EA000BB530BE1DF6BD9C0E2F1D8C0E1F1D7C081
:101EB000E0F10001CFDF2AD00101010EBA25BD6F8C
:101EC000000EBB21BE6F2F0E0201226FBEC124F295
:101ED000BDC123F2BCC125F2000138DE010E0101B3
:101EE000BC5DBD6FDF6FDCC0E2F1DBC0E1F1DAC0E9
:101EF000E0F10001AFDF010E0101DF6FD9C0E2F1B7
:101F0000D8C0E1F1D7C0E0F10001A4DF96EF13F0F3
:101F10000101BD6BBD6B2C0E0201206FBBC121F214
:101F2000000137DE0101BD6B2D0E0201206FBAC129
:101F300021F200012EDE9DEF13F06C0E0101BA6F4D
:101F4000400EBC6FBB6B070E0201206FBAC121F2BD
:101F500000011FDE080E0201206FBCC121F200014A
:101F600018DE090E0201206FBBC121F2000111DE53
:101F70009FEF13F00101C251D8B4A5D0CE6FC65166
:101F8000D8B4A1D0CE5F05E37F0ECE27D8B09BD0CA
:101F900006D0810ECE5FD8A096D0D8B494D0CEC152
:101FA00000F0016A026A036ACD6BC3C1CCF1CC8F29
:101FB000C4C1CBF1C5C1CAF1190ECE6FC951CA5FF8
:101FC0000DE2010ECB5F0AE2CC5F08E2CD5F06E2D4
:101FD000CD2BCC2BCB2BC951CA2728D0C851CB5FD6
:101FE00012E2010ECC5F0FE2CD5F0DE2CD2BCC2BC8
:101FF000C851CB27C951CA2719E3CB2B17E1CC2BEA
:1020000015E1CD2B13D0C7518009CC5F0EE2010E34
:10201000CD5F0BE2CD2BC7518009CC27C851CB2710
:10202000E9E3CC2BE7E1CD2BE5D70380CE2F01D020
:102030000BD0D890CA37CB37CC37CD37D8900336B2
:1020400002360136CF37BAD7CFA106D0D8900132A9
:1020500002320332CF3302D0000635E0CFBF1ED0AC
:10206000D890CA37CB37CC37CD37C951CA5F07E2D2
:10207000010ECB5F04E2CC5F02E2CD5F1AE3C851F0
:10208000CB5F05E2010ECC5F02E2CD5F12E3C751E8
:102090008009CC5F03E2010ECD5F0BE3032A09E167
:1020A000022A07E1012A05E1002A0DE0013202328D
:1020B0000332C3C1CEF1C751CE1BCEAF02D0018EC9
:1020C00006D0019E04D0006A016A026A036A000118
:1020D0001200800ED8A202D00101EA1B0101EF6BB1
:1020E000F06BE6C1EEF1EA51EE1BE551D8B4DFD05A
:1020F000ED6F006EE951D8B4E3D0ED5FD8B483D072
:102100003EE3EAC1F3F1F38FEBC1F2F1ECC1F1F17F
:10211000F06BD890F333F233F133F033ED2FF8D77F
:10212000EEAF03D0EF81E0D0EF91ED91EF89010E9A
:10213000EA6EE80EE96EEBD0EF99EEBF0AD0EDA1A2
:1021400013D0F333F233F133F033002AD8B4C7D0CD
:102150000BD0F3BF0CD0D890F037F137F237F3370C
:102160000006D8B4BCD0F5D7EF8D6DD0EF9DE6C199
:10217000EEF1E6AF02D0F38FABD0F39FA9D0E9C167
:10218000EDF1E9C100F0E551ED5FE6C1F3F1F38F48
:10219000E7C1F2F1E8C1F1F1F06BD890F333F2331B
:1021A000F133F033ED2FF8D7EEAF03D0EF839CD0AF
:1021B000EF93ED91EF8B010EEA6EEC0EE96EA7D076
:1021C000EF9BEEBF0AD0EDA113D0F333F233F1331E
:1021D000F033002AD8B483D00BD0F3BF0CD0D89002
:1021E000F037F137F237F3370006D8B478D0F5D7A7
:1021F000EF8F29D0EF9FEAC1EEF1EAAF02D0F38F63
:1022000067D0F39F65D0EAC1F3F1F38FEBC1F2F130
:10221000ECC1F1F1EEAF04D0F39FEF8565D0EF95FF
:10222000F06BED91010EEA6EE80EE96E70D0EEBF34
:102230001CD0E6C1EEF1EDA106D0F333F233F13359
:10224000F033002A4CE0F0AF0BD0F12B09E1F22B78
:1022500007E1F32B05E1F333F233F133002A3FE0DA
:10226000EFBD84D7EFBFC6D71CD0800EF31BF3AFF2
:1022700004D03AD0EAC1EEF10AD0E6C1EEF1F35350
:1022800006E1F25304E1F15302E1006A21D0F3BF09
:1022900008D0D890F037F137F237F337002EF7D760
:1022A0001ED0EEAF02D0F38F13D0F39F11D0E9C14F
:1022B00000F0EAC1F3F1EBC1F2F1ECC1F1F108D0A9
:1022C000E5C100F0E6C1F3F1E7C1F2F1E8C1F1F1D7
:1022D000F3C101F0F2C102F0F1C103F034D0006AA1
:1022E000016A026A036A2FD0F06BF11FF21FF31F1D
:1022F000F01FF02B05E1F12B03E1F22B01E1F32BB1
:10230000EFB112D7EFB354D7EFB589D7B3D7EF50AA
:10231000F12705E3F22B03E1F32BD8B4ED81ED5265
:10232000EF50F22703E3F32BD8B4ED81ED52EF50D9
:10233000EFBE01D0800AF327D8B0ED81EFB9FCD60B
:10234000EFBB3ED774D7000112008E0E006E010164
:10235000C251005EC3C102F0C4C101F0028E00523E
:1023600009E0D890025202E1015204E00232013247
:10237000002EF7D7C3AF05D0011E021E012AD8B424
:10238000022A000112000101C56B240EC46F740EF5
:10239000C36F970EC26FBDC1C9F1BCC1C8F1BBC14B
:1023A000C7F1BAC1C6F10001E5DD03C0C5F102C045
:1023B000C4F101C0C3F100C0C2F1D89203C0E8F17A
:1023C00002C0E7F101C0E6F100C0E5F10101EC6BEC
:1023D000EB6BEA6B7E0EE96F00017BDE03C0C5F19B
:1023E00002C0C4F101C0C3F100C0C2F1AEDF01C040
:1023F000BEF10101BF6BC06BC16BC66B030E020166
:10240000206FBFC121F20001C9EC0DF00101C36BC7
:10241000C46BC56B040E0201206FBEC121F2000126
:10242000C9EC0DF0BFEF13F0BDC1C5F1BCC1C4F1E3
:10243000BBC1C3F1BAC1C2F10101C96B240EC86F9F
:10244000740EC76F840EC66F000194DD03C0C5F122
:1024500002C0C4F101C0C3F100C0C2F1D89203C0F0
:10246000E8F102C0E7F101C0E6F100C0E5F10101C9
:10247000EC6BEB6BEA6B7E0EE96F00012ADE03C0AA
:10248000C5F102C0C4F101C0C3F100C0C2F15DDFFB
:1024900001C0BEF10101BF6BC06BC16BC66B050E05
:1024A0000201206FBFC121F20001C9EC0DF0010152
:1024B000C36BC46BC56B060E0201206FBEC121F257
:1024C0000001C9EC0DF0C9EF13F00101BB6BBC6B4F
:1024D000BD6BBE6B0001B5A323D0010E0101BC6F23
:1024E000BABF03D0BA510D0804E3120EBA25BE6F6D
:1024F00015D0BABF0ED0BA510D080BE2BABF03D047
:10250000BA51110806E3010EBD6F0E0EBA25BE6F5B
:1025100005D0010EBD6F0B0EBA25BE6F07D00001AE
:10252000010E0101BB6F120EBA25BE6FBBC1DFF1F8
:10253000E2C0E2F1E1C0E1F1E0C0E0F100018ADCDB
:10254000BCC1DFF1E5C0E2F1E4C0E1F1E3C0E0F1DC
:1025500081DCBDC1DFF1E8C0E2F1E7C0E1F1E6C036
:10256000E0F178DCBEC1DFF1EBC0E2F1EAC0E1F1FD
:10257000E9C0E0F16FDCBAC122F136EF14F00101DD
:102580009C6B010EEA6E9D0EE96E140E016EF76AE9
:10259000000E000115EC01F00A000900F5CFEEFF76
:1025A000012EFBD7010E0201256F9D0E246F030E35
:1025B000266F000171EC0DF00D0E0101226F93C129
:1025C0006FF10001B593010195A103D00001B5831E
:1025D0000101000185EF0DF0100E0201246F0001D2
:1025E00054EC0BF001C09CF101019C51240839E02E
:1025F000010EEA6E9D0EE96E1D0E016EF76A000E69
:10260000000127EC01F00A000900F5CFEEFF012ED2
:10261000FBD7010E0201256F9D0E246F010E266F60
:10262000000171EC0DF0010EEA6E9D0EE96E080ED0
:10263000016EF76A000E3EEC01F00A000900F5CFCA
:10264000EEFF012EFBD7010E0201256F9D0E246FB8
:10265000020E266F000171EC0DF0CDEC0AF0E3D70D
:102660000101490E9D6F640E9E6F6C0E9F6F650E8B
:10267000A06FA16B010E0201256F9D0E246F030E4A
:10268000266F00019EEC0DF01FEC0FF0520E0101C1
:102690009D6F650E9E6F610E9F6F640EA06F790E29
:1026A000A16FA26B010E0201256F9D0E246F020E19
:1026B000266F000171EC0DF03C0E0201206F8F0EB1
:1026C000216F0001C9EC0DF06F0E0201206F300E7A
:1026D000216F0001C9EC0DF05A0E0201206F550E5A
:1026E000216F0001C9EC0DF05C0E0201206F700E2D
:1026F000216F0001C9EC0DF0460E01019D6F720EB5
:102700009E6F650E9F6F710EA06FA16B010E02018F
:10271000256F9D0E246F030E266F00019EEC0DF0B9
:1027200092C1BBF191C1BAF145EF0FF00101BB6B52
:1027300094C1BAF1000188EF0FF09DEF0FF0520E37
:1027400001019D6F650E9E6F610E9F6F640EA06FFD
:10275000790EA16FA26B010E0201256F9D0E246FF1
:10276000030E266F000171EC0DF00101BD6B240E0C
:10277000BC6F740EBB6F900EBA6F000104D60101DE
:10278000BD6B240EBC6F740EBB6F900EBA6F000150
:102790004BD6010E0101DF6FD0C0E2F1CFC0E1F1F5
:1027A000CEC0E0F100012AEC0FF0070E0101DF6F4F
:1027B000EEC0E2F1EDC0E1F1ECC0E0F100012AEC85
:1027C0000FF00101DF6BF1C0E2F1F0C0E1F1EFC009
:1027D000E0F100012AEC0FF00101DF6BF4C0E2F13F
:1027E000F3C0E1F1F2C0E0F100012AEC0FF0070EB6
:1027F0000101DF6FF7C0E2F1F6C0E1F1F5C0E0F1F1
:1028000000012AEC0FF00101DF6BFAC0E2F1F9C020
:10281000E1F1F8C0E0F100012AEC0FF00101DF6BFB
:10282000FDC0E2F1FCC0E1F1FBC0E0F100012AECE7
:102830000FF0010E0101DF6F00C1E2F1FFC0E1F115
:10284000FEC0E0F100012AEC0FF0020E0101DF6F83
:1028500003C1E2F102C1E1F101C1E0F100012AECA2
:102860000FF00D0E0101BA6F00012FD60101376B79
:10287000366B356B346B3B6B3A6B396B7E0E386F56
:102880003F6B3E6B3D6B3C6F436B426B416B800E0D
:10289000406F050E446F486B476B466B456B496B49
:1028A00052695369546B556B230E0201206F020E5F
:1028B000216F0001C9EC0DF0250E0201206F216B84
:1028C0000001C9EC0DF0260E0201206F050E216FEC
:1028D0000001C9EC0DF0290E0201206F21690001F1
:1028E000C9EC0DF0380E0201206F400E216F00017F
:1028F000C9EC0DF03D0E0201206F020E216F0001A8
:10290000C9EC0DF0010E0101DF6F18C1E2F117C132
:10291000E1F116C1E0F100012AEC0FF0020E010115
:10292000DF6F15C1E2F114C1E1F113C1E0F1000163
:102930002AEC0FF0010E0101DF6F1BC1E2F11AC199
:10294000E1F119C1E0F100012AEC0FF0010EEA6E8D
:102950009D0EE96E1B0E016EF76A000E4AEC01F047
:102960000A000900F5CFEEFF012EFBD7010E020190
:10297000256F9D0E246F020E266F00019EEC0DF058
:1029800045EF1FF0E6C1EDF10101EA51ED1BEDAF9E
:1029900005D0D894D890E6BFD8802FD0E6C1EDF10D
:1029A000E9C1EEF1E551EE5F06E0EDAF26D0D8507B
:1029B000010AD86E22D0EAC1EEF1E651EE5F06E0E0
:1029C000EDAF1BD0D850010AD86E17D0EBC1EEF195
:1029D000E751EE5F06E0EDAF10D0D850010AD86E97
:1029E0000CD0ECC1EEF1E851EE5F06E0EDAF05D0A2
:1029F000D850010AD86E01D0D89000011200550EAF
:102A00000101DF6F0001D8EC0DF0010E0101DF6F55
:102A100012C1E2F111C1E1F110C1E0F100012AECB3
:102A20000FF0040E0101DF6F00011AEC0EF012002E
:102A30008E0E006EE4C101F0E3C102F0036A0152A0
:102A400009E102C001F0026A080E005E015202E1D3
:102A5000006A08D0D89001BE04D0023601360006C4
:102A6000F9D7019E12000101E751D8B471D0006E70
:102A7000EB51D8B46DD0002604E3810E002668E245
:102A800004D07F0E005E64E363E0E8C1EFF1EC5137
:102A9000EF1BE88FEC8FEA51EE03F4CFF1F1E9512F
:102AA000ED03F4CF03F0F3CFF0F1EE03F350F12791
:102AB000F450F023000E0322EA51ED03F350F12706
:102AC000F450F023000E026A03220222E851EE03C2
:102AD000F350F027F4500322000E0222E851ED03D8
:102AE000F3500326F4500222000E016A0122EA513B
:102AF000EC03F350F027F4500322000E02220122CF
:102B0000E951EC03F3500326F4500222000E012297
:102B1000E851EC03F3500226F4500122002A01BED2
:102B200005D0F0370336023601360006000EF0AF4E
:102B30000AD0032A02220122015005E1025003E1DA
:102B4000035001E1002AEFBF018EEFAF019E04D0D8
:102B5000006A016A026A036A00011200196AF2BE81
:102B6000198EF29E02016C6B3C0E6B6FBEC06EF252
:102B7000BDC06DF2000157EC02F019BEF28E02C02A
:102B8000E4F101C0E3F1000153DF03C0E2F102C050
:102B9000E1F101C0E0F100C0DFF10101E46BBCC074
:102BA000E3F1000145DFD892E2C1E8F1E1C1E7F1CC
:102BB000E0C1E6F1DFC1E5F103C0ECF102C0EBF1E9
:102BC00001C0EAF100C0E9F169EC10F003C0E2F1E4
:102BD00002C0E1F101C0E0F100C0DFF1BBC0E4F1EF
:102BE000BAC0E3F125DF03C0E6F102C0E5F101C0A0
:102BF000E4F100C0E3F103C0EAF102C0E9F101C071
:102C0000E8F100C0E7F16F0E0101EE6F120EED6FFB
:102C1000030EEC6F750EEB6F000125DFD892E2C159
:102C2000E8F1E1C1E7F1E0C1E6F1DFC1E5F103C0A0
:102C3000ECF102C0EBF101C0EAF100C0E9F169EC8E
:102C400010F003C0E2F102C0E1F101C0E0F100C008
:102C5000DFF1DFC100F0E0C101F0E1C102F0E2C14B
:102C600003F01200280E0201246F000154EC0BF057
:102C700001C0B9F10101B951040B006E00320032FC
:102C80003F0E001600C001F00001B4EF1AF0240E50
:102C90000201246F000154EC0BF0000ED8800154A7
:102CA0000101E46BE36F0001C3DE03C0C5F102C0A4
:102CB000C4F101C0C3F100C0C2F10101C96BC86B0E
:102CC000C76B800EC66F0001BAEC0FF003C033F182
:102CD00002C032F101C031F100C030F130C100F06A
:102CE00031C101F032C102F033C103F01BEF1BF020
:102CF0000101C051016ABF5D03E2BFC100F00CD009
:102D0000006A080EC16FBF370036C051005CD8B0F2
:102D1000006E0136C12FF7D700011200200E01010D
:102D2000BAA9300EBB6FB9C100F000AE08D0001ECA
:102D3000002A00C0B9F12D0EBB6FBA8FBA810150C5
:102D4000B9C1BFF1640EC06F0001D2DF00C0B9F19C
:102D5000300E01240101BC6FB9C1BFF10A0EC06F72
:102D60000001C6DF300E00240101BE6F300E0124C9
:102D7000BD6FBBC100F0300EBC5D04E0BA83BABFCA
:102D8000BA8512D0BBC1BCF1200EBB6F300EBD5D49
:102D900004E0BA81BABFBA8307D0D8A4BA8104E1EB
:102DA000BCC1BDF1200EBC6FBAB505D0BAB308D016
:102DB000BAB10BD00FD0BBC142F2000161EC0BF0F5
:102DC000BCC142F2000161EC0BF0BDC142F2000156
:102DD00061EC0BF0BEC142F2000161EC0BF055EF6B
:102DE0001BF0EFC1F1F1EEC1F0F10101F0C1E9FF1B
:102DF000F1C1EAFFEDC1ECFFED52ECC1EFFF020EB5
:102E0000F025E96E000EF121EA6EEC6AED52EF6AF0
:102E1000F0C101F0F1C102F00001B7EF17F0020EAE
:102E20000101E825E96E000EE921EA6EECCFEDF133
:102E3000ED52EFCFECF1EC530CE1ED530AE1020E51
:102E4000EA25E96E000EEB21EA6EEC6AED52EF6ABC
:102E50001BD0020EEA25016E000EEB21036EED6F12
:102E6000020EE825E96E000EE921EA6EECCF03F0D0
:102E7000ED52EFCFEEF1EDC1EAFF01C0E9FF03C073
:102E8000ECFFED52EEC1EFFF020EE825E96E000EF9
:102E9000E921EA6EEBC1ECFFED52EAC1EFFF000160
:102EA000C4EF17F00101EDC1E9FFEEC1EAFFF0C187
:102EB000ECFFED52EFC1EFFF00011200C1C0E3F1E2
:102EC000C0C0E2F10101E25303E1E353D8B485D07D
:102ED000E2C1E9FFE3C1EAFFECCFE9F1ED52EFCF48
:102EE000E8F1E9BF6ED0E2C1E9FFE3C1EAFFECCF50
:102EF000EBF1ED52EFCFEAF1E151EB5D62E303E17B
:102F0000E051EA5D5EE3E2C1E9FFE3C1EAFFECCF35
:102F1000E7F1ED52EFCFE6F1040EE025016E000E71
:102F2000E121036E0350E75D3EE303E1E651015CFE
:102F30003AE2E051E65DE86FE151E759E96F040ECE
:102F4000E85F000EE95B040EE225EA6F000EE32164
:102F5000EB6FE051EA27E151EB23E9C1EDF1E8C164
:102F6000ECF1EBC1EFF1EAC1EEF100013AD702C09A
:102F7000E5F101C0E4F1E3C1E9F1E2C1E8F1E5C145
:102F8000EBF1E4C1EAF14BD70101800EE125E96FD5
:102F9000E3C1EEF1E2C1EDF1F06FE0C1EFF100014C
:102FA00081DF0DD00101800EE725E96FE3C1EEF16D
:102FB000E2C1EDF1F06FE6C1EFF1000173DF010155
:102FC0000CD0020EE225E96E000EE321EA6EECCF92
:102FD000E3F1ED52EFCFE2F176D7E25307E1E353AD
:102FE00005E1000E016E026E08D007D0040EE22546
:102FF000016E000EE321036E026E00011200C1C0DB
:10300000F0F1C0C0EFF1020E0101EF25E96E000EF4
:10301000F021EA6EECCFF2F1ED52EFCFF1F1ED518C
:10302000F15D03E1EE51F25D0EE0020EEF25E96E77
:10303000000EF021EA6EECCFF0F1ED52EFCFEFF1A0
:103040000001E1D70101020EEF25016E000EF02113
:10305000036EF26F020EED25E96E000EEE21EA6EB0
:10306000ECCF03F0ED52EFCFF3F1F2C1EAFF01C074
:10307000E9FF03C0ECFFED52F3C1EFFFEE6BED6B28
:103080000001A2EF18F0C1C0E6F1C0C0E5F10101F6
:10309000E55303E1E653D8B47CD0E5C1E9FFE6C1CE
:1030A000EAFFECCFEEF1ED52EFCFEDF1EEBF63D0E2
:1030B000E5C1E9FFE6C1EAFFECCFEAF1ED52EFCF5F
:1030C000E9F1020EE525E96E000EE621EA6EECCF8D
:1030D000E8F1ED52EFCFE7F1E7C1E9FFE8C1EAFF20
:1030E000ECCFEEF1ED52EFCFEDF1EEBF36D0E9517E
:1030F000E525EF6FEA51E621F06F040EEF25016E32
:10310000000EF021036E0150E75D27E10350E85DFA
:1031100024E1E7C1E9FFE8C1EAFFECCFECF1ED52B1
:10312000EFCFEBF1040EEB25016E000EEC21036EE8
:103130000150E9270350EA23E8C1EEF1E7C1EDF1C0
:1031400000015DD7E6C1EEF1E5C1EDF1EAC1F0F1B4
:10315000E9C1EFF1A7DE0DD00101020EE525E96E10
:10316000000EE621EA6EECCFE6F1ED52EFCFE5F18D
:1031700000010DD00101020EE525E96E000EE621E9
:10318000EA6EECCFE6F1ED52EFCFE5F100017FD72B
:103190000101000106EF19F00101DF5304E1E053E2
:1031A00002E135D031D0040EDF5DE16F000EE05951
:1031B000E26FE1C1E9FFE2C1EAFFECCFE6F1ED52D7
:1031C000EFCFE5F1E6AF1DD0E1C1E9FFE2C1EAFFD3
:1031D000ECCFE6F1ED52EFCFE5F1000EE55DE36FE8
:1031E000800EE659E46FE2C1EEF1E1C1EDF1E4C118
:1031F000F0F1E3C1EFF1000155DE0101E06BDF6B9F
:1032000003D0E06BDF6B03D000013DD7010100016B
:1032100012005D0E0101DF6F0001D8EC0DF001011D
:10322000DF6B12C1E2F111C1E1F110C1E0F1000167
:103230002AEC0FF0030E0101DF6F00011AEC0EF013
:10324000FEEF19F0280E0201246F000154EC0BF080
:103250000150080B006E0032003200321F0E0016C3
:1032600000C001F00EEF1AF01FEC0FF00101CD6B62
:10327000CC6BCB6BCA6B050EC025010FDF6FE16B0A
:10328000E06F00011BDE02C0CFF101C0CEF10101F1
:10329000CEC1E9FFCFC1EAFF040EC025EF6EC351D6
:1032A000000809E2010ECE25E96E000ECF21EA6E7C
:1032B00053C1EFFF08D0010ECE25E96E000ECF21DD
:1032C000EA6EC2C1EFFFC551000809E2020ECE2529
:1032D000E96E000ECF21EA6E52C1EFFF08D0020E58
:1032E000CE25E96E000ECF21EA6EC4C1EFFF030EBA
:1032F000CE25E96E000ECF21EA6EC6C1EFFF040EA7
:10330000CE25E96E000ECF21EA6EC8C1EFFFCD6B6E
:10331000CC6BCB6BCA6BCD5333E1CC5331E1CB5388
:103320002FE1CA51C05D2CE3050ECA25DF6F000EE8
:10333000CB21E06F000ECC21E16F000ECD21E26FBA
:10334000CE51DF25016ECF51E021036E01C0E3F1C4
:10335000E46FBE51CA25E96EBF51CB21EA6EEFCFB3
:10336000E5F103C0EAFF01C0E9FFE5C1EFFF010E8F
:10337000CA27D8B0CB2BD8B4CC2BD8B4CD2BCBD735
:10338000050EC025DF6F0201226BCFC124F2CEC132
:1033900023F2256F0001A6EC0DF0010EEA6ED00EAF
:1033A000E96E0A0E016EF76A000EAAEC01F00A003F
:1033B0000900F5CFEEFF012EFBD7010E0201256FAC
:1033C000D00E246F020E266F00019EEC0DF0050E4C
:1033D0000101CE25DF6F000ECF21E06FE8CF25F28F
:1033E000DFC124F2020E0201266F000171EC0DF024
:1033F000CFC1E0F1CEC1DFF1CFDE0BD7AEEC15F0DF
:1034000003C0DDF102C0DCF101C0DBF100C0DAF184
:103410000101DE91DEB14ED0000114D70152D8B4C3
:1034200002D0010147D0CDEC0AF0AEEC15F003C09C
:10343000E2F102C0E1F101C0E0F100C0DFF1EACF4A
:10344000E4F1E9CFE3F1D88203C0E8F102C0E7F18B
:1034500001C0E6F100C0E5F1DDC1ECF1DCC1EBF14A
:10346000DBC1EAF1DAC1E9F169EC10F0E4C1EAFF8D
:10347000E3C1E9FF03C0E2F102C0E1F101C0E0F104
:1034800000C0DFF143C1E8F142C1E7F141C1E6F11B
:1034900040C1E5F103C0ECF102C0EBF101C0EAF17B
:1034A00000C0E9F1C2EC14F001E202E10101DE81A9
:1034B0000101B0D7C15305E00001FFEC14F004D0C6
:1034C000010100011FEC0FF0000E0101DEA1010E51
:1034D000016E00012FEF1CF001019891996B9A6B1E
:1034E0009C6B9B6B9F6B9E6B96C1E8F195C1E7F15E
:1034F00094C1E6F193C1E5F1EC6BEB6BEA6BE96B20
:103500000001C2EC14F008E13FC196F13EC195F113
:103510003DC194F13CC193F196C1E8F195C1E7F149
:1035200094C1E6F193C1E5F10101EC6BEB6BEA6B41
:10353000E96B0001C2EC14F0D8B479D0FFEC14F0C0
:10354000AEEC15F003C0C5F102C0C4F101C0C3F177
:1035500000C0C2F1A5EC11F001C099F1010198B1D0
:1035600067D0000132EF16F00152D8B402D0010149
:103570005FD0CDEC0AF0640E0201206F0001EFEC89
:103580000AF0640E01019B27000E9C23EA6BE96B95
:103590007A0EE86F880EE76F43C1EEF142C1EDF19C
:1035A00041C1ECF140C1EBF1000133EC15F003C077
:1035B000BCF102C0BBF101C0BAF100C0B9F19CC1BD
:1035C000E4F19BC1E3F118EC15F0BCC1E8F1BBC11B
:1035D000E7F1BAC1E6F1B9C1E5F103C0ECF102C00F
:1035E000EBF101C0EAF100C0E9F1C2EC14F001E234
:1035F0001DE1010EEA6EA40EE96E0A0E016EF76A75
:10360000000EB7EC01F00A000900F5CFEEFF012E25
:10361000FBD7010E0201256FA40E246F020E266F48
:10362000000171EC0DF001019881000197D70101B3
:10363000000147EF16F003C037F102C036F101C0B8
:1036400035F100C034F11FEC0FF0010198B176D1D3
:103650000201246B000154EC0BF001C09DF1010E3E
:10366000EA6EAE0EE96E0B0E016EF76A000EC4EC48
:1036700001F00A000900F5CFEEFF012EFBD7010E85
:103680000201256FAE0E246F020E266F00019EEC24
:103690000DF0010EC76FA00EC66F9DC1B9F1180ED7
:1036A0000101BA6F00018EEF16F0010E0201256FC5
:1036B000A00E246F020E266F000171EC0DF00101C7
:1036C0009D532CE0020E9D25B96FE16BE06F000168
:1036D0005EEC17F002C09FF101C09EF101019EC196
:1036E000E9FF9FC1EAFF9DC1EFFF010E9D259E25C9
:1036F000E96E000E9F21EA6EEF6A010E9E25B96FFA
:10370000000E9F21BA6F0201256B276FB9C126F207
:103710009DC128F200012BEC0BF001019D51040822
:1037200003E39F6B9E6B0AD1523D01D01CD0010E6A
:103730009E25E96E000E9F21EA6EEF3C01D013D06A
:10374000010E9E25E96E000E9F21EA6E5251EF5C3C
:103750000AE09FC1E0F19EC1DFF100011DDD010122
:103760009F6B9E6BC1D09253D8B4BED0040E9E25E1
:10377000E96E000E9F21EA6EEF50800BD8A4B4D002
:10378000010E9E25E96E000E9F21EA6EEF3C01D0EE
:10379000ABD048C1E8F147C1E7F146C1E6F145C108
:1037A000E5F1EC6BEB6BEA6BE96B0001C2EC14F03A
:1037B00022E048C1C5F147C1C4F146C1C3F145C1CA
:1037C000C2F10101C96BC86B7A0EC76F880EC66F54
:1037D0000001BAEC0FF003C0C5F102C0C4F101C092
:1037E000C3F100C0C2F1A5EC11F001C0B9F101C0F4
:1037F000BAF104EC0BF0210E0101AE6FAF6B020EBB
:103800009E25E96E000E9F21EA6EEFCFC1F1010EF9
:103810009E25E96E000E9F21EA6EEFCFC2F1030EE6
:103820009E25E96E000E9F21EA6EEFCFC4F1040ED3
:103830009E25E96E000E9F21EA6EEF508009BD6F54
:10384000010EBF6FAE0EBE6FC06BC36BC56BC76B97
:10385000BDC1C6F1010EC96FC86B000105D5020ECE
:1038600001019E25E96E000E9F21EA6E036AEF506A
:103870004A0FE96E010E0320EA6EEFCFB9F1030E95
:103880009E25E96E000E9F21EA6EEF50B95D12E1B0
:10389000040E9E25E96E000E9F21EA6EEFAC0AD061
:1038A0009FC1E0F19EC1DFF1000176DC01019F6B59
:1038B0009E6B1AD0020E9E25E96E000E9F21EA6EC5
:1038C000036AEF504A0F016E010E0322030E9E257C
:1038D000E96E000E9F21EA6EEFCFBBF103C0EAFF55
:1038E00001C0E9FFBBC1EFFF975328E19E5302E1FE
:1038F0009F5324E0010E9A6F040E9D5D9A5D17E2BE
:103900009A519E25016E000E9F21036E040E9A258A
:103910009E25E96E000E9F21EA6EEFCFBBF103C03A
:10392000EAFF01C0E9FFBBC1EFFF9A2BE5D79EC1BB
:10393000E9FF9FC1EAFF040EEF5CEF6E915304E0D4
:103940000001FFEC14F003D000011FEC0FF00101A7
:103950009EC101F09FC102F000016BEF1FF0CDECA2
:103960000AF0B3EC0AF0015209E00101985100019C
:10397000BF5D04E397C140F2A3EC0CF0C5EF1CF06F
:1039800094C197F195C198F1EAD7B4EF1FF0F86AA6
:10399000D09E078EFE0E006E040E016E020EE96EC2
:1039A000000EEA6EEE6A002EFDD7012EFBD7DD0E6B
:1039B000006E030E016E230EE96E050EEA6EEE6ACE
:1039C000002EFDD7012EFBD7010EBF6FC69A400E09
:1039D000C76E220EC66E949E9380898AEF0E926EF9
:1039E0009392C76BC66B020E0101916F050E926F29
:1039F000020E936F000141EC0AF003C0CAF002C04E
:103A0000C9F001C0C8F0020E0101916F030E926F60
:103A1000020E936F000141EC0AF003C0CDF002C02A
:103A2000CCF001C0CBF0020E0101916F926B936F4D
:103A3000000141EC0AF003C0D0F002C0CFF001C099
:103A4000CEF04E0E0101916F030E926F010E936F37
:103A5000000141EC0AF003C0D3F002C0D2F001C073
:103A6000D1F04E0E0101916F020E926F010E936F15
:103A7000000141EC0AF003C0D6F002C0D5F001C04D
:103A8000D4F02E0E0101916F070E926F010E936F0D
:103A9000000141EC0AF003C0D9F002C0D8F001C027
:103AA000D7F02E0E0101916F030E926F936F0001FC
:103AB00041EC0AF003C0DCF002C0DBF001C0DAF038
:103AC0003D0E0101916F926B010E936F000141EC6D
:103AD0000AF003C0DFF002C0DEF001C0DDF0110E1D
:103AE0000101916F070E926F010E936F000141EC7F
:103AF0000AF003C0E2F002C0E1F001C0E0F0110EF4
:103B00000101916F060E926F010E936F000141EC5F
:103B10000AF003C0E5F002C0E4F001C0E3F0110ECA
:103B20000101916F050E926F010E936F000141EC40
:103B30000AF003C0E8F002C0E7F001C0E6F0110EA1
:103B40000101916F926B050E936F000141EC0AF039
:103B500003C0EBF002C0EAF001C0E9F0190E010168
:103B6000916F050E926F030E936F000141EC0AF006
:103B700003C0EEF002C0EDF001C0ECF0190E01013F
:103B8000916F030E926F020E936F000141EC0AF0E9
:103B900003C0F1F002C0F0F001C0EFF0190E010116
:103BA000916F926B030E936F000141EC0AF003C01A
:103BB000F4F002C0F3F001C0F2F01A0E0101916FAF
:103BC000050E926F030E936F000141EC0AF003C0E3
:103BD000F7F002C0F6F001C0F5F01A0E0101916F86
:103BE000030E926F020E936F000141EC0AF003C0C6
:103BF000FAF002C0F9F001C0F8F01A0E0101916F5D
:103C0000926B030E936F000141EC0AF003C0FDF0CC
:103C100002C0FCF001C0FBF0370E0101916F070EEE
:103C2000926F010E936F000141EC0AF003C000F1A6
:103C300002C0FFF001C0FEF0370E0101916F050ECA
:103C4000926F020E936F000141EC0AF003C003F182
:103C500002C002F101C001F1370E0101916F040EA3
:103C6000926F010E936F000141EC0AF003C006F160
:103C700002C005F101C004F1370E0101916F030E7E
:103C8000926F010E936F000141EC0AF003C009F13D
:103C900002C008F101C007F1370E0101916F010E5A
:103CA000926F020E936F000141EC0AF003C00CF119
:103CB00002C00BF101C00AF1270E0101916F070E3E
:103CC000926F010E936F000141EC0AF003C00FF1F7
:103CD00002C00EF101C00DF1250E0101916F060E1B
:103CE000926F020E936F000141EC0AF003C012F1D3
:103CF00002C011F101C010F1250E0101916F040EF7
:103D0000926F020E936F000141EC0AF003C015F1AF
:103D100002C014F101C013F1250E0101916F020ED2
:103D2000926F936F000141EC0AF003C018F102C0DA
:103D300017F101C016F1250E0101916F926B020E71
:103D4000936F000141EC0AF003C01BF102C01AF1AD
:103D500001C019F1260E0101916F060E926F020E3D
:103D6000936F000141EC0AF003C01EF102C01DF187
:103D700001C01CF1260E0101916F040E926F020E1C
:103D8000936F000141EC0AF003C021F102C020F161
:103D900001C01FF1C150C00B0F09C16E070EB46EF8
:103DA000020EC16F700EC06F010E0201716F8C0E9A
:103DB000706F050E736F230E726F020E0501246F74
:103DC000D90E236F266B256B0001B86BB96B030E00
:103DD0000101706FAA0E716F2D0E726FD40E736F8A
:103DE000200E746F040E02012A6F2B6B000181EC10
:103DF0000AF0C150C00B0F09C16EE8EF0AF0E80EDF
:103E00000101BA6F000104EC0BF056EF0DF0015206
:103E10001DE1CDEC0AF0010EEA6E750EE96E0E0E94
:103E2000016EF76A000ED2EC01F00A000900F5CF2E
:103E3000EEFF012EFBD7010E0201256F750E246FD8
:103E4000020E266F000171EC0DF0DFD7040E0201A7
:103E50002A6F010E2B6F000181EC0AF0010E0101A7
:103E6000926F700E916F74C193F1040E946F010EF6
:103E7000956F996B1E0E986F840E976F800E966FDC
:103E80009B6B9A6B0001BFEF12F0010EEA6E830E7E
:103E9000E96E0A0E016EF76A000EE1EC01F00A000D
:103EA0000900F5CFEEFF012EFBD7010E0201256FB1
:103EB000830E246F030E266F000171EC0DF0010ECE
:103EC0000101916F926B966B956B946B936B976BF3
:103ED00000016CEF1AF002C08EF101C08DF10101FA
:103EE0008D5302E18E5346E08DC1E9FF8EC1EAFF9A
:103EF000EF5240E0010EEA6E830EE96E070E016E8E
:103F0000F76A000E0001EEEC01F00A000900F5CF9F
:103F1000EEFF012EFBD7010E0201256F830E246FE9
:103F2000020E266F000171EC0DF00101906B8F6B9A
:103F30008DC1E9FF8EC1EAFF010EEF5C905319E1DC
:103F40008F5D17E2010E8F25916F000E9021926F09
:103F50008D519125E96E8E519221EA6EEFCF94F149
:103F6000010E956F00010CD501018F2BD8B4902B59
:103F7000DFD71CD0010EEA6E830EE96E0A0E016EC9
:103F8000F76A000E0001FAEC01F00A000900F5CF13
:103F9000EEFF012EFBD7010E0201256F830E246F69
:103FA000020E266F000171EC0DF001018EC1E0F1EF
:103FB0008DC1DFF10001CCEC18F00A0E0201206F78
:0A3FC0000001EFEC0AF07BD70300CC
:020000040030CA
:0E00000024CE3E1E0087A1000FC00FE00F406F
:00000001FF
;PIC18LF4550
;CRC=EFAB  CREATED="01-jul.-23 18:41"
