:10000000E1EF1DF068961200046ED8CF05F0E0CF46
:1000100006F00001E9CF0CF0EACF07F0E1CF08F0DD
:10002000E2CF09F0D9CF0AF0DACF0BF0F3CF12F01C
:10003000F4CF13F0FACF14F0F5CF15F0F6CF16F099
:10004000F7CF17F000C00EF001C00FF002C010F0A3
:1000500003C011F0A0AA30EF00F0A1BAF1EF09F04F
:100060000EC000F00FC001F010C002F011C003F08C
:100070000CC0E9FF07C0EAFF078E08C0E1FF09C016
:10008000E2FF0AC0D9FF0BC0DAFF12C0F3FF13C0B2
:10009000F4FF14C0FAFF15C0F5FF16C0F6FF17C035
:1000A000F7FF045006C0E0FF05C0D8FF1000F76A54
:1000B000BE0FF66E000EF7220900F5501200000385
:1000C00002FFFFFFFFFFFFFFFFFFFFFFFFFFF76ADA
:1000D000DE0FF66E000EF7220900F550120000FF49
:1000E00002FFFFFFFFFFFFFFFFFFFFFFFFFFF76ABA
:1000F000FE0FF66E000EF7220900F55012004000C8
:100100000B004000000000000000000000000000A4
:100110000000000000000000000000000000F76A7E
:100120002E0FF66E010EF7220900F5501200400066
:10013000000040000000000000000000000000007F
:100140000000000000000000000000000000F76A4E
:100150005E0FF66E010EF7220900F550120009023B
:10016000430002010080FA090400000102020100BC
:1001700005240010010424020205240600010524C0
:10018000010001070581030B00FA09040100020ABE
:10019000000000070502024000010705820240003E
:1001A0000100F76AB20FF66E010EF7220900F55052
:1001B00012000200F76AC40FF66E010EF722090062
:1001C000F550120012171B20FFFFFFFFF76ADC0F2C
:1001D000F66E010EF7220900F5501200120110010F
:1001E0000200004005240B00000101020001F76A33
:1001F000FE0FF66E010EF7220900F55012000403FF
:100200000904080343004300530020034300430054
:1002100053002000550053004200200074006F007E
:1002200020005500410052005400F76A3A0FF66E64
:10023000020EF7220900F5501200496E69746961D7
:100240006C20636F6E662073746172747300F76A5A
:100250005E0FF66E020EF7220900F550120045728D
:10026000726F723A2049442064656C2052464D20DA
:10027000696E636F7272656374610000F76A8C0F58
:10028000F66E020EF7220900F55012004944204C88
:100290006F6F7000F76AA40FF66E020EF722090066
:1002A000F5501200496E697469616C20636F6E6667
:1002B000696775726174696F6E20656E640A00000B
:1002C000F76AD00FF66E020EF7220900F550120001
:1002D0004F50204C6F6F70203100F76AEA0FF66EB6
:1002E000020EF7220900F55012004F70657261741A
:1002F000696F6E204D6F646520636F756C646E74FA
:10030000206265207365740A0000F76A1A0FF66EA2
:10031000030EF7220900F55012004F50204C6F6F6A
:1003200070203200F76A340FF66E030EF7220900D0
:10033000F550120054696D656F7574206F6E204F13
:100340007065726174696F6E204D6F6465205365CE
:10035000740A0000F76A640FF66E030EF7220900B4
:10036000F55012005061796C6F61643A2000F76AB1
:100370007E0FF66E030EF7220900F5501200546945
:100380006D6564206F757400F76A980FF66E030E42
:10039000F7220900F55012004649464F204C454EC1
:1003A0003A200000F76AB40FF66E030EF722090038
:1003B000F5501200496420696E636F727265637450
:1003C0006F00F76AD20FF66E030EF7220900F550A0
:1003D0001200494E495420444F4E4500F76AEC0F35
:1003E000F66E030EF7220900F55012004573706592
:1003F00072616E646F006D92699468A402D0689413
:10040000FCD76898FDEF09F0400E0401016F040E5F
:100410000201526F180E52C203F4E8CF02F4880EA4
:100420000401006F046B040E076F580E066F000185
:10043000120070A002D0E8DF7090689A04EF0AF012
:100440006A6A689209EF0AF002015E915DBF5E81FF
:100450005D9F5D51100803E2000E016E1AD05EA18F
:100460000DD0036A5D51000122DEFF0802E1000E9B
:1004700001D0010E016E02010CD00BD0036A5D5158
:10048000000125DEFF0802E1000E01D0010E016E21
:10049000020100011200020163516503F3CF01F074
:1004A000F4CF00F06603F350002664516503F35067
:1004B0000020026E00011200036A02015C51700FFD
:1004C000E96E0F0E0320EA6EEF6A5CC25DF2000176
:1004D000BBDF015228E00201646B5CC263F2666B11
:1004E000080E656F0001D7DF020101C0E9FF040EAD
:1004F0000224EA6EEF6A646B5CC263F2666B080EFC
:10050000656F0001C8DF02C05EF201C05DF2040E3B
:1005100002015D27000E5E235DC2E9FF040E5E2529
:10052000EA6EEF6A00011200010E02015B6F5B517F
:100530000F0807E35BC25CF20001BEDF02015B2B28
:10054000F6D7000112000201556B546B250E536F54
:10055000800E526F52C22BF053C22CF02D6A2E6ABD
:10056000526B52C22FF0526B52C230F0080E526FD3
:1005700052C231F00001B66BB591336A326AB46B86
:100580001E90B76B1200286A276A0201516B515105
:1005900001080AE3036A5151290FE96E000E032096
:1005A000EA6EEF6A512BF3D70001CDDF1B6A010E13
:1005B0001C6E1A6A12006B6A696A6A6A686A6E6AF5
:1005C000706AB2DFE0DF160E706E68A602D01ADD28
:1005D000FCD79F0E6B6E3D0E696E6D9815DF030E96
:1005E000226E0EEF0AF0698469986D8213EF0AF0AB
:1005F000689C18EF0AF056C223F01200236812001C
:100600000201546B2750281033E054513F0830E367
:100610001D50000A000105E0020A0AE0010A0FE08D
:1006200014D026C003F0255092DDE8CF55F20DD04E
:1006300026C003F02550DBDDE8CF55F206D026C0FA
:1006400003F02550C3DDE8CF55F2252AD8B4262A79
:100650002750D8B42806270602015451542B580FAE
:10066000E96E040EEA6ED8B0EA2A55C2EFFFCAD787
:100670002750281004E15451400801E01A6A54C27E
:1006800056F20001B8DF12000201536B266A256A98
:100690001D6A04011B51010A000107E0030A0BE077
:1006A000010A0DE0220A27E03BD0286A120E276ECD
:1006B000030E1D6E37D0286A430E276E33D0020E0C
:1006C0001D6E0201536B04011A510201535D0BE2CE
:1006D00026C003F0255000018ADD2526000E2622C3
:1006E0000201532BF0D726C003F0255000017FDD17
:1006F000276E286A17D0036A04011A5100015ADDD7
:10070000256E266A253C02D0265208E026C003F05A
:1007100025501DDD276E286A05D002D06FDF11D06D
:100720006DDF0FD004011F5308E1285203E1275069
:100730001E5D03E2286A1EC427F0010E1A6E000136
:100740005FDFF5EF04F00201535306E1040E226E61
:100750000001EADEEBD00201050E226E040E566F98
:10076000980E556F010E546F54510F08D8A0DED06B
:1007700054C25CF20001A0DE0201576B036A5451BF
:100780000001A5DCFF0867E0040E0201576FD89056
:100790005435036A0001C3DC0900F5CF03F0020100
:1007A000586F03C059F2646B54C263F2666B080E53
:1007B000656F000170DE01C05BF2010E02010124D1
:1007C000016E000E0220036E01C0E9FF040E032437
:1007D000EA6E58C2EFFF646B54C263F2666B080E98
:1007E000656F000158DE01C05BF2020E02010124B8
:1007F000016E000E0220036E01C0E9FF040E032407
:10080000EA6E56C2ECFFED5255C2EFFFD890543558
:10081000036A000184DC0900F5CF03F002015527CB
:1008200003505623880E5A6F59A101D05A8159A3FB
:1008300001D05A83646B54C263F2666B080E656F15
:10084000000129DE020101C0E9FF040E0224EA6E64
:100850005AC2EFFF0001036A02015451000127DC74
:10086000FF0848E002015783646B54C263F2666B71
:10087000080E656F00010FDE02C05CF201C05BF282
:10088000040E02015B27000E5C23020E5B25016E45
:10089000000E5C21036E01C0E9FF040E0324EA6E22
:1008A00056C2ECFFED5255C2EFFFD8905435036AA3
:1008B00000011DDC0900F5CF03F0020155270350AC
:1008C0005623646B54C263F2666B080E656F0001B9
:1008D000E2DD02C05CF201C05BF2040E02015B27A4
:1008E000000E5C235BC2E9FF040E5C25EA6E400E3D
:1008F000EF6E000102015751060802E10E0E576F1C
:10090000036A5451000157EC00F0010803E00201B2
:1009100057890001036A02015451700FE96E0F0EEE
:100920000320EA6E57C2EFFF542B1ED70001EDEFF4
:1009300004F004011951000A00010DE0010A15E05C
:10094000020A21E0060A2CE0030A33E00E0A33E033
:10095000010A39E049D01CC058F40401596B020E59
:100960000201566F000147DE40D004011A2D08D065
:10097000010E1C160201566B00013DDE03D004017E
:1009800000013CDE32D004011A2D07D01C82020186
:10099000566B000130DE03D0040100012FDE25D0AC
:1009A000020E1A6E1AC424F00201566B000123DEF7
:1009B0001CD06AD61AD01BC058F4010E0201566F23
:1009C000000119DE12D004011A5101080BE31AC408
:1009D0001BF01AC453F20001B6D60201566B000197
:1009E0000ADE0401000101D009DE90EF06F01BC011
:1009F00053F204011951000A000105E00A0A0CE053
:100A0000010A2DE042D00401586B596B020E02011D
:100A1000566F0001F0DD3AD0020153531DE0010E84
:100A2000535D036A0001D1EC00F0016E04011C5D0E
:100A3000D8A002D0020110D0036A1C51290FE96E20
:100A4000000E0320EA6EEFCF58F4010E0201566F3C
:100A50000001D1DD03D002010001D0DD17D0020179
:100A6000535310E0036A04011C51290FE96E000E74
:100A70000320EA6E1AC4EFFF0201566B0001BBDDD2
:100A800003D002010001BADD01D0B8DD90EF06F01D
:100A90000201549153BF5481539F54A119D0646BE8
:100AA00053C263F2666B080E656F0001F4DC02C08E
:100AB00056F201C055F2040E02015527000E5623CE
:100AC00055C2E9FF040E5625EA6E880EEF6E0FD070
:100AD000646B53C263F2666B080E656F0001DBDC6A
:100AE000020101C0E9FF040E0224EA6EEF6A036A04
:100AF0005351700F016E0F0E032201C0E9FF03C0B6
:100B0000EAFFEF90000105EF06F00201549153BF98
:100B10005481539F54A119D0646B53C263F2666B26
:100B2000080E656F0001B7DC02C056F201C055F235
:100B3000040E02015527000E562355C2E9FF040E8C
:100B40005625EA6E840EEF6E10D0646B53C263F2CA
:100B5000666B080E656F00019EDC020101C0E9FFB3
:100B6000040E0224EA6E840EEF6E00010DEF06F013
:100B70000201549153BF5481539F54A119D0646B07
:100B800053C263F2666B080E656F000184DC02C01D
:100B900057F201C056F2040E02015627000E5723E9
:100BA00056C2E9FF040E5725EA6EEFCF55F210D07A
:100BB000646B53C263F2666B080E656F00016BDCF9
:100BC000020101C0E9FF040E0224EA6EEFCF55F2E4
:100BD00055AF02D055B502D0000E01D0010E016E06
:100BE000000119EF06F01CC45DF22EDC01522EE06C
:100BF00004011951010A000105E0020A0BE0030A91
:100C000011E023D01CC453F243D70201566B0001FC
:100C1000F2DC1CD01CC453F278D70201566B0001E1
:100C2000EADC14D00401586B596B1CC453F2000168
:100C30009FD7015204E0010E0401586F0001020E1B
:100C40000201566F0001D7DC01D0D8DC90EF06F02E
:100C5000FE0E236E120004011C2D01D002D01C5385
:100C600045E11FC454F21EC453F21951000A000199
:100C70000BE0010A0DE0210A0FE0010A12E0030A6D
:100C800023E0010A28E030D0010EB76FE1DF2DD05C
:100C900053C256F2B0DC29D0020EB76FB581D8DF4F
:100CA00024D0040EEA6E580EE96EE26A2B0EE16E55
:100CB000070E016EE6CFEEFF012EFCD7070E0201F4
:100CC000566F000198DC11D01AC4B6F00201566BC1
:100CD000000191DC0AD01AC433F01BC432F00201C7
:100CE000566B000188DC01D089DC0401000190EF23
:100CF00006F01A6A040118517F0B000A000107E090
:100D0000010A07E0030A07E0230A07E008D011D62A
:100D100007D06DD605D067D703D09DD701D06EDC44
:100D20008FEF09F00201646B54C263F2666B080E28
:100D3000656F00014BEC02F0020101C0E9FF040EF7
:100D40000224EA6EEFCF56F25551020806E156AD85
:100D500002D0556B02D0010E556F555103081CE1AE
:100D6000840E566F646B54C263F2666B080E656F37
:100D700000014BEC02F002C05AF201C059F2040E1D
:100D800002015927000E5A2359C2E9FF040E5A25C1
:100D9000EA6E840EEF6E07D0552D03D0C80E566F45
:100DA00002D0880E566FD8905435036A00018FEC3C
:100DB00000F00900F5CF03F00201576F03C058F2AD
:100DC000646B54C263F2666B080E656F00014BECF6
:100DD00002F001C059F2010E02010124016E000E61
:100DE0000220036E01C0E9FF040E0324EA6E57C21D
:100DF000EFFF58A101D0568158A301D05683646BF0
:100E000054C263F2666B080E656F00014BEC02F092
:100E1000020101C0E9FF040E0224EA6E56C2EFFF90
:100E200000011200036A02016251700FE96E0F0E99
:100E30000320EA6EEF521BE0646B62C263F2666BE2
:100E4000080E656F00014BEC02F002C064F201C0B5
:100E500063F2040E02016327000E642363C2E9FFFC
:100E6000040E6425EA6EEFCF65F265AF02D0000E86
:100E700001D0010E016E000112005DC262F2D2DFEC
:100E80000152D8B49BD00201646B5DC263F2666B01
:100E9000080E656F00014BEC02F002C063F201C066
:100EA00062F2040E02016227000E6323010E622526
:100EB000016E000E6321036E01C0E9FF040E0324DE
:100EC000EA6E5EC2EFFF6051020820E1646B5DC212
:100ED00063F2666B080E656F00014BEC02F002C016
:100EE00063F201C062F2040E02016227000E632366
:100EF00062C2E9FF040E6325EA6EEFCF61F261ADD5
:100F000002D0606B02D0010E606F1AD060510408ED
:100F100017E1646B5DC263F2666B080E656F0001DA
:100F20004BEC02F0020101C0E9FF040E0224EA6E5C
:100F3000EFCF61F261AD03D0010E606F01D0606B45
:100F4000602D03D0480E616F02D0080E616F646B94
:100F50005DC263F2666B080E656F00014BEC02F038
:100F600002C063F201C062F2040E02016227000EA9
:100F7000632362C2E9FF040E6325EA6E61C2EFFFDC
:100F8000646B5DC263F2666B080E656F00014BEC2B
:100F900002F002C063F201C062F2040E0201622795
:100FA000000E632362C2E9FF040E6325EA6EEF5070
:100FB0008009EF6E010E016E04D00001000E016E7B
:100FC000020100011200B751010A03E0030A08E020
:100FD0001BD00201566B0001FBEC02F0B76B15D081
:100FE000EA6A2B0EE96E040EE26E180EE16E070E31
:100FF000016EE6CFEEFF012EFCD7B76B0201566BF8
:101000000001FBEC02F001D0B76B43EF08F00201E6
:10101000646B54C263F2666B080E656F00014BECA3
:1010200002F002C056F201C055F2010E0201012485
:10103000016E000E0220036E01C0E9FF040E0324BE
:10104000EA6EEFCF01F0026A000137EF08F01E9060
:10105000020E0201546F556F000164DE3CEF08F090
:101060001E80206A020E0201546F0001D0D701C019
:101070001FF01F5201E1EBD74AEF08F00201535372
:1010800004E10001A0D706D002015351020803E198
:101090000001E6D702010001120054C26EFF0201F6
:1010A000545303E0040E226E02D0020E226E0001A1
:1010B0005FEF08F01B6A1A6A24C054F2EED769EF9A
:1010C00009F055C262F2AEDE015247E00201646BE4
:1010D00055C263F2666B080E656F00014BEC02F0BF
:1010E00002C05EF201C05DF2040E02015D27000E37
:1010F0005E23020E5D25016E000E5E21036E01C0AF
:10110000E9FF040E0324EA6EECCF5CF2ED52EFCF60
:101110005BF25CC2EAFF5BC2E9FF57C2E2FF56C264
:10112000E1FF59C202F058C201F0015202E0022A66
:1011300002D0025206E0E6CFEEFF012EFCD7022ECF
:10114000FAD755C25DF259C25FF258C25EF25AC276
:1011500060F2000192DE015002D0000E016E12001A
:1011600059C25FF258C25EF25BC261F25AC260F2CB
:10117000020161515F5D3CE303E15E51605D38E275
:101180005C516025016E5D516121036E5F51035C0E
:101190002FE303E101505E5D2BE25C515E275D5160
:1011A0005F235C5160275D5161235D5303E15C5116
:1011B00000081DE25E51D8B45F075E075FC263F2AC
:1011C0005EC262F26051D8B46107600761C2EAFF93
:1011D00060C2E9FFEFCF64F25FC2EAFF5EC2E9FFDF
:1011E00064C2EFFF5C51D8B45D075C07DED720D046
:1011F0005D5303E15C5100081BE25FC263F25E5184
:101200005E2BD8B45F2B626F61C2EAFF6051602B26
:10121000D8B4612BE96EEFCF64F263C2EAFF62C219
:10122000E9FF64C2EFFF5C51D8B45D075C07E0D70B
:1012300058C201F059C202F000011200B45336E066
:10124000B4C054F2020154513F0802E23F0E546F01
:10125000020E556F576B340E566F596B54C258F2CD
:10126000020E5A6F00012DDF015220E0036A0201D5
:101270005451340F016E000E032201C055F203C019
:1012800056F254510001B45D0201576F596B340E90
:10129000586F03C05BF201C05AF25D6B57C25CF23B
:1012A00000015EDF020154510001B45F1200C6DF8D
:1012B00070EF09F0020153530EE11A2C05D0000122
:1012C00000EC03F006D002011A50020803E100010D
:1012D000F1D6020106D05351020803E10001E7D71D
:1012E00002010001120021300201516F51335133CC
:1012F0001F0E511721524EE1040100513C0B020117
:10130000526F430E0401001702015251340825E1C7
:1013100004010451800B01E0046B0001EAD46D98D4
:10132000233C07D00201546B030E556F0001FADC19
:1013300012D00201546B020E556F0001F3DC2350F2
:10134000FE0809E002015D6B5F6B23C05EF2040ED4
:10135000606F000192DD1CD002015251040819E1B6
:10136000536B00018BDE0201546B020E556F0001BE
:10137000D9DC2350FE080CE0233C01D009D0020147
:101380005D6B5F6B23C05EF2010E606F000175DD67
:10139000020122D02150040812E12368536B00019E
:1013A00089DF233C01D009D002015D6B5F6B23C054
:1013B0005EF2020E606F000160DD0DD0020121B40B
:1013C00006D051C253F2000159DE05D0020151C2CC
:1013D00053F200016FDF0201000124EF0AF031EF48
:1013E0000AF0A19A2252D8B43CD06852D8B439D06D
:1013F00068A403D069B4FBEF01F06DB232D068AAE3
:1014000003D069BA19EF02F068A203D069B220EFE5
:1014100002F068A003D069B0DBEF02F068A803D047
:1014200069B8F3EF02F068AC03D069BCF8EF02F0E2
:101430000201506B68A60AD069A608D06CCF21F0D3
:10144000000102EC00F04FD703D0020106D00001EA
:1014500002015051502B0308EDE21EA003D0000101
:10146000BED70201000130EF00F00101926B946BD6
:101470008FC193F1926B9151925D05E2D8909437B0
:101480009481922BF8D79051016E04E0D890943754
:10149000012EFCD790C195F193C101F094C102F0E7
:1014A00095C103F00001120002012A51070B006EE2
:1014B0002A31016E013201321F0E011601502C2516
:1014C000E96E000E2D21EA6E016A012A002A01D080
:1014D0000136002EFDD72B5303E00150EF1203D04D
:1014E000011E0150EF16000112000201295302E112
:1014F000000E01D0010E28C22AF22B6F0F0E2D6FA5
:10150000890E2C6F0001D0DF28C22AF202012B6B5A
:101510000F0E2D6F920E2C6F0001C6DF12006D9220
:101520006D6A696A080E6F6E945030090101946EFD
:10153000226A196AF2BE198EF29E0001C3EC02F013
:1015400019BEF28EA5EF0AF0EAD7DDEF0AF01B50C4
:10155000016E1200196AF2BE198EF29EC3EC02F0FF
:1015600019BEF28E6D926D6A6D8C00D000D00000B5
:101570006D9C140E6F6E696A6D86010E226ECEEF41
:101580000AF0E5DF015207E0196AF2BE198EF29EF9
:1015900055DE19BEF28E6DB601D0DCD7222C0BD0F1
:1015A0006DBA09D0686A696AA08AC00EF212110E7B
:1015B000696E020E226E1200C7D7E3DF22500208C6
:1015C000FCE117EF20F0020EEA6E1E0EE96EEF50FE
:1015D0000EE00F0E016E006A002EFED7012EFBD723
:1015E0008F0E006E002EFED70000EF2EF2D71200F5
:1015F000B8C11EF2E8DF1200050E0201286F296B48
:10160000000173DF1200010E0201285F0DE3020EDC
:10161000EA6E280EE96EEF5007E0020E006E002E13
:10162000FED700D0EF2EF9D7000132EF0BF0050EF8
:101630000201286F010E296F000157DF120002011D
:10164000276B0001D9DF020123517F0B0001C16F1D
:10165000C950C1C0C9FFC730FEE3640E0201286F44
:101660000001D1D70201276B2651275D0EE22751D9
:101670002425E96E000E2521EA6EC950C968C730DD
:10168000FEE3C9CFEFFF272BEFD70001D0DF120019
:1016900022C223F20201256BC10E246F010E266FB8
:1016A0000001CDDFC1C001F012008E0E006EE2C15C
:1016B00001F0E1C102F0036A015209E102C001F048
:1016C000026A080E005E015202E1006A08D0D8905A
:1016D00001BE04D0023601360006F9D7019E120081
:1016E0000101E551D8B471D0006EE951D8B46DD084
:1016F000002604E3810E002668E204D07F0E005E1F
:1017000064E363E0E6C1EDF1EA51ED1BE68FEA8F99
:10171000E851EC03F4CFEFF1E751EB03F4CF03F022
:10172000F3CFEEF1EC03F350EF27F450EE23000E6D
:101730000322E851EB03F350EF27F450EE23000EA1
:10174000026A03220222E651EC03F350EE27F45022
:101750000322000E0222E651EB03F3500326F4505D
:101760000222000E016A0122E851EA03F350EE273B
:10177000F4500322000E02220122E751EA03F35043
:101780000326F4500222000E0122E651EA03F35030
:101790000226F4500122002A01BE05D0EE3703369E
:1017A000023601360006000EEEAF0AD0032A0222EE
:1017B0000122015005E1025003E1035001E1002A3A
:1017C000EDBF018EEDAF019E04D0006A016A026A8E
:1017D000036A000112000101B051B608B06F036A3C
:1017E000B1C1B4F1B18FD890B133B233B333033256
:1017F000023201320032B02FF6D7B4AF0BD0001E48
:10180000011E021E031E002AD8B4012AD8B4022ADF
:10181000D8B4032A000191EF0CF0D8B204D0010E25
:10182000EA6EB80EE96E006A016A026A036A010193
:10183000B86BB96BBA6BBB6BB751B611B511B411BC
:101840002CE0200EBC6FD890B037B137B237B33729
:10185000B837B937BA37BB37B751BB5D08E1B651B6
:10186000BA5D05E1B551B95D02E1B451B85D0FE370
:10187000B451B85FB551D8A0B53DB95FB651D8A045
:10188000B63DBA5FB751D8A0B73DBB5FD880003630
:10189000013602360336BC2FD6D7B8C1EFFFB9C127
:1018A000ECFFBAC1ECFFBBC1ECFF00011200C6C0E7
:1018B000EAFFC5C0E9FF3DC2EFFFE92AD8B4EA2A32
:1018C000EF6A0001C52BD8B4C62B1200E950010104
:1018D000A86FA751AA6F1BE0A6C1E8F1A5C1E7F167
:1018E000A4C1E6F1A3C1E5F1EC6BEB6B200EEA6F4E
:1018F000820EE96F0001F4DE03C0A6F102C0A5F17B
:1019000001C0A4F100C0A3F10101AA2FE5D7A6C12F
:10191000B3F1A5C1B2F1A4C1B1F1A3C1B0F100010D
:101920005AD703C0A6F102C0A5F101C0A4F100C0BE
:10193000A3F10101A6AF0DD0A807A88BA31FA41F78
:10194000A51FA61FA32BD8B4A42BD8B4A52BD8B4FD
:10195000A62B3B0EAF6F9A0EAE6FCA0EAD6FAC6B7F
:101960000A0EAA6FA751D8B4A82BD882010EEA6E2E
:10197000A30EE96EA6C1B3F1A5C1B2F1A4C1B1F144
:10198000A3C1B0F1AFC1B7F1AEC1B6F1ADC1B5F110
:10199000ACC1B4F1000141DF0150005213E101017B
:1019A000A729AA5DD8A402D000010CD0A8510DE04F
:1019B0000F0BAA5D01E043E2A8BF41D0A8BD05D04E
:1019C000200E37D0200E0101A817A8AB0FD0A89B7E
:1019D000A751D8A4A8070050A86F2D0E02013D6F93
:1019E000000165DF0101A851006EA86BA751AA5D37
:1019F0000DE10050A86F2E0E02013D6F000157DF70
:101A00000101A851006E200EA817000E300EA8ABE1
:101A100010D0A89BA751D8A4A8070050A86F2D0EDE
:101A200002013D6F000143DF0101A851006EA86B68
:101A3000300E002600C03DF2000139DF0101D892CE
:101A4000AFC1B3F1AEC1B2F1ADC1B1F1ACC1B0F152
:101A5000B76BB66BB56B0A0EB46F0001DEDE03C068
:101A6000AFF102C0AEF101C0ADF100C0ACF10101B7
:101A7000AA2F7BD70001B9EF0DF002013B91A0BA6C
:101A80003B81A09A0001B4517F0808E2196AF2BEB6
:101A9000198EF29E1EEC09F019BEF28EB4517F0829
:101AA00002E27F0EB46FB451B42B036A340FE96EB7
:101AB000000E0320EA6E3AC2EFFF02013BA101D003
:101AC000A08A000167EF0DF039C23AF2D6D787EF4E
:101AD0000DF0800ED880B45517E1196AF2BE198E48
:101AE000F29E020E0201626F000112EC07F019BEB5
:101AF000F28E015208E0196AF2BE198EF29E1EECB7
:101B000009F019BEF28EE5D738C239F2DDD792EF6F
:101B10000DF0EF520FE0EACF37F2E9CF36F2EFCF18
:101B200038F2D7D737C2EAFF36C2E9FFE92AD8B47C
:101B3000EA2AEFD7A5EF0DF024DD09DD015205E01B
:101B400035C2EAFF34C2E9FFE4D71200010EC66FC6
:101B5000980EC56FC90EE96E97C1A6F196C1A5F1A1
:101B600095C1A4F194C1A3F1060E0101A76F000174
:101B7000ADD6010E0201356F980E346F0001DCDF27
:101B8000E0EF0DF0100E0201226F000181DD01C0B7
:101B90008FF10101E26B8FC1E1F1000186DD03C02D
:101BA00093F102C092F101C091F100C090F103C025
:101BB00097F102C096F101C095F100C094F1C6D72B
:101BC00001018F51240802E0000E01D0010E016EC8
:101BD00000011FEF20F021C235F220C234F2ACDF49
:101BE0000A0E0201226F236B020E356F220E346F34
:101BF0000001A2DF12006EC128F2010E0201296F5E
:101C0000000173DC010E0101B86F0001F1DC6EC14F
:101C100028F20201296B000168DC050E0101B86F92
:101C20000001E6DCCCEF14F021C235F220C234F220
:101C300083DF12000201246B0001DEDC020120516F
:101C40008009256FC95025C2C9FFC730FEE3246B48
:101C50002351245D0FE224512125E96E000E22213B
:101C6000EA6EEFCF25F2C95025C2C9FFC730FEE3A7
:101C7000242BEED70001DBDC12001FC2C1F01EC214
:101C800020F20201226BC10E216F010E236F0001B1
:101C9000D1DFC1C001F01200010121BF12D02151DA
:101CA00011080FE25A0E02011E6FDDC11FF2000182
:101CB000E4DF5C0E02011E6FDDC11FF20001DDDFFB
:101CC0000101000112001EC222F2E2DC01C021F279
:101CD000020121511F15006E2051016E04E0D890C1
:101CE0000032012EFCD70050016E000112000201EB
:101CF00035BF11D00F0E006E343900160A0E005C8D
:101D000003E2300E002602D03551002600C03DF21D
:101D10000001CDDD02010F0E34170A0E345D02E220
:101D2000300E02D0359F3551342734C23DF20001C8
:101D3000BEDDE8EF0FF0EACF3CF2E9CF3BF2020163
:101D400035AF08D03B8F3BA93B2B341F351F342BBD
:101D5000D8B4352B3539F009376F3727E20F386F94
:101D6000320F3A6F35510F0B382738273A27E90FD2
:101D7000396F3927392734390F0B39273A27393743
:101D80003A373A1F3A3734510F0B3A273737070E95
:101D9000366F0A0E39073A27FDE338073927FDE386
:101DA00037073827FDE336073727FDE3020EEA6ED3
:101DB000360EE96E070E3B153B9DED523B1507E1D4
:101DC0003BB9EE523BB903D0200E006E21D0E9267C
:101DD000000EEA22E9503A0804E1EA50020801E163
:101DE0003B8DEF50006E08E13BBD06D03BB91DD0E6
:101DF0003BB702D0200E0BD03BAF06D02D0E006EAD
:101E0000ED503B9D3B9F04D03B873B99300E002615
:101E1000EACF35F2E9CF34F200C03DF2000147DDF0
:101E200035C2EAFF34C2E9FF0201EE503BADD2D722
:101E30000001D7EF0FF0EACF3CF2E9CF3BF202010D
:101E40003539F009376F3727E20F386F320F3A6FA5
:101E500035510F0B382738273A27E90F396F3927C3
:101E6000392734390F0B39273A2739373A373A1F90
:101E70003A3734510F0B3A273737070E366F0A0EB1
:101E800039073A27FDE338073927FDE337073827B5
:101E9000FDE336073727FDE3020EEA6E360EE96EE4
:101EA000070E3B153B9DE926000EEA22E9503A0851
:101EB00004E1EA50020801E13B8DEF50006E08E1B9
:101EC0003BBD06D03BB915D03BB702D0200E03D0A6
:101ED0003B873B99300E0026EACF35F2E9CF34F24A
:101EE00000C03DF20001E3DC35C2EAFF34C2E9FF85
:101EF0000201EE503BADDAD70001E8EF0FF002012E
:101F00002751100819E1020E0001C66F280EC56F97
:101F1000300E02013D6F0001CADC780E02013D6FF8
:101F20000001C5DC25C234F2370E0201356F000115
:101F3000DED600014DD002012751020829E1300E02
:101F4000286F620E296F336B335107081FE3020EAF
:101F50003325036A280FE96E020E0320EA6E070E8E
:101F6000D8803355006E26C237F225C236F20052B1
:101F700005E0D89037333633002EFBD7010E3617E5
:101F8000376B300E3625EF6E332BDED7326B21D018
:101F900027510A080EE1020E0001C66F280EC56F18
:101FA000100EE96E26C235F225C234F2C4D610D026
:101FB000020127510B080DE1020E0001C66F280E29
:101FC000C56F100EE96E26C235F225C234F233D742
:101FD0000201020E356F280E346F0001ADDDF9EFFE
:101FE0000FF00201266B20C225F221C227F2000168
:101FF00086D70A0E0201226F236B020E356F220E66
:10200000346F000199DD12000101DF6BDE6B0EC140
:1020100020F20DC11FF20CC11EF2000154DE01526C
:102020005BE1640E02011E6F0001E3EC0AF0640E36
:102030000101DE27000EDF230001C1EC0AF0010ED2
:10204000EA6EE00EE96E0A0E016EF76A000E60ECB1
:1020500001F00A000900F5CFEEFF012EFBD7010EBB
:102060000201216FE00E206F0001B5DD0101DF519B
:102070000A0830E2FF0A03E1DE51B7082BE2010E45
:10208000EA6EE00EE96E1F0E016EF76A000E0001A7
:102090006DEC01F00A000900F5CFEEFF012EFBD731
:1020A000010E0201216FE00E206F0001BDDD270E41
:1020B0000201226F000148EC0BF001C01EF201C0CA
:1020C00020F2020E0201216F00018BDFC1EC0AF049
:1020D000FDD701019CD70001010E0201226F000112
:1020E00048EC0BF001C055F1E30E01015517DD3549
:1020F000006E0036FC0E001600505513010E020152
:102100001E6F55C11FF20001B8DD0101DF6BDE6BF0
:102110000EC120F20DC11FF20CC11EF20001D3DD71
:1021200001526DE1C1EC0AF0640E02011E6F000164
:10213000E3EC0AF0640E0101DE27000EDF23010E3E
:10214000EA6EE9680A0E016EF76A000E000185EC7E
:1021500001F00A000900F5CFEEFF012EFBD7010EBA
:102160000201216F2069000136DD010E0201226F9C
:10217000000148EC0BF001C01EF201C020F2020E7B
:102180000201216F00012DDFDEC120F20A0E0201E3
:10219000216F000126DF0101DF510A082EE2FF0A4C
:1021A00003E1DE51B70829E2010EEA6EE9681F0E6D
:1021B000016EF76A000E000192EC01F00A000900BE
:1021C000F5CFEEFF012EFBD7010E0201216F206932
:1021D00000012ADD010E0201226F000148EC0BF024
:1021E00001C01EF201C020F2020E0201216F0001A7
:1021F000F8DEC1EC0AF0FDD701018AD70001120018
:10220000550E0101DD6F000147DD010E0101DD6F9B
:102210000001FADE1200DEC122F248EC0BF001C030
:10222000E1F10101DF51FF0AE117DDC100F0E051EA
:10223000016E04E0D8900036012EFCD70050E11367
:10224000DEC11EF2E1C11FF2000117DD1200010123
:10225000B8C1E9FFB9C1EAFFEFCFBAF1BA5304E060
:10226000B8530DE1B9530BE1DD6BD8C0E0F1D7C035
:10227000DFF1D6C0DEF10001CEDF2AD00101010E70
:10228000B825BB6F000EB921BC6F2F0E0201206F65
:10229000BCC122F2BBC121F2BAC123F20001CADCE7
:1022A000010E0101BA5DBB6FDD6FDBC0E0F1DAC08A
:1022B000DFF1D9C0DEF10001AEDF010E0101DD6FFB
:1022C000D8C0E0F1D7C0DFF1D6C0DEF10001A3DF56
:1022D0006CEF15F00101BB6BBB6B2C0E02011E6F86
:1022E000B9C11FF20001C9DC0101BB6B2D0E020157
:1022F0001E6FB8C11FF20001C0DC73EF15F06C0E49
:102300000101B86F400EBA6FB96B070E02011E6F64
:10231000B8C11FF20001B1DC080E02011E6FBAC184
:102320001FF20001AADC090E02011E6FB9C11FF2E3
:102330000001A3DC74EF15F00101C051D8B4A5D0A1
:10234000CC6FC451D8B4A1D0CC5F05E37F0ECC27AD
:10235000D8B09BD006D0810ECC5FD8A096D0D8B490
:1023600094D0CCC100F0016A026A036ACB6BC1C190
:10237000CAF1CA8FC2C1C9F1C3C1C8F1190ECC6F6D
:10238000C751C85F0DE2010EC95F0AE2CA5F08E2E9
:10239000CB5F06E2CB2BCA2BC92BC751C82728D04D
:1023A000C651C95F12E2010ECA5F0FE2CB5F0DE2B8
:1023B000CB2BCA2BC651C927C751C82719E3C92B34
:1023C00017E1CA2B15E1CB2B13D0C5518009CA5F89
:1023D0000EE2010ECB5F0BE2CB2BC5518009CA2761
:1023E000C651C927E9E3CA2BE7E1CB2BE5D7038028
:1023F000CC2F01D00BD0D890C837C937CA37CB37CC
:10240000D890033602360136CD37BAD7CDA106D0E3
:10241000D890013202320332CD3302D0000635E0CB
:10242000CDBF1ED0D890C837C937CA37CB37C751B0
:10243000C85F07E2010EC95F04E2CA5F02E2CB5F38
:102440001AE3C651C95F05E2010ECA5F02E2CB5F23
:1024500012E3C5518009CA5F03E2010ECB5F0BE3B3
:10246000032A09E1022A07E1012A05E1002A0DE019
:10247000013202320332C1C1CCF1C551CC1BCCAF09
:1024800002D0018E06D0019E04D0006A016A026A61
:10249000036A00011200800ED8A202D00101E81BDD
:1024A0000101ED6BEE6BE4C1ECF1E851EC1BE35183
:1024B000D8B4DFD0EB6F006EE751D8B4E3D0EB5F58
:1024C000D8B483D03EE3E8C1F1F1F18FE9C1F0F176
:1024D000EAC1EFF1EE6BD890F133F033EF33EE3326
:1024E000EB2FF8D7ECAF03D0ED81E0D0ED91EB917D
:1024F000ED89010EEA6EE60EE96EEBD0ED99ECBFC8
:102500000AD0EBA113D0F133F033EF33EE33002ACE
:10251000D8B4C7D00BD0F1BF0CD0D890EE37EF377E
:10252000F037F1370006D8B4BCD0F5D7ED8D6DD0BB
:10253000ED9DE4C1ECF1E4AF02D0F18FABD0F19F9F
:10254000A9D0E7C1EBF1E7C100F0E351EB5FE4C1D3
:10255000F1F1F18FE5C1F0F1E6C1EFF1EE6BD8904A
:10256000F133F033EF33EE33EB2FF8D7ECAF03D08A
:10257000ED839CD0ED93EB91ED8B010EEA6EEA0EAC
:10258000E96EA7D0ED9BECBF0AD0EBA113D0F133DD
:10259000F033EF33EE33002AD8B483D00BD0F1BF41
:1025A0000CD0D890EE37EF37F037F1370006D8B4BB
:1025B00078D0F5D7ED8F29D0ED9FE8C1ECF1E8AFE9
:1025C00002D0F18F67D0F19F65D0E8C1F1F1F18FB2
:1025D000E9C1F0F1EAC1EFF1ECAF04D0F19FED8574
:1025E00065D0ED95EE6BEB91010EEA6EE60EE96EAD
:1025F00070D0ECBF1CD0E4C1ECF1EBA106D0F133FC
:10260000F033EF33EE33002A4CE0EEAF0BD0EF2B7C
:1026100009E1F02B07E1F12B05E1F133F033EF3362
:10262000002A3FE0EDBD84D7EDBFC6D71CD0800E99
:10263000F11BF1AF04D03AD0E8C1ECF10AD0E4C10B
:10264000ECF1F15306E1F05304E1EF5302E1006ACB
:1026500021D0F1BF08D0D890EE37EF37F037F137FF
:10266000002EF7D71ED0ECAF02D0F18F13D0F19F20
:1026700011D0E7C100F0E8C1F1F1E9C1F0F1EAC120
:10268000EFF108D0E3C100F0E4C1F1F1E5C1F0F1F0
:10269000E6C1EFF1F1C101F0F0C102F0EFC103F0CA
:1026A00034D0006A016A026A036A2FD0EE6BEF1F12
:1026B000F01FF11FEE1FEE2B05E1EF2B03E1F02BD6
:1026C00001E1F12BEDB112D7EDB354D7EDB589D7B8
:1026D000B3D7EF50EF2705E3F02B03E1F12BD8B48C
:1026E000EB81ED52EF50F02703E3F12BD8B4EB81EF
:1026F000ED52EF50EFBE01D0800AF127D8B0EB8148
:10270000EDB9FCD6EDBB3ED774D7000112008E0E9A
:10271000006E0101C051005EC1C102F0C2C101F0F2
:10272000028E005209E0D890025202E1015204E008
:1027300002320132002EF7D7C1AF05D0011E021EB2
:10274000012AD8B4022A000112000101C36B240E31
:10275000C26F740EC16F970EC06FBBC1C7F1BAC113
:10276000C6F1B9C1C5F1B8C1C4F10001E5DD03C0CE
:10277000C3F102C0C2F101C0C1F100C0C0F1D892E2
:1027800003C0E6F102C0E5F101C0E4F100C0E3F1ED
:102790000101EA6BE96BE86B7E0EE76F00017BDEFF
:1027A00003C0C3F102C0C2F101C0C1F100C0C0F159
:1027B000AEDF01C0BCF10101BD6BBE6BBF6BC46B72
:1027C000030E02011E6FBDC11FF200013DEC0EF0B1
:1027D0000101C16BC26BC36B040E02011E6FBCC151
:1027E0001FF200013DEC0EF092EF15F0BBC1C3F1FA
:1027F000BAC1C2F1B9C1C1F1B8C1C0F10101C76B21
:10280000240EC66F740EC56F840EC46F000194DD74
:1028100003C0C3F102C0C2F101C0C1F100C0C0F1E8
:10282000D89203C0E6F102C0E5F101C0E4F100C0B6
:10283000E3F10101EA6BE96BE86B7E0EE76F0001E3
:102840002ADE03C0C3F102C0C2F101C0C1F100C061
:10285000C0F15DDF01C0BCF10101BD6BBE6BBF6BA0
:10286000C46B050E02011E6FBDC11FF200013DECDD
:102870000EF00101C16BC26BC36B060E02011E6F2D
:10288000BCC11FF200013DEC0EF09CEF15F0010100
:10289000B96BBA6BBB6BBC6B0001B5A323D0010E47
:1028A0000101BA6FB8BF03D0B8510D0804E3120E8E
:1028B000B825BC6F15D0B8BF0ED0B8510D080BE2CB
:1028C000B8BF03D0B851110806E3010EBB6F0E0E5E
:1028D000B825BC6F05D0010EBB6F0B0EB825BC6FC1
:1028E00007D00001010E0101B96F120EB825BC6FAF
:1028F000B9C1DDF1E1C0E0F1E0C0DFF1DFC0DEF140
:10290000000189DCBAC1DDF1E4C0E0F1E3C0DFF130
:10291000E2C0DEF180DCBBC1DDF1E7C0E0F1E6C082
:10292000DFF1E5C0DEF177DCBCC1DDF1EAC0E0F14A
:10293000E9C0DFF1E8C0DEF16EDCB8C121F109EFDA
:1029400016F001019A6B010EEA6E9B0EE96E140EF1
:10295000016EF76A000E000115EC01F00A00090093
:10296000F5CFEEFF012EFBD7010E0201216F9B0E6A
:10297000206F0001EBEC0DF00D0E0101216F91C1F4
:102980006EF10001B593010193A103D00001B5835D
:1029900001010001FBEF0DF0100E0201226F00019A
:1029A00048EC0BF001C09AF101019A51240835E07E
:1029B000010EEA6E9B0EE96E1D0E016EF76A000EA7
:1029C000000127EC01F00A000900F5CFEEFF012E0F
:1029D000FBD7010E0201216F9B0E206F0001EBEC73
:1029E0000DF0010EEA6E9B0EE96E080E016EF76A9D
:1029F000000E3EEC01F00A000900F5CFEEFF012EBB
:102A0000FBD7010E0201216F9B0E206F0001EBEC42
:102A10000DF0C1EC0AF0E5D70101490E9B6F640E81
:102A20009C6F6C0E9D6F650E9E6F9F6B010E020179
:102A3000216F9B0E206F000114EC0EF000EC11F0E2
:102A4000520E01019B6F650E9C6F610E9D6F640EAF
:102A50009E6F790E9F6FA06B010E0201216F9B0E7E
:102A6000206F0001EBEC0DF03C0E02011E6F8F0E8B
:102A70001F6F00013DEC0EF06F0E02011E6F300E55
:102A80001F6F00013DEC0EF05A0E02011E6F550E35
:102A90001F6F00013DEC0EF05C0E02011E6F700E08
:102AA0001F6F00013DEC0EF0460E01019B6F720E90
:102AB0009C6F650E9D6F710E9E6F9F6B010E0201E4
:102AC000216F9B0E206F000114EC0EF090C1B9F144
:102AD0008FC1B8F127EF11F00101B96B92C1B8F1C4
:102AE00000016AEF11F00BD4520E01019B6F650ECD
:102AF0009C6F610E9D6F640E9E6F790E9F6FA06B31
:102B0000010E0201216F9B0E206F0001EBEC0DF016
:102B10000101BB6B240EBA6F740EB96F900EB86FC3
:102B2000000113D60101BB6B240EBA6F740EB96F8E
:102B3000900EB86F00015AD6010E0101DD6FCFC0B3
:102B4000E0F1CEC0DFF1CDC0DEF100010BEC11F001
:102B5000070E0101DD6FEDC0E0F1ECC0DFF1EBC06D
:102B6000DEF100010BEC11F00101DD6BF0C0E0F1D2
:102B7000EFC0DFF1EEC0DEF100010BEC11F001015E
:102B8000DD6BF3C0E0F1F2C0DFF1F1C0DEF1000176
:102B90000BEC11F0070E0101DD6FF6C0E0F1F5C09E
:102BA000DFF1F4C0DEF100010BEC11F00101DD6B8F
:102BB000F9C0E0F1F8C0DFF1F7C0DEF100010BEC85
:102BC00011F00101DD6BFCC0E0F1FBC0DFF1FAC0E8
:102BD000DEF100010BEC11F0010E0101DD6FFFC011
:102BE000E0F1FEC0DFF1FDC0DEF100010BEC11F001
:102BF000020E0101DD6F02C1E0F101C1DFF100C190
:102C0000DEF100010BEC11F00D0E0101B86F0001B7
:102C10003ED60101366B356B346B336B3A6B396BD7
:102C2000386B7E0E376F3E6B3D6B3C6B3B6F426B80
:102C3000416B406B800E3F6F050E436F476B466BD9
:102C4000456B446B486B51695269536B546B230E4F
:102C500002011E6F020E1F6F00013DEC0EF0250EEB
:102C600002011E6F1F6B00013DEC0EF0260E0201EB
:102C70001E6F050E1F6F00013DEC0EF0290E0201C4
:102C80001E6F1F6900013DEC0EF0380E02011E6F31
:102C9000400E1F6F00013DEC0EF03D0E02011E6F55
:102CA000020E1F6F00013DEC0EF0010E0101DD6F01
:102CB00017C1E0F116C1DFF115C1DEF100010BEC27
:102CC00011F0020E0101DD6F14C1E0F113C1DFF15B
:102CD00012C1DEF100010BEC11F0010E0101DD6FFC
:102CE0001AC1E0F119C1DFF118C1DEF100010BECEE
:102CF00011F0010EEA6E9B0EE96E1B0E016EF76A73
:102D0000000E4AEC01F00A000900F5CFEEFF012E9B
:102D1000FBD7010E0201216F9B0E206F000114EC06
:102D20000EF05BEF20F0E4C1EBF10101E851EB1B89
:102D3000EBAF05D0D894D890E4BFD8802FD0E4C1B1
:102D4000EBF1E7C1ECF1E351EC5F06E0EBAF26D02D
:102D5000D850010AD86E22D0E8C1ECF1E451EC5F02
:102D600006E0EBAF1BD0D850010AD86E17D0E9C1EE
:102D7000ECF1E551EC5F06E0EBAF10D0D850010A62
:102D8000D86E0CD0EAC1ECF1E651EC5F06E0EBAF97
:102D900005D0D850010AD86E01D0D8900001120099
:102DA000550E0101DD6F00014CEC0EF0010E01012A
:102DB000DD6F11C1E0F110C1DFF10FC1DEF10001E3
:102DC0000BEC11F0040E0101DD6F000104EC10F0BA
:102DD0001200196AF2BE198EF29E0201646B3C0E5B
:102DE000636FBEC066F2BDC065F200014BEC02F03D
:102DF00019BEF28E02C0E2F101C0E1F1000155EC12
:102E00000BF003C0E0F102C0DFF101C0DEF100C051
:102E1000DDF10101E26BBCC0E1F1000155EC0BF00A
:102E2000D892E0C1E6F1DFC1E5F1DEC1E4F1DDC138
:102E3000E3F103C0EAF102C0E9F101C0E8F100C02A
:102E4000E7F14BEC12F003C0E0F102C0DFF101C08A
:102E5000DEF100C0DDF1BBC0E2F1BAC0E1F155EC3A
:102E60000BF003C0E4F102C0E3F101C0E2F100C0E5
:102E7000E1F103C0E8F102C0E7F101C0E6F100C0F2
:102E8000E5F16F0E0101EC6F120EEB6F030EEA6FAE
:102E9000750EE96F000170EC0BF0D892E0C1E6F11D
:102EA000DFC1E5F1DEC1E4F1DDC1E3F103C0EAF128
:102EB00002C0E9F101C0E8F100C0E7F14BEC12F00B
:102EC00003C0E0F102C0DFF101C0DEF100C0DDF1BE
:102ED000DDC100F0DEC101F0DFC102F0E0C103F0AE
:102EE0001200280E0201226F000148EC0BF001C015
:102EF000B7F10101B751040B006E003200323F0EF2
:102F0000001600C001F00001EDEF1BF0240E0201DD
:102F1000226F000148EC0BF0000ED8800154010133
:102F2000E26BE16F000155EC0BF003C0C3F102C08E
:102F3000C2F101C0C1F100C0C0F10101C76BC66B95
:102F4000C56B800EC46F00019CEC11F003C032F120
:102F500002C031F101C030F100C02FF12FC100F0EB
:102F600030C101F031C102F032C103F052EF1CF068
:102F70000101BE51016ABD5D03E2BDC100F00CD08C
:102F8000006A080EBF6FBD370036BE51005CD8B076
:102F9000006E0136BF2FF7D700011200200E01018D
:102FA000B8A9300EB96FB7C100F000AE08D0001E4E
:102FB000002A00C0B7F12D0EB96FB88FB88101504B
:102FC000B7C1BDF1640EBE6F0001D2DF00C0B7F122
:102FD000300E01240101BA6FB7C1BDF10A0EBE6FF8
:102FE0000001C6DF300E00240101BC6F300E012449
:102FF000BB6FB9C100F0300EBA5D04E0B883B8BF52
:10300000B88512D0B9C1BAF1200EB96F300EBB5DD0
:1030100004E0B881B8BFB88307D0D8A4B88104E170
:10302000BAC1BBF1200EBA6FB8B505D0B8B308D09D
:10303000B8B10BD00FD0B9C13DF2000157EC0CF084
:10304000BAC13DF2000157EC0CF0BBC13DF20001EA
:1030500057EC0CF0BCC13DF2000157EC0CF08AEFCC
:103060001CF0EDC1EFF1ECC1EEF10101EEC1E9FFA1
:10307000EFC1EAFFEBC1ECFFED52EAC1EFFF020E38
:10308000EE25E96E000EEF21EA6EEC6AED52EF6A72
:10309000EEC101F0EFC102F00001F7EF18F0020EEF
:1030A0000101E625E96E000EE721EA6EECCFEBF1B7
:1030B000ED52EFCFEAF1EA530CE1EB530AE1020ED5
:1030C000E825E96E000EE921EA6EEC6AED52EF6A3E
:1030D0001BD0020EE825016E000EE921036EEB6F96
:1030E000020EE625E96E000EE721EA6EECCF03F052
:1030F000ED52EFCFECF1EBC1EAFF01C0E9FF03C0F5
:10310000ECFFED52ECC1EFFF020EE625E96E000E7A
:10311000E721EA6EE9C1ECFFED52E8C1EFFF0001E3
:1031200004EF19F00101EBC1E9FFECC1EAFFEEC1C8
:10313000ECFFED52EDC1EFFF00011200C0C0E1F164
:10314000BFC0E0F10101E05303E1E153D8B485D001
:10315000E0C1E9FFE1C1EAFFECCFE7F1ED52EFCFCB
:10316000E6F1E7BF6ED0E0C1E9FFE1C1EAFFECCFD5
:10317000E9F1ED52EFCFE8F1DF51E95D62E303E100
:10318000DE51E85D5EE3E0C1E9FFE1C1EAFFECCFBB
:10319000E5F1ED52EFCFE4F1040EDE25016E000EF5
:1031A000DF21036E0350E55D3EE303E1E451015C82
:1031B0003AE2DE51E45DE66FDF51E559E76F040E58
:1031C000E65F000EE75B040EE025E86F000EE121EC
:1031D000E96FDE51E827DF51E923E7C1EBF1E6C1F2
:1031E000EAF1E9C1EDF1E8C1ECF100013AD702C022
:1031F000E3F101C0E2F1E1C1E7F1E0C1E6F1E3C1D1
:10320000E9F1E2C1E8F14BD70101800EDF25E76F5C
:10321000E1C1ECF1E0C1EBF1EE6FDEC1EDF10001D7
:1032200081DF0DD00101800EE525E76FE1C1ECF1F2
:10323000E0C1EBF1EE6FE4C1EDF1000173DF0101DC
:103240000CD0020EE025E96E000EE121EA6EECCF13
:10325000E1F1ED52EFCFE0F176D7E05307E1E15332
:1032600005E1000E016E026E08D007D0040EE025C5
:10327000016E000EE121036E026E00011200C0C05B
:10328000EEF1BFC0EDF1020E0101ED25E96E000E79
:10329000EE21EA6EECCFF0F1ED52EFCFEFF1EB5112
:1032A000EF5D03E1EC51F05D0EE0020EED25E96EFD
:1032B000000EEE21EA6EECCFEEF1ED52EFCFEDF124
:1032C0000001E1D70101020EED25016E000EEE2195
:1032D000036EF06F020EEB25E96E000EEC21EA6E34
:1032E000ECCF03F0ED52EFCFF1F1F0C1EAFF01C0F6
:1032F000E9FF03C0ECFFED52F1C1EFFFEC6BEB6BAC
:103300000001E2EF19F0C0C0E4F1BFC0E3F1010138
:10331000E35303E1E453D8B47CD0E3C1E9FFE4C153
:10332000EAFFECCFECF1ED52EFCFEBF1ECBF63D065
:10333000E3C1E9FFE4C1EAFFECCFE8F1ED52EFCFE2
:10334000E7F1020EE325E96E000EE421EA6EECCF10
:10335000E6F1ED52EFCFE5F1E5C1E9FFE6C1EAFFA5
:10336000ECCFECF1ED52EFCFEBF1ECBF36D0E75103
:10337000E325ED6FE851E421EE6F040EED25016EBB
:10338000000EEE21036E0150E55D27E10350E65D7E
:1033900024E1E5C1E9FFE6C1EAFFECCFEAF1ED5235
:1033A000EFCFE9F1040EE925016E000EEA21036E6C
:1033B0000150E7270350E823E6C1ECF1E5C1EBF14A
:1033C00000015DD7E4C1ECF1E3C1EBF1E8C1EEF13E
:1033D000E7C1EDF1A7DE0DD00101020EE325E96E94
:1033E000000EE421EA6EECCFE4F1ED52EFCFE3F111
:1033F00000010DD00101020EE325E96E000EE4216B
:10340000EA6EECCFE4F1ED52EFCFE3F100017FD7AC
:103410000101000146EF1AF00101DD5304E1DE5322
:1034200002E135D031D0040EDD5DDF6F000EDE59D4
:10343000E06FDFC1E9FFE0C1EAFFECCFE4F1ED525C
:10344000EFCFE3F1E4AF1DD0DFC1E9FFE0C1EAFF58
:10345000ECCFE4F1ED52EFCFE3F1000EE35DE16F6D
:10346000800EE459E26FE0C1ECF1DFC1EBF1E2C1A3
:10347000EEF1E1C1EDF1000155DE0101DE6BDD6B26
:1034800003D0DE6BDD6B03D000013DD701010001ED
:1034900012005D0E0101DD6F00014CEC0EF0010128
:1034A000DD6B11C1E0F110C1DFF10FC1DEF10001F0
:1034B0000BEC11F0030E0101DD6F000104EC10F0C4
:1034C00039EF1BF0280E0201226F000148EC0BF0CF
:1034D0000150080B006E0032003200321F0E001641
:1034E00000C001F049EF1BF000EC11F00101CB6BC3
:1034F000CA6BC96BC86B050EBE25010FDD6FDF6B94
:10350000DE6F00011BDE02C0CDF101C0CCF1010174
:10351000CCC1E9FFCDC1EAFF040EBE25EF6EC1515B
:10352000000809E2010ECC25E96E000ECD21EA6EFD
:1035300052C1EFFF08D0010ECC25E96E000ECD215F
:10354000EA6EC0C1EFFFC351000809E2020ECC25AC
:10355000E96E000ECD21EA6E51C1EFFF08D0020ED8
:10356000CC25E96E000ECD21EA6EC2C1EFFF030E3D
:10357000CC25E96E000ECD21EA6EC4C1EFFF040E2A
:10358000CC25E96E000ECD21EA6EC6C1EFFFCB6BF4
:10359000CA6BC96BC86BCB5333E1CA5331E1C95312
:1035A0002FE1C851BE5D2CE3050EC825DD6F000E6E
:1035B000C921DE6F000ECA21DF6F000ECB21E06F44
:1035C000CC51DD25016ECD51DE21036E01C0E1F14C
:1035D000E26FBC51C825E96EBD51C921EA6EEFCF3B
:1035E000E3F103C0EAFF01C0E9FFE3C1EFFF010E11
:1035F000C827D8B0C92BD8B4CA2BD8B4CB2BCBD7BB
:10360000050EBE25DD6F0201206BCDC122F2CCC1BB
:1036100021F2236F00011AEC0EF0010EEA6ECE0EBD
:10362000E96E0A0E016EF76A000EAAEC01F00A00BC
:103630000900F5CFEEFF012EFBD7010E0201216F2D
:10364000CE0E206F000114EC0EF0050E0101CC250A
:10365000DD6F000ECD21DE6FE8CF21F2DDC120F25B
:103660000001EBEC0DF0CDC1DEF1CCC1DDF1D4DE1B
:1036700010D7E9EC16F003C0DBF102C0DAF101C0AB
:10368000D9F100C0D8F10101DC91DCB14ED00001CC
:1036900019D70152D8B402D0010147D0C1EC0AF0C9
:1036A000E9EC16F003C0E0F102C0DFF101C0DEF189
:1036B00000C0DDF1EACFE2F1E9CFE1F1D88203C049
:1036C000E6F102C0E5F101C0E4F100C0E3F1DBC1C5
:1036D000EAF1DAC1E9F1D9C1E8F1D8C1E7F14BEC7F
:1036E00012F0E2C1EAFFE1C1E9FF03C0E0F102C06C
:1036F000DFF101C0DEF100C0DDF142C1E6F141C100
:10370000E5F140C1E4F13FC1E3F103C0EAF102C0D9
:10371000E9F101C0E8F100C0E7F193EC16F001E235
:1037200002E10101DC810101B0D7BF5305E00001D6
:10373000D0EC16F004D00101000100EC11F0000EF5
:103740000101DCA1010E016E000161EF1DF001011C
:103750009691976B986B9D6B9C6B94C1E6F193C1AE
:10376000E5F192C1E4F191C1E3F1EA6BE96BE86B39
:10377000E76B000193EC16F008E13EC194F13DC106
:1037800093F13CC192F13BC191F194C1E6F193C137
:10379000E5F192C1E4F191C1E3F10101EA6BE96B5A
:1037A000E86BE76B000193EC16F0D8B477D0D0EC5F
:1037B00016F0E9EC16F003C0C3F102C0C2F101C07B
:1037C000C1F100C0C0F187EC13F001C097F1010115
:1037D00096B165D0000171EF17F00152D8B402D054
:1037E00001015DD0C1EC0AF0640E02011E6F000100
:1037F000E3EC0AF0640E01019927000E9A23E86BAE
:10380000E76B7A0EE66F880EE56F42C1ECF141C1BD
:10381000EBF140C1EAF13FC1E9F1000170EC0BF0BE
:1038200003C0BAF102C0B9F101C0B8F100C0B7F1EC
:103830009AC1E2F199C1E1F155EC0BF0BAC1E6F1A0
:10384000B9C1E5F1B8C1E4F1B7C1E3F103C0EAF1F0
:1038500002C0E9F101C0E8F100C0E7F193EC16F015
:1038600001E21BE1010EEA6EA20EE96E0A0E016E84
:10387000F76A000EB7EC01F00A000900F5CFEEFF81
:10388000012EFBD7010E0201216FA20E206F000155
:10389000EBEC0DF001019681000199D701010001C7
:1038A00086EF17F003C036F102C035F101C034F1E4
:1038B00000C033F100EC11F0010196B171D10201A9
:1038C000226B000148EC0BF001C09BF1010EEA6E87
:1038D000AC0EE96E0B0E016EF76A000EC4EC01F03F
:1038E0000A000900F5CFEEFF012EFBD7010E020101
:1038F000216FAC0E206F000114EC0EF0010EC66FAC
:103900009E0EC56F9BC1B7F1180E0101B86F000183
:10391000CEEF17F0010E0201216F9E0E206F000105
:10392000EBEC0DF001019B532BE0020E9B25B76FD2
:10393000DF6BDE6F000102DC02C09DF101C09CF173
:1039400001019CC1E9FF9DC1EAFF9BC1EFFF010E90
:103950009B259C25E96E000E9D21EA6EEF6A010E03
:103960009C25B76F000E9D21B86F0201236B256F58
:10397000B7C124F29BC126F200011FEC0BF001013C
:103980009B51040803E39D6B9C6B0AD1513D01D010
:103990001CD0010E9C25E96E000E9D21EA6EEF3CC5
:1039A00001D013D0010E9C25E96E000E9D21EA6E18
:1039B0005151EF5C0AE09DC1DEF19CC1DDF10001D7
:1039C0002BDD01019D6B9C6BC1D09053D8B4BED050
:1039D000040E9C25E96E000E9D21EA6EEF50800BCF
:1039E000D8A4B4D0010E9C25E96E000E9D21EA6E8C
:1039F000EF3C01D0ABD047C1E6F146C1E5F145C18E
:103A0000E4F144C1E3F1EA6BE96BE86BE76B0001B9
:103A100093EC16F022E047C1C3F146C1C2F145C1A3
:103A2000C1F144C1C0F10101C76BC66B7A0EC56F0D
:103A3000880EC46F00019CEC11F003C0C3F102C0FA
:103A4000C2F101C0C1F100C0C0F187EC13F001C0A8
:103A5000B7F101C0B8F1F8EC0AF0210E0101AC6F2A
:103A6000AD6B020E9C25E96E000E9D21EA6EEFCF34
:103A7000BFF1010E9C25E96E000E9D21EA6EEFCF8D
:103A8000C0F1030E9C25E96E000E9D21EA6EEFCF7A
:103A9000C2F1040E9C25E96E000E9D21EA6EEF50E6
:103AA0008009BB6F010EBD6FAC0EBC6FBE6BC16BEE
:103AB000C36BC56BBBC1C4F1010EC76FC66B000100
:103AC00013D5020E01019C25E96E000E9D21EA6EC0
:103AD000036AEF50490FE96E010E0320EA6EEFCF43
:103AE000B7F1030E9C25E96E000E9D21EA6EEF50A2
:103AF000B75D12E1040E9C25E96E000E9D21EA6E71
:103B0000EFAC0AD09DC1DEF19CC1DDF1000184DC87
:103B100001019D6B9C6B1AD0020E9C25E96E000E74
:103B20009D21EA6E036AEF50490F016E010E0322D8
:103B3000030E9C25E96E000E9D21EA6EEFCFB9F1D0
:103B400003C0EAFF01C0E9FFB9C1EFFF955328E1C7
:103B50009C5302E19D5324E0010E986F040E9B5D7F
:103B6000985D17E298519C25016E000E9D21036E11
:103B7000040E98259C25E96E000E9D21EA6EEFCF7C
:103B8000B9F103C0EAFF01C0E9FFB9C1EFFF982B0B
:103B9000E5D79CC1E9FF9DC1EAFF040EEF5CEF6E23
:103BA0008F5304E00001D0EC16F003D0000100ECCC
:103BB00011F001019CC101F09DC102F000017FEFF5
:103BC00020F0F86AD09E078EFE0E006E040E016E85
:103BD000020EE96E000EEA6EEE6A002EFDD7012E8F
:103BE000FBD7DD0E006E030E016E230EE96E050E8F
:103BF000EA6EEE6A002EFDD7012EFBD7C69A400E64
:103C0000C76E220EC66E949E9380898AEF0E926EC6
:103C10009392C66BC56B020E01018F6F050E906FFC
:103C2000020E916F000135EC0AF003C0C9F002C02A
:103C3000C8F001C0C7F0020E01018F6F030E906F34
:103C4000020E916F000135EC0AF003C0CCF002C007
:103C5000CBF001C0CAF0020E01018F6F906B916F23
:103C6000000135EC0AF003C0CFF002C0CEF001C075
:103C7000CDF04E0E01018F6F030E906F010E916F0C
:103C8000000135EC0AF003C0D2F002C0D1F001C04F
:103C9000D0F04E0E01018F6F020E906F010E916FEA
:103CA000000135EC0AF003C0D5F002C0D4F001C029
:103CB000D3F02E0E01018F6F070E906F010E916FE2
:103CC000000135EC0AF003C0D8F002C0D7F001C003
:103CD000D6F02E0E01018F6F030E906F916F0001D1
:103CE00035EC0AF003C0DBF002C0DAF001C0D9F015
:103CF0003D0E01018F6F906B010E916F000135EC4D
:103D00000AF003C0DEF002C0DDF001C0DCF0110EED
:103D100001018F6F070E906F010E916F000135EC5E
:103D20000AF003C0E1F002C0E0F001C0DFF0110EC4
:103D300001018F6F060E906F010E916F000135EC3F
:103D40000AF003C0E4F002C0E3F001C0E2F0110E9B
:103D500001018F6F050E906F010E916F000135EC20
:103D60000AF003C0E7F002C0E6F001C0E5F0110E72
:103D700001018F6F906B050E916F000135EC0AF019
:103D800003C0EAF002C0E9F001C0E8F0190E010139
:103D90008F6F050E906F030E916F000135EC0AF0E6
:103DA00003C0EDF002C0ECF001C0EBF0190E010110
:103DB0008F6F030E906F020E916F000135EC0AF0C9
:103DC00003C0F0F002C0EFF001C0EEF0190E0101E7
:103DD0008F6F906B030E916F000135EC0AF003C0FA
:103DE000F3F002C0F2F001C0F1F01A0E01018F6F82
:103DF000050E906F030E916F000135EC0AF003C0C1
:103E0000F6F002C0F5F001C0F4F01A0E01018F6F58
:103E1000030E906F020E916F000135EC0AF003C0A3
:103E2000F9F002C0F8F001C0F7F01A0E01018F6F2F
:103E3000906B030E916F000135EC0AF003C0FCF0AB
:103E400002C0FBF001C0FAF0370E01018F6F070EC0
:103E5000906F010E916F000135EC0AF003C0FFF086
:103E600002C0FEF001C0FDF0370E01018F6F050E9C
:103E7000906F020E916F000135EC0AF003C002F161
:103E800002C001F101C000F1370E01018F6F040E75
:103E9000906F010E916F000135EC0AF003C005F13F
:103EA00002C004F101C003F1370E01018F6F030E50
:103EB000906F010E916F000135EC0AF003C008F11C
:103EC00002C007F101C006F1370E01018F6F010E2C
:103ED000906F020E916F000135EC0AF003C00BF1F8
:103EE00002C00AF101C009F1270E01018F6F070E10
:103EF000906F010E916F000135EC0AF003C00EF1D6
:103F000002C00DF101C00CF1250E01018F6F060EEC
:103F1000906F020E916F000135EC0AF003C011F1B1
:103F200002C010F101C00FF1250E01018F6F040EC8
:103F3000906F020E916F000135EC0AF003C014F18E
:103F400002C013F101C012F1250E01018F6F020EA4
:103F5000906F916F000135EC0AF003C017F102C0B9
:103F600016F101C015F1250E01018F6F906B020E45
:103F7000916F000135EC0AF003C01AF102C019F18B
:103F800001C018F1260E01018F6F060E906F020E10
:103F9000916F000135EC0AF003C01DF102C01CF165
:103FA00001C01BF1260E01018F6F040E906F020EEF
:103FB000916F000135EC0AF003C020F102C01FF13F
:103FC00001C01EF1C150C00B0F09C16E070EB46EC7
:103FD000020EC06F680EBF6F010E0201696F940E72
:103FE000686F050E6B6F230E6A6F020E0501246F5A
:103FF000D90E236F266B256B0001B86BB96B030ECE
:1040000001016F6FAA0E706F2D0E716FD40E726F5B
:10401000200E736F040E0201286F296B000175ECEE
:104020000AF0C150C00B0F09C16EDCEF0AF0E80EB8
:104030000101B86F0001F8EC0AF0C2EF0DF0015277
:104040001BE1C1EC0AF0010EEA6E740EE96E0E0E71
:10405000016EF76A000ED2EC01F00A000900F5CFFC
:10406000EEFF012EFBD7010E0201216F740E206FAF
:104070000001EBEC0DF0E1D7040E0201286F010EF8
:10408000296F000175EC0AF0010E0101906F6F0EAF
:104090008F6F73C191F1040E926F010E936F976B46
:1040A0001E0E966F840E956F800E946F996B986BB1
:1040B0000001A1EF14F0010EEA6E820EE96E0A0E05
:1040C000016EF76A000EE1EC01F00A000900F5CF7D
:1040D000EEFF012EFBD7010E0201216F820E206F31
:1040E0000001EBEC0DF0010E01018F6F906B946BF2
:1040F000936B926B916B956B0001A7EF1BF002C065
:104100008DF101C08CF101018C5302E18D532DE042
:104110008CC1E9FF8DC1EAFFEF5227E08E6B8CC1A5
:10412000E9FF8DC1EAFFEF508E5D14E2010E8E258E
:104130008C25E96E000E8D21EA6EEF50906B8F6F2B
:104140000201216BE8CF20F2000114EC0EF0010116
:104150008E2BE5D7826B010E0201216F820E206F3C
:104160000001EBEC0DF01AD00101010EEA6E820E97
:10417000E96E0A0E016EF76A000E0001EEEC01F026
:104180000A000900F5CFEEFF012EFBD7010E020158
:10419000216F820E206F0001EBEC0DF08DC1DEF17E
:1041A0008CC1DDF10CEC1AF0640E02011E6F0001EF
:0841B000E3EC0AF098D70300CC
:020000040030CA
:0E00000023CE3E1E0087A1000FC00FE00F4070
:00000001FF
;PIC18LF4550
;CRC=DE81  CREATED="01-jul.-23 10:50"
