:100000005FEF01F00000000000EF00F000000000D2
:0A0010000000000000000000F3D71C
:10001C00086A096A100E0C6E013408360936045051
:10002C00085E0550D8A0053C095ED8B007D0045036
:10003C0008260550D8B0053C0926D8900036013664
:06004C000C2EEAD71200A1
:0E005200ACB202D00000FCD781C0ADFF12009E
:100060000001856B050E855D0AE285518325E16EF1
:10007000000E8421E26E200EE66E852BF3D78551AB
:100080008325E16E000E8421E26EE66A85078551C4
:100090008325866F000E8421876F0A0E046E000E82
:1000A000056E81C000F082C001F0B8DF08C000F02A
:1000B00009C001F0300E002686C0E1FF87C0E2FFD4
:1000C00000C0E6FF0A0E046E000E056E81C000F04F
:1000D00082C001F0A3DF00C081F001C082F0000EF9
:1000E000011802E1000E001801E102D08507CFD708
:0200F0001200FC
:1000F200780E0001616F020E626F5F0E636F000E79
:10010200646FFE0E696F010E6A6F5F0E6B6F000EF9
:100112006C6F949E93929380C66A400EC76EC68A95
:020122001200C9
:1001240000017D6B7E6B77C07FF078C080F0800E1D
:100134007819006E800E005C02E1000E775D0BE220
:10014400010E7D6F000E7E6F775100087F6F78C0BF
:1001540080F0000E80577FC081F080C082F079C0AB
:1001640083F07AC084F07ADF060E7B6F000E7C6F1A
:10017400000E006E7C51005C02E17B51000819E224
:100184007B517925E16E7C517A21E26E010E7B5D13
:10019400006E000E7C59016E00507925E96E015005
:1001A4007A21EA6EEECFE6FF010E7B5F000E7C5BE8
:1001B400DFD779C0E1FF7AC0E2FF200EE66E7D5101
:1001C4007E111AE07B6B7C6B7B517925E96E7C5147
:1001D4007A21EA6EEE50200A03E17B4B7C2BF4D7A4
:1001E400010E7B5F000E7C5B7B517925E16E7C51B7
:0A01F4007A21E26E2D0EE66E120075
:1001FE005FC0C9FFC7B002D00000FCD7C9CF00F066
:02020E001200DC
:100210000900F5CFE6FF0006FBE10106F9E1120057
:10022000520E0001656F000E666F810E676F000E43
:10023000686FFF0E596EFF0E5A6E000E5B6E000E59
:100240005C6EFF0E516EFF0E526E000E536E000E6E
:10025000546EFF0E556EFF0E566E000E576E000E5A
:10026000586EAC8A900EAB6E948E949C9EAA03D06E
:08027000AECF00F0FBD7120035
:100278005FC0C9FFC7B002D00000FCD7C9CF00F0EB
:02028800120062
:10028A000001606B77C0E9FF78C0EAFFEECF5FF04C
:10029A005F50000A0EE05FC081F0D6DE0001602BDD
:1002AA0060517725E96E000E7821EA6EEECF5FF095
:0402BA00EFD7120068
:1002BE00F5EC01F0370E5E6EB886010EB06EA00E34
:1002CE00AF6EAC84A6DF5D50000801E2FFD7400E92
:1002DE00776F000E786FD2DF80889298959E838E0E
:1002EE00808800DF150E776F000E786FC7DF80985D
:1002FE005A0E5F6E7DDF340E0C6EF10E0D6E0D2EEE
:10030E00FED70C2EFCD7000000005A0E5F6EADDF3C
:10031E0000C05EF00B0E0B6E260E0C6E5D0E0D6E9B
:10032E000D2EFED70C2EFCD70B2EFAD70000000098
:10033E0080880B0E0B6E260E0C6E5D0E0D6E0D2E46
:10034E00FED70C2EFCD70B2EFAD7000000005E5005
:10035E00550A1DE05EC077F0000E0001786F6D0E3D
:10036E00796F000E7A6FD7DE310E776F000E786FD1
:10037E0085DF839E5EC081F065DE6D0E0001776FB6
:10038E00000E786F7BDF0A0E816F5CDE07D0838EE6
:10039E00230E0001776F000E786F70DFA8D7FFD79E
:1003EA0010EE15F03C0E006E010E016EAE0EF66EAA
:0E03FA00030EF76E000EF86E08EC01F0120014
:0E03AE0053504920696E69636961646F0A00EB
:0E03BC0052464D20636F72726563746F0A00C3
:0F03CA004461746F20726563696269646F0A0031
:1003D90053657269616C20636F72726563746F0A29
:0103E9000013
:020000040030CA
:0E000000000C1F1EFF8381FF0FC00FE00F409A
:00000001FF
