:04000000DBEF04F03E
:08000800046ED8CF05F0E0CF33
:1000100006F00001E9CF0CF0EACF07F0E1CF08F0DD
:10002000E2CF09F0D9CF0AF0DACF0BF0F3CF12F01C
:10003000F4CF13F0FACF14F0F5CF15F0F6CF16F099
:10004000F7CF17F000C00EF001C00FF002C010F0A3
:1000500003C011F09DA030EF00F09EB077EF00F0EC
:100060000EC000F00FC001F010C002F011C003F08C
:100070000CC0E9FF07C0EAFF078E08C0E1FF09C016
:10008000E2FF0AC0D9FF0BC0DAFF12C0F3FF13C0B2
:10009000F4FF14C0FAFF15C0F5FF16C0F6FF17C035
:1000A000F7FF045006C0E0FF05C0D8FF1000F76A54
:1000B000BE0FF66E000EF7220900F5501200010483
:1000C0000200030204400503063307E408C00900E8
:1000D000194225402607281029DC2D032E882F2DB4
:1000E0003001379038423C8F3D126F30FF00010ED7
:1000F0002026D8B0212AD8B4222AD8B4232A9E9008
:1001000030EF00F073696E63726F6E697A616E64CE
:100110006F00496E636F72726563742052464D20A2
:100120006465766963650A0073696E63726F6E69F0
:100130007A61646F310073696E63726F6E697A61A0
:10014000646F320074696D656F757400636F6E66FD
:100150006967757261646F006D6F646520736574A3
:100160000A0048696768506F77657200416464727D
:10017000657373202D20484558202D2042494E207C
:100180000A00202D2000202D2000414243444546F6
:100190004748494A4B4C4D4E4F5051525354555677
:1001A0005758595A0000EA6A890EE96EEF500EE07E
:1001B000050E016E006A002EFED7012EFBD72E0E13
:1001C000006E002EFED700D0EF2EF2D712000900ED
:1001D000F5520DE0F6CF81F0F7CF82F0F5509EA8F2
:1001E000FED7AD6E81C0F6FF82C0F7FFF0D71200D8
:1001F00020C001F0CE50CFCF03F09D90026E205072
:10020000015C04E0CE50CFCF03F001D0025003C018
:1002100000F020C001F021C002F022C003F0235002
:10022000E83203320232013200329D8019EF01F0D0
:10023000DFD71200959E8C9E1200876B959C8C9C3C
:10024000080E886F885317E00A0E896FACDF959C03
:100250008C9C86AF03D0959A8C8A02D0959A8C9A02
:10026000959C8C8C958883A801D08781D8908637FF
:1002700000008807E7D7959C8C9C959A8C8A87C04C
:1002800001F01200836B959A8C8A080E846F845358
:1002900011E00A0E896F87DF959C8C9CD89083377C
:1002A000959C8C8C958883A802D0838101D0000016
:1002B0008407EDD7959C8C9C83C001F01200959E1D
:1002C0008C8E1200B7DF81517F0B836F866FB5DF95
:1002D000D9DF01C082F0F3DF82C001F01200AADF93
:1002E00083518009856F866FA8DF84C086F0A5DF03
:1002F000E6DF12002A9076B12A802AA002D00F0EE3
:1003000001D01A0E776F130E836F77C084F0E7DF8A
:100310002AA00ED0110E816FD5DF01501F0B4009AE
:100320002009776F110E836F77C084F0D8DF08D073
:100330002B508009776F110E836F77C084F0CFDF69
:10034000620EF66E010EF76E42DF1200815302E07C
:100350005D0E01D0550E826F5A0E836F82C084F0FD
:10036000BEDF815302E07C0E01D0700E826F5C0E06
:10037000836F82C084F0B3DF12002850805D01E1FA
:1003800065D08051040A09E0070A19E0010A28E053
:10039000030A33E0010A3EE049D0010E816F92DF8B
:1003A0000150E30B0C09816F010E836F81C084F053
:1003B00096DF2AA003D0010E816FC8DF38D0010E6E
:1003C000816F80DF0150E30B1009816F010E836F95
:1003D00081C084F084DF2AA002D0816BB7DF27D0F0
:1003E000010E816F6FDF0150E30B0809816F010E71
:1003F000836F81C084F073DF1AD0010E816F62DFDA
:100400000150E30B0409816F010E836F81C084F0FA
:1004100066DF0DD0010E816F55DF0150E30B816F58
:10042000010E836F81C084F05ADF01D00FD02852B3
:1004300006E1270E816F46DF0150800BF8E080C097
:1004400028F0580EF66E010EF76EC1DE1200040E93
:10045000F66E010EF76EBBDE959E8C8EE9DE03C054
:100460006FF002C06EF001C06DF000C06CF0320E93
:10047000706F716B726B715333E1100E816F22DFFD
:1004800001C072F0120EF66E010EF76EA0DE080EBD
:10049000736F735319E0010E735D756F72C000F0D6
:1004A0007551016E04E0D8900032012EFCD700A0F7
:1004B00005D0310E9EA8FED7AD6E04D0300E9EA89A
:1004C000FED7AD6E7307E5D70A0E9EA8FED7AD6EB8
:1004D0007251240802E0000E01D0010E716FCBD7DB
:1004E0002F0E836FAA0E846FFADE2F0E816FEADE65
:1004F0000150AA0819E09CDE03C078F002C077F032
:1005000001C076F000C075F06C51755F6D51765B7F
:100510006E51775B6F51785B07E1775305E1765356
:1005200003E17051755DDCE3280EF66E010EF76E87
:100530004EDE7EDE03C06FF002C06EF001C06DF0D3
:1005400000C06CF02F0E836F550E846FC8DE2F0E27
:10055000816FB8DE0150550819E06ADE03C078F0FB
:1005600002C077F001C076F000C075F06C51755F85
:100570006D51765B6E51775B6F51785B07E1775316
:1005800005E1765303E17051755DDCE3360EF66EDE
:10059000010EF76E1CDE746BD8907435756F036AAC
:1005A000755185DDFF081AE0D8907435756F036AC0
:1005B00075517DDD776FD8907435796B786F010E4A
:1005C0007825016E000E7921036E015070DD786F81
:1005D00077C083F0846F83DE742BDED7000E2AB0E1
:1005E000010E756F766F86DE010E806FC6DE20DE2F
:1005F00003C06FF002C06EF001C06DF000C06CF07F
:10060000270E816F5FDE0150800B19E111DE03C000
:1006100078F002C077F001C076F000C075F06C5140
:10062000755F6D51765B6E51775B6F51785B07E15B
:10063000775305E1765303E17051755DE1E3F8DD31
:1006400003C078F002C077F001C076F000C075F00A
:100650006C51755F6D51765B6E51775B6F51785B56
:1006600007E1775305E1765303E17051755D08E3C7
:10067000440EF66E010EF76EAADD000E016E09D073
:100680004C0EF66E010EF76EA2DD6BC029F0010E66
:10069000016E34EF05F06FBF10D00F0E006E6E3993
:1006A00000160A0E005C03E2300E002602D06F51E5
:1006B000002600509EA8FED7AD6E0F0E6E170A0ED4
:1006C0006E5D02E2300E02D06F9F6F516E276E5149
:1006D0009EA8FED7AD6E12006C0EF66E010EF76E80
:1006E00076DD010E6C6F6C514F0841E3A3DD6C5158
:1006F0007F0B6E6F866FA1DDC5DD01C06BF0DFDDA6
:100700006CC06EF0370E6F6FC6DF820EF66E010E94
:10071000F76E5DDD6BC06EF0370E6F6FBCDF860E5F
:10072000F66E010EF76E53DD080E6D6F6D5319E016
:10073000010E6D5D6E6F6BC000F06E51016E04E0D6
:10074000D8900032012EFCD700A005D0310E9EA813
:10075000FED7AD6E04D0300E9EA8FED7AD6E6D07ED
:10076000E5D70A0E9EA8FED7AD6E6C2BBCD7A7DDD1
:1007700012002DC0EAFF2CC0E9FF6DC0EFFFE92A8F
:10078000D8B4EA2AEF6A2C2AD8B42D2AD2EF03F083
:100790000900F5520CE0F6CF6BF0F7CF6CF0F5CF17
:1007A0006DF0E7D76BC0F6FF6CC0F7FFF1D74AEFEB
:1007B00005F0766B756B74530BE0230E836F010E9F
:1007C000846F8DDD230E816F7DDD0150020BFAE019
:1007D000240E816F77DD011C756F752BD8B4762BD5
:1007E000D8907633753375C001F076C002F001EF12
:1007F00004F02850030814E1255212E1010E746F31
:10080000D8D702C075F001C074F0755309E12450C7
:10081000745D06E2010E806FB0DD010E016E02D044
:10082000000E016E9CEF04F0010E806FA6DD270E16
:10083000816F48DD0150800BFAE0250E836F846BD9
:100840004EDD77513D0802E23D0E776F7A6B7953AA
:1008500003E0800E7A6F04D0785302E0400E7A6F86
:10086000E9DC800E866FE9DC030E7725806F866FEA
:10087000E4DC74C086F0E1DC29C086F0DEDC7AC0FE
:1008800086F0DBDC7B6B77517B5D0BE27B51752562
:10089000E96E000E7621EA6EEFCF86F0CEDC7B2B80
:1008A000F2D70DDD040E806F68DDC2DC03C07FF07F
:1008B00002C07EF001C07DF000C07CF0938081B06A
:1008C0001BD0B6DC03C084F002C083F001C082F00C
:1008D00000C081F07C51815F7D51825B7E51835BE2
:1008E0007F51845B09E1835307E18251030804E3EC
:1008F000E5E18151E708E2E2280E816FE3DC000BBD
:10090000FBE1010E806F39DDC5EF04F03D0E816F14
:10091000D9DC0150FB0B0409746F3D0E836F74C06A
:1009200084F0DDDC85DC03C073F002C072F001C02E
:1009300071F000C070F05DD701521BE179DC03C09B
:1009400077F002C076F001C075F000C074F070510D
:10095000745F7151755B7251765B7351775B09E11E
:10096000765307E17551030804E3E5E17451E708A4
:10097000E2E26BC074F06DC076F06CC075F06EC0D2
:1009800077F06FC078F0796B4FD753EF05F0EF52E7
:1009900010E0EACF6CF0E9CF6BF0EF509EA8FED7E5
:1009A000AD6E6CC0EAFF6BC0E9FFE92AD8B4EA2A51
:1009B000EED757EF05F0F86AD09E078EFE0E006E58
:1009C000080E016E020EE96E000EEA6EEE6A002E4F
:1009D000FDD7012EFBD71F6AB886A00EAF6E010EA1
:1009E000B06EA60EAC6E900EAB6E236A226A216AC0
:1009F000206ACD90B50ECD6ECF6ACE6A00009E9073
:100A00009D80A60E246E2A801F0E2B6E2D6A2C6AE6
:100A1000C150C00B0F09C16E070EB46E196A1A6A75
:100A2000256A266A276A286A296A110E946E100EB2
:100A3000956E939E8A9E020E6B6FFA0E896FD3ECB1
:100A400000F06B2FFAD7939E8A8E959E8C8E959C84
:100A50008C9C020E6B6FFA0E896FD3EC00F06B2F3B
:100A6000FAD7020E6B6FF3D4020E6B6FFA0E896F1A
:100A7000D3EC00F06B2FFAD7010E766F3BDC2CDE47
:100A80002BDEFED72D6A2E0E2C6E8A0EF66E010E10
:100A9000F76E7ED6010E6B6F6D6B2E0E6C6F3F0E78
:100AA0006E6F6F6B33D7EA6A2E0EE96E70D7640EE5
:0A0AB000896FD3EC00F0E4D70300D7
:020000040030CA
:0E00000003CC381E0087A1000FC00FE00F4098
:00000001FF
;PIC18F4550
;CRC=7596  CREATED="06-may.-23 21:28"
