:1000000060EF00F00000000000EF00F000000000D2
:0A0010000000000000000000F3D71C
:0E001C00ACB202D00000FCD732C0ADFF120023
:10002A00316A2EC0E9FF2FC0EAFFEECF30F0305020
:10003A00000A0DE030C032F0ECDF312A31502E24B4
:10004A00E96E000E2F20EA6EEECF30F0F0D71200E4
:10005A001C0E1E6E000E1F6E320E206E000E216EDA
:10006A00FF0E226EFF0E236E000E246E000E256E0A
:10007A00FF0E2A6EFF0E2B6E000E2C6E000E2D6EDA
:10008A00FF0E266EFF0E276E000E286E000E296EDA
:10009A00AC8A900EAB6E948E949C9EAA03D0AECF7F
:0600AA0000F0FBD712007C
:1000B0000900F5CFE6FF0006FBE10106F9E11200B9
:1000C000460E156E750E166E6E0E176E630E186E5A
:1000D000690E196E6F0E1A6E6E0E1B6E610E1C6E1F
:1000E0001D6AB886010EB06EA00EAF6EAC84B5DF8F
:0E00F000150E2E6E000E2F6E98DFFAD7FFD77A
:020000040030CA
:0E000000000C1F1EFF8381FF0FC00FE00F409A
:00000001FF
